:020000040800F2
:100000000000022089170008451300084913000862
:100010004D1300085113000855130008000000009C
:10002000000000000000000000000000591300085C
:100030005D1300080000000061130008D9170008D4
:10004000D9170008D9170008D9170008D9170008D0
:10005000D9170008D9170008D9170008D9170008C0
:10006000D9170008D9170008D9170008D9170008B0
:10007000D9170008D9170008D9170008D9170008A0
:10008000D9170008D9170008D91700080000000088
:10009000000000000000000000000000D917000868
:1000A000D917000865130008D9170008D9170008E8
:1000B000D9170008D9170008D9170008D917000860
:1000C000D9170008D9170008D9170008D917000850
:1000D000D917000871130008D917000800000000A4
:1000E000D9170008D9170008D91700080000000028
:1000F000000000000000000000000000D917000808
:1001000000000000D9170008D9170008D917000807
:1001100000000000000000000000000000000000DF
:10012000D9170008D9170008D9170008D9170008EF
:10013000D9170008000000000000000000000000C7
:10014000000000000000000000000000D9170008B7
:10015000D9170008D9170008D91700087513000827
:10016000D9170008D917000800000000000000009F
:10017000000000000000000000000000000000007F
:1001800000000000D9170008000000000000000077
:08019000D9170008D917000877
:1001980010B5054C237833B9044B13B10448AFF3B9
:1001A80000800123237010BD0C0000200000000017
:1001B8002418000808B5034B1BB103490348AFF3E3
:1001C800008008BD0000000010000020241800086E
:1001D80053B94AB9002908BF00281CBF4FF0FF31A6
:1001E8004FF0FF3000F072B9ADF1080C6DE904CEA4
:1001F80000F006F8DDF804E0DDE9022304B07047FA
:100208002DE9F047089E04468846002B4BD18A42C8
:10021800154667D9B2FA82F24AB1C2F1200701FA4B
:1002280002F320FA07F7954047EA030894404FEA9B
:10023800154E230CB8FBFEF71FFA85FC0EFB17883A
:1002480043EA084307FB0CF1994209D9EB1807F177
:10025800FF3080F01B81994240F21881023F2B4405
:100268005B1AA4B2B3FBFEF00EFB103344EA03445E
:1002780000FB0CFCA44509D92C1900F1FF3380F0D0
:100288000781A44540F2048102382C4440EA074023
:10029800A4EB0C0400271EB1D4400023C6E9004398
:1002A8003946BDE8F0878B4209D9002E00F0EB8073
:1002B8000027C6E9000138463946BDE8F087B3FA99
:1002C80083F7002F47D18B4202D3824200F2FA8093
:1002D800841A61EB030301209846002EE0D0C6E99A
:1002E8000048DDE702B9FFDEB2FA82F2002A40F0E8
:1002F8008F80491B4FEA154E1FFA85F80127B1FB7D
:10030800FEFC230C0EFB1C1143EA014308FB0CF115
:10031800994207D9EB180CF1FF3002D2994200F24A
:10032800CD808446591AA3B2B1FBFEF00EFB10141F
:1003380043EA044408FB00F8A04507D92C1900F14A
:10034800FF3302D2A04500F2B6801846A4EB080499
:1003580040EA0C409FE7C7F1200CBB4022FA0CFE94
:100368004EEA030E01FA07F420FA0CF521FA0CF311
:100378004FEA1E482543B3FBF8F92C0C08FB193348
:100388001FFA8EFA44EA034309FB0AF49C4202FA74
:1003980007F200FA07F10BD91EEB030309F1FF304E
:1003A80080F087809C4240F28480A9F1020973445E
:1003B8001B1BADB2B3FBF8F008FB103345EA03444E
:1003C80000FB0AFAA24508D91EEB040400F1FF332A
:1003D8006BD2A24569D90238744440EA0940A0FBAF
:1003E8000289A4EB0A044C45C2464B4654D351D06B
:1003F800002E69D0B1EB0A0564EB030404FA0CFC87
:10040800FD40FC404CEA0505C6E90054002747E7D3
:10041800C2F1200320FA03F7954001FA02F021FA0D
:1004280003F34FEA154E3843010CB3FBFEF71FFAEE
:1004380085F80EFB173341EA034107FB08F38B42AB
:1004480004FA02F407D9691807F1FF3C2FD28B424E
:100458002DD9023F2944CB1A81B2B3FBFEF00EFB23
:10046800103341EA034100FB08F38B4207D96918AE
:1004780000F1FF3C17D28B4215D902382944C91A1A
:1004880040EA07473BE73746304609E70746E7E6CD
:100498001846FBE64145ABD2B8EB020A69EB0E02FF
:1004A80001381346A4E76046E9E7184695E767462A
:1004B800D1E781467CE702382C4447E7ACF1020CCF
:1004C8002B442FE7384608E73746E9E6704700BF70
:1004D80008B50B4B1A6842F400721A601A6842F4A5
:1004E80080621A601A6842F480721A60032000F071
:1004F8002DF8002000F0E4FE00F0C6FE002008BD44
:10050800003C0240034A044B11681B780B441360FB
:10051800704700BF2800002000000020014B186829
:10052800704700BF2800002038B50446FFF7F6FFE3
:10053800631C054602D0044B1B781C44FFF7EEFFF2
:10054800401BA042FAD338BD00000020074AD368F8
:100558004FF6FF010B40000243F0BF6300F4E06078
:1005680043F400330343D360704700BF00ED00E05D
:10057800184BDB68C3F3022330B4C3F10705042D1D
:1005880003F1040428BF0425062C19D9033B4FF0B6
:10059800FF349C4022EA04044FF0FF32AA4021EACB
:1005A800020101FA03F2224312010028D2B20ADB47
:1005B80000F1604000F5614080F8002330BC7047CE
:1005C80000242346E8E7044B00F00F0003441A76A2
:1005D80030BC704700ED00E0FCEC00E0002807DBD1
:1005E80000F01F0101234009024A8B4042F82030E5
:1005F800704700BF00E100E0002800F032812DE9DB
:10060800F0410368DD0782B004462FD5AC498A68FB
:1006180002F00C02042A00F0EA808A6802F00C0258
:10062800082A00F0E0806368B3F5803F00F0E980B5
:10063800B3F5A02F00F05481A14D2A6822F480322E
:100648002A602A6822F480222A60002B40F0DE808B
:10065800FFF764FF064605E0FFF760FF801B64288C
:1006680000F2F2802B689B03F6D423689F0775D4A9
:100678001A0715D56369002B00F0A580914B904DA2
:1006880001221A60FFF74AFF064605E0FFF746FF1A
:10069800801B022800F2D8806B6F9B07F6D5236871
:1006A80058073BD5864A136C13F0805340F0DB8023
:1006B8000193136C43F080531364136C03F080535D
:1006C8000193019B0126804D2A68D10540F1AC8039
:1006D800A368012B00F0C980052B00F00B81784D31
:1006E8002A6F22F001022A672A6F22F004022A6781
:1006F800002B40F0BF80FFF711FF41F2883780469A
:1007080006E0FFF70BFFA0EB0800B84200F29C8060
:100718002B6F9807F5D4002E40F0DC80A269CAB18F
:10072800674DA96801F00C01082948D0022A674AD8
:100738004FF00001116000F0E780FFF7EFFE2C4654
:10074800054604E0FFF7EAFE401B02287CD8236830
:100758009B01F7D4002002B0BDE8F081584A9168A7
:1007680011F00C0F24D0916801F00C0108291CD05D
:10077800E368002B00F09280554B514D01221A601E
:10078800FFF7CCFE064604E0FFF7C8FE801B0228F0
:100798005AD82B689807F7D52B68226923F0F803F5
:1007A80043EAC2032B60236862E752685602DFD42B
:1007B800434A126895074BD5E268012A48D00120C0
:1007C80002B0BDE8F0813F4A3D4D1360FFF7A6FE39
:1007D800064604E0FFF7A2FE801B022834D86B6FA0
:1007E8009F07F7D45BE74A6850027FF51CAF344A8D
:1007F800126891037FF53AAF6268002A7FF436AF3A
:10080800DDE72F4A136843F480331360FFF786FE51
:100818002B4D064604E0FFF781FE801B642813D8A1
:100828002B689A03F7D520E72A6842F480722A6079
:10083800FFF774FE07462B68DA053FF549AFFFF767
:100848006DFEC01B0228F6D9032002B0BDE8F08176
:100858001B4920690A6822F0F80242EAC0020A60CD
:1008680006E70120704700262DE7154A136F43F06D
:1008780001031367FFF752FE114D804641F2883796
:1008880005E0FFF74BFEA0EB0800B842DCD82B6F61
:100898009B07F6D5002E3FF441AF1BE00C4A084DEC
:1008A8001360FFF73BFE064604E0FFF737FE801BA8
:1008B8000228C9D82B689907F7D42368D8E600BF5F
:1008C80000380240800E47420070004060004742F6
:1008D80000004742234A136C23F0805313641DE73A
:1008E800204B1A6842F480221A601A6842F4803257
:1008F8001A608BE71B4B1A6F42F004021A671A6FD3
:1009080042F001021A67B5E7FFF708FE064604E061
:10091800FFF704FE801B022896D82B689901F7D4AC
:10092800D4E90736D4E90902E16A0E4C334343EAB5
:100938008013520843EA0163013A0B4943EA024330
:1009480001226B600A60FFF7E9FD054605E0FFF745
:10095800E5FD401B02283FF677AF23689A01F6D5DC
:10096800F8E600BF0038024060004742174908B562
:100978008B6803F00C03042B1BD0082B17D14A6893
:100988004B6813F4800302F03F0214D14968104801
:10099800C1F38811A1FB0001FFF71AFC0B4B5B6840
:1009A800C3F3014301335B00B0FBF3F008BD084813
:1009B80008BD084808BD4B680648C3F38813A3FB65
:1009C80000010023FFF704FCE8E700BF00380240FD
:1009D8000024F40000127A0060B1484A136803F05A
:1009E8000F038B4208D2CBB21370136803F00F03C6
:1009F8008B4201D00120704703682DE9F0419D0723
:100A080014D55C0704D53E4CA26842F4E052A260BB
:100A18001A0704D53A4CA26842F46042A260384CE6
:100A28008568A26822F0F0022A43A260DF07044624
:100A38000D4622D54268012A56D0931E012B304B11
:100A48001B6858D9990725D52D4EB36823F00303A1
:100A58001343B360FFF762FD41F28837804605E033
:100A6800FFF75CFDA0EB0800B84242D8B3686268A3
:100A780003F00C03B3EB820FF2D1204A136803F0A2
:100A88000F03AB4209D9EBB21370136803F00F03DD
:100A9800AB4202D00120BDE8F08123685A0706D591
:100AA8001749E0688A6822F4E05202438A601B070B
:100AB80011D4FFF75BFF124B12499B68124AC3F32C
:100AC8000313CB5C20FA03F30020136000F0F8FB5B
:100AD8000020BDE8F0810A4A2169936823F4604345
:100AE80043EAC1039360E4E7054B1B689E03ABD45C
:100AF800D0E70320EDE79801A6D4CBE7003C0240FD
:100B0800003802403C18000808000020044B054A41
:100B18009B680549C3F342330868D35CD8407047E3
:100B2800003802404C180008080000200E4B0F2225
:100B380002609A6802F0030242609A6802F0F002CA
:100B480082609A6802F4E052C2609B68DB0810B4C5
:100B580003F4E053054C036123685DF8044B03F08C
:100B68000F030B60704700BF00380240003C024092
:100B7800F0B50446006810F0050F83B00AD1850768
:100B880044D410F0080003D0494B227D1A6000209D
:100B980003B0F0BD474B484D00221A60FFF7BEFC7A
:100BA800064604E0FFF7BAFC801B02282BD82B6806
:100BB8001B01F7D4D4E9020361683E4A1B0743EAE4
:100BC80080130B430121C5F884301160FFF7A6FCA0
:100BD800394D064604E0FFF7A1FC801B022812D815
:100BE8002B681F01F7D52068C9E70D46FFF796FC6B
:100BF80041F2883607462B6F9B073AD4FFF78EFCE5
:100C0800C01BB042F7D9032003B0F0BD2A4B2B4DCF
:100C1800002201921A6C42F080521A641B6C03F095
:100C280080530193019B2B6843F480732B60FFF77B
:100C380075FC064604E0FFF771FC801B0228E2D829
:100C48002B68D905F7D51C4923690A6F12F440723D
:100C580003F4407010D082420ED00B6F184A23F470
:100C6800407301250020156010600B670B6FDA07D1
:100C7800BBD4236903F44070B0F5407F0CD00E4913
:100C88008A6822F4F8128A600B4A116FC3F30B03C7
:100C98000B431367206874E70748826823F07041A4
:100CA80022F4F81221F440710A438260ECE700BF95
:100CB800E011474268004742003802400070004097
:100CC800400E4742704700BF002846D0F8B590F85C
:100CD8003D30044603F0FF0233B32268284DA6696D
:100CE800E0686168022384F83D30AA42136836D070
:100CF800B2F1804F1DD0A5F57C45AA4219D005F563
:100D08008065AA4215D005F58065AA4211D005F57F
:100D18009A35AA4211D005F58065AA420DD005F58D
:100D28008065AA420DD108E080F83C20FFF7CAFF91
:100D3800D3E7A56823F070032B43256923F4407398
:100D48002B4323F0800333431360D0629162012365
:100D58005361002084F83D30F8BD01207047A76832
:100D6800256923F070033B4323F440732B4323F09E
:100D7800800333431360D062916263691363E6E7CB
:100D8800000001400368DA6842F00102DA609A68FC
:100D980002F00702062A03D01A6842F001021A601C
:100DA80000207047704700BF704700BF704700BF02
:100DB800704700BF03681A69910710B5044602D549
:100DC800DA6892075FD41A69500702D5DA685107C2
:100DD80046D41A69120702D5DA6810072ED41A69A0
:100DE800D20602D5DA68D00618D41A69D10702D516
:100DF800DA68D2075DD41A69100602D5DA681106D6
:100E08005FD41A69520602D5DA68500661D41A69A5
:100E1800910602D5DA68920643D410BD6FF010022D
:100E28001A61DB69082213F4407F2277204664D0D8
:100E3800FFF7BAFF002223682277D6E76FF008028F
:100E48001A61DB69042299072277204652D1FFF7FD
:100E5800A9FF2046FFF7AAFF002223682277BEE7F2
:100E68006FF004021A619B69022213F4407F227713
:100E780020463CD1FFF796FF2046FFF797FF002258
:100E880023682277A5E76FF002021A619B690122A5
:100E98009B07027725D0FFF787FF00222368227778
:100EA80091E76FF0200220461A61BDE8104000F07B
:100EB8002BB86FF001021A61204600F0DBF92368B5
:100EC80099E76FF080021A61204600F01FF8236846
:100ED80097E76FF040021A612046FFF769FF236821
:100EE80095E7FFF75FFF2046FFF760FFD5E7FFF7BD
:100EF8005BFFC4E7FFF758FFAEE7FFF753FF204655
:100F0800FFF754FF96E700BF704700BF704700BF68
:100F180001790368C9B1B3B14279012A36D021D326
:100F2800022A38D1244A11681943116051681943BB
:100F380051600021827932B3022A38D0032A1BD0AB
:100F4800012A2AD00123184670471B4A10B4146896
:100F5800DB431C40146050685DF8044B1840506037
:100F680008467047144A516821EA03015160116824
:100F7800194311600021DDE70F4A9068184390601B
:100F8800D0680343D3600B46184670470A4A116875
:100F980021EA0301C9E70121CCE7074AD06820EA22
:100FA8000300D0609068034393600B46CBE7024A86
:100FB800906820EA0300E2E7003C01402DE9F04F89
:100FC8000C6894FAA4F24E68B2FA82F234FA02F388
:100FD80006F1FF3E79D04FF0010C03274FF00F08C0
:100FE80003E0013234FA02F36FD00CFA02F3234023
:100FF800F7D0D0F8009093FAA3FABAFA8AFA93FADB
:10100800A3F5B5FA85F54FEA4A0A6D0007FA0AFA18
:1010180006FA05F529EA0A0949EA0505BEF1010FAC
:10102800056016D8856893FAA3F9B9FA89F993FA8D
:10103800A3FA4FEA490907FA09F925EA0909BAFAA8
:101048008AFA8D684FEA4A0A05FA0AF549EA050557
:101058008560C56893FAA3F9B9FA89F993FAA3FAEE
:101068004FEA490907FA09F925EA0909BAFA8AFA91
:101078000D694FEA4A0A05FA0AF549EA0505022EFA
:10108800C560AED193FAA3FABAFA8AFABAF1070F91
:101098004FEA1325D1F8149025DC056A93FAA3FAD0
:1010A800BAFA8AFA93FAA3F3B3FA83F34FEA8A0AED
:1010B8009B0008FA0AFA09FA03F325EA0A052B4302
:1010C8000132036234FA02F38FD1BEF1010F07D85F
:1010D800CA68436802FB04F223EA04041443446028
:1010E8000020BDE8F08FD0F824A095FAA5FBBBFA44
:1010F8008BFB95FAA5F3B3FA83F34FEA8B0B9B00AE
:1011080008FA0BFB09FA03F32AEA0B0A4AEA030373
:10111800436266E708B500F069F84FF4FA7000F02A
:101128000DF80121022000F099FA4FF4FA7000F04E
:1011380005F80021022000F091FAEEE7FFF7F4B974
:1011480030B500249BB0CDE91144CDE90444CDE984
:101158000644CDE90944CDE90B44224A019413948D
:10116800039408940D94116C1F4B41F08051116445
:10117800126C02F080520192019A02941A6842F4A9
:1011880040421A601B6803F44043029305214FF460
:1011980080330122022502980E910F934FF48001AB
:1011A800042310920EA85422CDE91451CDE9163229
:1011B800CDE91853FFF720FA0F2229464FF4805340
:1011C80003A803920693CDE904540794FFF704FC9F
:1011D8004FF4807308A808950C93FFF7C9FC1BB05F
:1011E80030BD00BF003802400070004008B5FFF76E
:1011F8006FF9FFF7A5FF00F0E3F80121002000F0E8
:1012080027F90121084600F023F90121022000F006
:101218001FF90121032000F01BF90121042000F02F
:1012280017F90021052000F013F9002000F05EF9FD
:10123800012000F05BF9022000F058F9032000F0CB
:1012480055F9042000F052F9052000F04FF9062066
:1012580000F04CF9072000F049F9082000F046F9A1
:10126800092000F043F90A2000F040F9BDE80840E1
:1012780000F0B8B90268034B9A4200D07047FFF7F4
:1012880041B900BF0000014082B00C4B0021009121
:101298005A6C42F480425A645A6C02F480420092BA
:1012A800009A01911A6C42F080521A641B6C03F088
:1012B80080530193019B02B0704700BF0038024081
:1012C80030B5014689B000221920FFF751F91920DD
:1012D800FFF784F90025154B02955A6C144C42F01F
:1012E80001025A645B6C03F0010301A9029303A88D
:1012F800029BFFF71BFCFFF709FC0E4B0E4925610B
:10130800A3FB00239B0C013B40F2E7322046C4E9D3
:1013180001352160E260FFF7D7FC10B1012009B068
:1013280030BD2046FFF72EFD09B030BD0038024021
:101338002C00002083DE1B4300000140704700BFE3
:10134800FEE700BFFEE700BFFEE700BFFEE700BF05
:10135800704700BF704700BF704700BF0148FFF7E4
:1013680029BD00BF2C000020704700BF704700BF98
:101378001049114BD1F8882042F4700210B4C1F81A
:1013880088201A680D4C002042F001021A6098600B
:101398001A6822F0847222F480321A605C601A683B
:1013A8004FF0006422F480221A60D8608C605DF8E7
:1013B800044B704700ED00E0003802401030002474
:1013C8001E4B1F491A6B1F4870B442F004021A637F
:1013D8001A6B1D4D1D4C87B002F004020592059A48
:1013E8001A6B42F080021A631A6B02F080020492B0
:1013F800049A1A6B42F001021A631A6B02F0010296
:101408000392039A1A6B42F002021A631A6B02F0F3
:1014180002020292029A1A6B42F008021A631B6BCC
:1014280003F008030193019E4FF000524FF440333C
:10143800AA61A361886107B070BC70470038024098
:1014480000040240000004F70008024000000240C7
:1014580010B586B000230491CDE9013303930593B9
:1014680005283CD8DFE800F00D161F2831034FF49B
:10147800806369461B480093FFF7A0FD012006B072
:1014880010BD0124694618480094FFF797FD2046CF
:1014980006B010BD0223694613480093FFF78EFD7E
:1014A800012006B010BD102369460E480093FFF7CF
:1014B80085FD012006B010BD202369460948009328
:1014C800FFF77CFD012006B010BD4FF400636946AC
:1014D80004480093FFF772FD012006B010BD0020FC
:1014E800CDE700BF000802400004024010B586B0F6
:1014F80000230122CDE90233CDE9043301920A2801
:1015080068D8DFE800F010182028313A434C555EBF
:1015180006004FF4005369462F480093FFF74EFD2D
:10152800012006B010BD012469462C480094FFF73D
:1015380045FD2046F5E70223694628480093FFF752
:101548003DFD0120EDE70423694625480093FFF798
:1015580035FD0120E5E74FF4807369462048009384
:10156800FFF72CFD0120DCE74FF4007369461C48A7
:101578000093FFF723FD0120D3E74FF4806369460A
:1015880017480093FFF71AFD0120CAE74FF40053EC
:10159800694613480093FFF711FD0120C1E74FF496
:1015A800805369460E480093FFF708FD0120B8E70D
:1015B8004FF4804369460A480093FFF7FFFC012077
:1015C800AFE74FF40043694605480093FFF7F6FC80
:1015D8000120A6E70020A4E700080240000002401E
:1015E8000004024010B582B000231A4A01935369DF
:1015F8004FF4704123F4704391FAA1F10121536132
:10160800684602234FF400448DF804108DF8063024
:101618000094FFF77DFC104AD06894FAA4F3B3FA5B
:1016280083F303215B0001FA03F320EA030394FA2E
:10163800A4F0D360106894FAA4F3B3FA83F35B00C0
:1016480001FA03F320EA030394FAA4F4136002B046
:1016580010BD00BF00380140000002400A2800F217
:101668008680DFE800F00E141B222A323A424950E5
:101678000600404B002933D14FF000529A610120F7
:1016880070473D4B00296DD00120986170473A4B57
:10169800002962D002229A6101207047374B002945
:1016A80056D004229A6101207047344B00294AD051
:1016B8004FF480729A6101207047304B00293DD069
:1016C8004FF400729A61012070472C4B002930D0EA
:1016D8004FF480629A6101207047284B0029CBD0D3
:1016E8004FF400529A6101207047244BE1B14FF446
:1016F80080529A6101207047204B81B14FF480429B
:101708009A61012070471D4B21B14FF400429A6144
:10171800012070474FF000429A61012070474FF056
:1017280080429A61012070474FF080529A610120EF
:1017380070474FF080629A61012070474FF0007245
:101748009A61012070474FF080729A6101207047BA
:101758004FF480229A61012070474FF400329A6159
:10176800012070474FF480329A61012070470020B1
:10177800704700BF00080240000002400004024019
:10178800DFF834D0002103E00C4B5B5843500431A0
:101798000B480C4B42189A42F6D30B4A02E000233E
:1017A80042F8043B094B9A42F9D3FFF7E1FD00F0F8
:1017B80011F8FFF7AFFC704700000220641800081A
:1017C800000000200C0000200C0000206C0000200D
:1017D800FEE7000070B50D4E0D4CA41BA4100025AB
:1017E800A54209D10B4E0C4C00F018F8A41BA4100C
:1017F8000025A54205D170BD56F82530984701351A
:10180800EEE756F8253098470135F2E75C180008EE
:101818005C1800085C18000860180008F8B500BFDC
:10182800F8BC08BC9E467047F8B500BFF8BC08BCB9
:041838009E46704711
:10183C000000000000000000010203040607080974
:08184C0000000000010203048A
:08185400B4E9FF7F0100000070
:04185C00BD010008C2
:0418600099010008E2
:0C18640001000000100000000024F4004F
:04000005080017894F
:00000001FF
