:020000040800F2
:1000000000000220A15E0008E54E0008E94E00084D
:10001000ED4E0008F14E0008F54E0008000000000B
:10002000000000000000000000000000D13A0008BD
:10003000F94E000800000000613B0008C53B0008C5
:10004000F15E0008F15E0008F15E0008F15E000854
:10005000F15E0008F15E0008F15E0008F15E000844
:10006000F15E0008F15E0008F15E0008F15E000834
:10007000F15E0008F15E0008F15E0008F15E000824
:10008000F15E0008F15E0008F15E0008000000006B
:10009000000000000000000000000000F15E000809
:1000A000F15E0008FD4E0008F15E0008F15E0008F8
:1000B000F15E0008F15E0008F15E0008F15E0008E4
:1000C000F15E0008F15E0008F15E0008F15E0008D4
:1000D000F15E000809450008F15E0008000000001C
:1000E000F15E0008F15E0008F15E0008000000000B
:1000F000000000000000000000000000F15E0008A9
:1001000000000000F15E0008F15E0008F15E0008EA
:1001100000000000000000000000000000000000DF
:10012000F15E0008F15E0008F15E0008F15E000873
:10013000F15E000800000000000000000000000068
:10014000000000000000000000000000F15E000858
:10015000F15E0008F15E0008F15E0008A1450008AC
:10016000F15E0008F15E00080000000000000000E1
:10017000000000000000000000000000000000007F
:1001800000000000F15E0008000000000000000018
:08019000F15E0008F15E0008B9
:1001A00010B5054C237833B9044B13B10448AFF3B1
:1001B00000800123237010BD3803002000000000E0
:1001C0005071000808B5034B1BB103490348AFF356
:1001D000008008BD000000003C03002050710008B2
:1001E00053B94AB9002908BF00281CBF4FF0FF319E
:1001F0004FF0FF3000F072B9ADF1080C6DE904CE9C
:1002000000F006F8DDF804E0DDE9022304B07047F1
:100210002DE9F047089E04468846002B4BD18A42C0
:10022000154667D9B2FA82F24AB1C2F1200701FA43
:1002300002F320FA07F7954047EA030894404FEA93
:10024000154E230CB8FBFEF71FFA85FC0EFB178832
:1002500043EA084307FB0CF1994209D9EB1807F16F
:10026000FF3080F01B81994240F21881023F2B44FD
:100270005B1AA4B2B3FBFEF00EFB103344EA034456
:1002800000FB0CFCA44509D92C1900F1FF3380F0C8
:100290000781A44540F2048102382C4440EA07401B
:1002A000A4EB0C0400271EB1D4400023C6E9004390
:1002B0003946BDE8F0878B4209D9002E00F0EB806B
:1002C0000027C6E9000138463946BDE8F087B3FA91
:1002D00083F7002F47D18B4202D3824200F2FA808B
:1002E000841A61EB030301209846002EE0D0C6E992
:1002F0000048DDE702B9FFDEB2FA82F2002A40F0E0
:100300008F80491B4FEA154E1FFA85F80127B1FB74
:10031000FEFC230C0EFB1C1143EA014308FB0CF10D
:10032000994207D9EB180CF1FF3002D2994200F242
:10033000CD808446591AA3B2B1FBFEF00EFB101417
:1003400043EA044408FB00F8A04507D92C1900F142
:10035000FF3302D2A04500F2B6801846A4EB080491
:1003600040EA0C409FE7C7F1200CBB4022FA0CFE8C
:100370004EEA030E01FA07F420FA0CF521FA0CF309
:100380004FEA1E482543B3FBF8F92C0C08FB193340
:100390001FFA8EFA44EA034309FB0AF49C4202FA6C
:1003A00007F200FA07F10BD91EEB030309F1FF3046
:1003B00080F087809C4240F28480A9F10209734456
:1003C0001B1BADB2B3FBF8F008FB103345EA034446
:1003D00000FB0AFAA24508D91EEB040400F1FF3322
:1003E0006BD2A24569D90238744440EA0940A0FBA7
:1003F0000289A4EB0A044C45C2464B4654D351D063
:10040000002E69D0B1EB0A0564EB030404FA0CFC7E
:10041000FD40FC404CEA0505C6E90054002747E7CB
:10042000C2F1200320FA03F7954001FA02F021FA05
:1004300003F34FEA154E3843010CB3FBFEF71FFAE6
:1004400085F80EFB173341EA034107FB08F38B42A3
:1004500004FA02F407D9691807F1FF3C2FD28B4246
:100460002DD9023F2944CB1A81B2B3FBFEF00EFB1B
:10047000103341EA034100FB08F38B4207D96918A6
:1004800000F1FF3C17D28B4215D902382944C91A12
:1004900040EA07473BE73746304609E70746E7E6C5
:1004A0001846FBE64145ABD2B8EB020A69EB0E02F7
:1004B00001381346A4E76046E9E7184695E7674622
:1004C000D1E781467CE702382C4447E7ACF1020CC7
:1004D0002B442FE7384608E73746E9E6704700BF68
:1004E000034613F8012B002AFBD1181A0138704774
:1004F00001F0FF01102A2BDB10F0070F08D010F8D5
:10050000013B013A8B422DD010F0070F42B3F6D1D8
:10051000F0B441EA012141EA014122F007047FF0F1
:1005200000070023F0E80256083C85EA010586EA48
:10053000010685FA47F5A3FA87F586FA47F6A5FA84
:1005400087F68EB9EED1F0BC01F0FF0102F0070290
:1005500032B110F8013B013A83EA010313B1F8D13B
:100560000020704701387047002D06BF354603381C
:10057000073815F0010F07D1013015F4807F02BF55
:10058000013015F4C03F0130F0BC0138704700BFA6
:1005900008B50B4B1A6842F400721A601A6842F4EC
:1005A00080621A601A6842F480721A60032000F0B8
:1005B0002DF8002004F058FC04F036FC002008BDA3
:1005C000003C0240034A044B11681B780B44136043
:1005D000704700BF9C32012000000020014B1868CA
:1005E000704700BF9C32012038B50446FFF7F6FF84
:1005F000631C054602D0044B1B781C44FFF7EEFF3A
:10060000401BA042FAD338BD00000020074AD3683F
:100610004FF6FF010B40000243F0BF6300F4E060BF
:1006200043F400330343D360704700BF00ED00E0A4
:10063000184BDB68C3F3022330B4C3F10705042D64
:1006400003F1040428BF0425062C19D9033B4FF0FD
:10065000FF349C4022EA04044FF0FF32AA4021EA12
:10066000020101FA03F2224312010028D2B20ADB8E
:1006700000F1604000F5614080F8002330BC704715
:1006800000242346E8E7044B00F00F0003441A76E9
:1006900030BC704700ED00E0FCEC00E0002807DB18
:1006A00000F01F0101234009024A8B4042F820302C
:1006B000704700BF00E100E02DE9F04FDFF8B4C162
:1006C000D1F8008083B08E4600254FF0010902E08A
:1006D0000135102D7ED009FA05F308EA03018B429B
:1006E000F6D1DEF8044024F0100ABAF1020F74D0FB
:1006F0006F000322D0F800B0BA40D24304F00306E2
:1007000002EA0B0BBE400AF1FF3A46EA0B06BAF1C9
:10071000010F066040F28280C668DEF80830324081
:10072000BB401343E700C360D2D54D4A0023019379
:10073000536C43F480435364536C25F0030606F175
:10074000804603F4804306F59C36019305F00302CE
:10075000019BB76892000F23934027EA0303414FA0
:10076000B84211D007F58067B8426AD03E4FB84210
:100770006BD03E4FB8426DD03D4FB8420CBF0427FE
:10078000072707FA02F21343B360DCF80030CA43CC
:10079000E60354BF13400B43CCF80030DCF80430C0
:1007A000A70354BF13400B43CCF80430DCF80830E7
:1007B000E60254BF13400B43CCF80830DCF80C3091
:1007C000A40205F1010554BF13400B43102DCCF8D2
:1007D0000C3080D103B0BDE8F08FEF0800EB870745
:1007E00005F007063A6AB6004FF00F0B0BFA06FB4E
:1007F00022EA0B0ADEF81020B24042EA0A023A620C
:100800006F000322D0F800A0BA40D24304F00306E0
:100810000AEA020ABE4046EA0A060660866806EA56
:10082000020ADEF80C60BE4046EA0A068660D0F88E
:1008300004A0C4F300162AEA0303AE401E43466038
:100840006AE709FA02F213439EE7022707FA02F267
:10085000134399E7032707FA02F2134394E700BF13
:10086000003802400000024000080240000C024034
:1008700000100240003C01402DE9F04F002383B0FE
:10088000DFF814914FF001084FF00F0A4FF0030BFF
:1008900002E00133102B66D008FA03F404EA0105E4
:1008A000AC42F6D123F0030606F1804606F59C36ED
:1008B00003F00302B76892000AFA02FC0CEA070789
:1008C0000197314FB84251D007F58067B8424FD0F9
:1008D0002E4FB8424FD02E4FB84251D02D4FB84274
:1008E00014BF4FF0070E4FF0040E0EFA02F2019FF4
:1008F000974218D1B26822EA0C02B260D9F80020FF
:10090000ED432A40C9F80020D9F804202A40C9F84C
:100910000420D9F808202A40C9F80820D9F80C206A
:100920001540C9F80C505A0005680BFA02F2D24380
:10093000DE08154000EB8606056003F00705376A00
:10094000AD000AFA05F527EA050535628568154008
:100950008560456825EA04044460C4680133224088
:10096000102BC26098D103B0BDE8F08F0022BEE723
:1009700008FA02F2BBE74FF0020E0EFA02F2B6E7F7
:100980000BFA02F2B3E700BF000002400008024089
:10099000000C024000100240003C014002B9090472
:1009A00081617047002800F032812DE9F041036831
:1009B000DD0782B004462FD5AC498A6802F00C02EC
:1009C000042A00F0EA808A6802F00C02082A00F08B
:1009D000E0806368B3F5803F00F0E980B3F5A02FB5
:1009E00000F05481A14D2A6822F480322A602A68DE
:1009F00022F480222A60002B40F0DE80FFF7EEFD1B
:100A0000064605E0FFF7EAFD801B642800F2F2804D
:100A10002B689B03F6D423689F0775D41A0715D556
:100A20006369002B00F0A580914B904D01221A6064
:100A3000FFF7D4FD064605E0FFF7D0FD801B022836
:100A400000F2D8806B6F9B07F6D5236858073BD51B
:100A5000864A136C13F0805340F0DB800193136CD3
:100A600043F080531364136C03F080530193019B94
:100A70000126804D2A68D10540F1AC80A368012B86
:100A800000F0C980052B00F00B81784D2A6F22F011
:100A900001022A672A6F22F004022A67002B40F025
:100AA000BF80FFF79BFD41F28837804606E0FFF7E5
:100AB00095FDA0EB0800B84200F29C802B6F9807D0
:100AC000F5D4002E40F0DC80A269CAB1674DA96858
:100AD00001F00C01082948D0022A674A4FF00001B2
:100AE000116000F0E780FFF779FD2C46054604E031
:100AF000FFF774FD401B02287CD823689B01F7D4C4
:100B0000002002B0BDE8F081584A916811F00C0F46
:100B100024D0916801F00C0108291CD0E368002B57
:100B200000F09280554B514D01221A60FFF756FD9F
:100B3000064604E0FFF752FD801B02285AD82B68B6
:100B40009807F7D52B68226923F0F80343EAC2031C
:100B50002B60236862E752685602DFD4434A12686A
:100B600095074BD5E268012A48D0012002B0BDE8C4
:100B7000F0813F4A3D4D1360FFF730FD064604E02B
:100B8000FFF72CFD801B022834D86B6F9F07F7D42A
:100B90005BE74A6850027FF51CAF344A1268910344
:100BA0007FF53AAF6268002A7FF436AFDDE72F4A5F
:100BB000136843F480331360FFF710FD2B4D064696
:100BC00004E0FFF70BFD801B642813D82B689A0301
:100BD000F7D520E72A6842F480722A60FFF7FEFC0E
:100BE00007462B68DA053FF549AFFFF7F7FCC01B56
:100BF0000228F6D9032002B0BDE8F0811B49206924
:100C00000A6822F0F80242EAC0020A6006E7012000
:100C1000704700262DE7154A136F43F00103136751
:100C2000FFF7DCFC114D804641F2883705E0FFF705
:100C3000D5FCA0EB0800B842DCD82B6F9B07F6D59B
:100C4000002E3FF441AF1BE00C4A084D1360FFF744
:100C5000C5FC064604E0FFF7C1FC801B0228C9D88A
:100C60002B689907F7D42368D8E600BF0038024004
:100C7000800E47420070004060004742000047423B
:100C8000234A136C23F0805313641DE7204B1A682A
:100C900042F480221A601A6842F480321A608BE7AC
:100CA0001B4B1A6F42F004021A671A6F42F00102DE
:100CB0001A67B5E7FFF792FC064604E0FFF78EFCE3
:100CC000801B022896D82B689901F7D4D4E90736FF
:100CD000D4E90902E16A0E4C334343EA8013520817
:100CE00043EA0163013A0B4943EA024301226B6084
:100CF0000A60FFF773FC054605E0FFF76FFC401B39
:100D000002283FF677AF23689A01F6D5F8E600BFD0
:100D10000038024060004742174908B58B6803F06D
:100D20000C03042B1BD0082B17D14A684B6813F413
:100D3000800302F03F0214D149681048C1F38811C2
:100D4000A1FB0001FFF74CFA0B4B5B68C3F30143B7
:100D500001335B00B0FBF3F008BD084808BD08484C
:100D600008BD4B680648C3F38813A3FB00010023AA
:100D7000FFF736FAE8E700BF003802400024F4002D
:100D800000127A0060B1484A136803F00F038B42E7
:100D900008D2CBB21370136803F00F038B4201D05B
:100DA0000120704703682DE9F0419D0714D55C07C9
:100DB00004D53E4CA26842F4E052A2601A0704D562
:100DC0003A4CA26842F46042A260384C8568A2683E
:100DD00022F0F0022A43A260DF0704460D4622D526
:100DE0004268012A56D0931E012B304B1B6858D9FC
:100DF000990725D52D4EB36823F003031343B36041
:100E0000FFF7ECFB41F28837804605E0FFF7E6FB91
:100E1000A0EB0800B84242D8B368626803F00C0344
:100E2000B3EB820FF2D1204A136803F00F03AB42F9
:100E300009D9EBB21370136803F00F03AB4202D071
:100E40000120BDE8F08123685A0706D51749E068FC
:100E50008A6822F4E05202438A601B0711D4FFF72C
:100E60005BFF124B12499B68124AC3F30313CB5C1E
:100E700020FA03F30020136003F0F6FF0020BDE822
:100E8000F0810A4A2169936823F4604343EAC1036D
:100E90009360E4E7054B1B689E03ABD4D0E70320C7
:100EA000EDE79801A6D4CBE7003C024000380240B1
:100EB0007C7100084C010020044B054A9B680549E1
:100EC000C3F342330868D35CD8407047003802400F
:100ED0008C7100084C0100200E4B0F2202609A68B2
:100EE00002F0030242609A6802F0F00282609A689F
:100EF00002F4E052C2609B68DB0810B403F4E053D4
:100F0000054C036123685DF8044B03F00F030B608D
:100F1000704700BF00380240003C0240F0B5044674
:100F2000006810F0050F83B00AD1850744D410F093
:100F3000080003D0494B227D1A60002003B0F0BDA9
:100F4000474B484D00221A60FFF748FB064604E075
:100F5000FFF744FB801B02282BD82B681B01F7D41A
:100F6000D4E9020361683E4A1B0743EA80130B433E
:100F70000121C5F884301160FFF730FB394D06467A
:100F800004E0FFF72BFB801B022812D82B681F01FF
:100F9000F7D52068C9E70D46FFF720FB41F28836F8
:100FA00007462B6F9B073AD4FFF718FBC01BB042D4
:100FB000F7D9032003B0F0BD2A4B2B4D002201923C
:100FC0001A6C42F080521A641B6C03F08053019338
:100FD000019B2B6843F480732B60FFF7FFFA0646F2
:100FE00004E0FFF7FBFA801B0228E2D82B68D90542
:100FF000F7D51C4923690A6F12F4407203F440705C
:1010000010D082420ED00B6F184A23F44073012592
:101010000020156010600B670B6FDA07BBD42369E3
:1010200003F44070B0F5407F0CD00E498A6822F47A
:10103000F8128A600B4A116FC3F30B030B4313675B
:10104000206874E70748826823F0704122F4F812A0
:1010500021F440710A438260ECE700BFE01147428F
:10106000680047420038024000700040400E47428E
:1010700000283BD090F85120002370B502F0FF010A
:101080000446836262B31846D4E90135D4E90321EA
:101090002B4313436269E569266A0B431343A26934
:1010A00021682B43022584F85150334302F4007524
:1010B0000E682B43120C656A02F0040203432A43B4
:1010C00026F040060E600B604A60CB69002223F4D4
:1010D00000630125CB611046626584F8515070BDF4
:1010E00080F8501004F012FCA06ACDE70120704790
:1010F00090B10268022310B580F85130136823F0D4
:1011000040030446136004F037FC0020606584F857
:10111000500084F8510010BD012070472DE9F041C6
:1011200090F85040012C82B05ED01F46012380F819
:101130005030044616460D46FFF750FA804694F8A4
:101140005100C0B2012809D002200122002384F8F6
:10115000512084F8503002B0BDE8F081002DF4D069
:10116000002EF2D0A268256300230321B2F5004FC0
:1011700084F85110A6866365A363E686A387C4E955
:101180001033E387206803D1036843F4804303608E
:1011900003685B062CD5E3686268B3F5006F45D041
:1011A000002A6ED12B780373E38E226B2068013BFB
:1011B0009BB20132E38622637E1C0BD028E0236BB6
:1011C0001B780373E38E226B013B9BB20132E386F3
:1011D00022632068E38E9BB2002B40D083689D077A
:1011E000EDD4FFF7FBF9F4E7022002B0BDE8F0818F
:1011F000036843F040030360CDE7236B1B78037360
:10120000E38E226B013B9BB20132E38622632068AE
:10121000E38E9BB21BB383689B07EED4FFF7DEF926
:10122000A0EB0800B842F2D303208EE7002A77D063
:10123000012E75D0791C5AD1E38E9BB27BB18368A5
:101240009A0769D5226B32F8023BC360E38E2263B2
:10125000013B9BB2E386E38E9BB2002BEFD1791C5E
:1012600012D183681A06FCD4A3682BB90193C36812
:10127000019383680193019B606D003018BF0120CA
:1012800063E7012E98D18DE783681B06ECD5FFF745
:10129000A5F9A0EB080087422068E0D861684268A1
:1012A000A36822F0E002B1F5827F426041D0A26AD9
:1012B000B2F5005F07D1026822F4005202600268B2
:1012C00042F400520260012284F85120626D002530
:1012D00042F020022021626584F850506165C4E725
:1012E000FFF77CF9A0EB0800B8429DD22068E38E9E
:1012F0009BB2002BB3D083689D07F1D5226B32F8E7
:10130000023BC360E38E2263013B9BB2E386E38E24
:101310009BB2002BEFD1A2E7FFF760F920688BE7C3
:1013200035F8023BC360E38E2563013B9BB2E38645
:1013300080E7B3F5004F02D0B3F5806FB7D10268F4
:1013400022F040020260B2E7704700BF002846D09A
:10135000F8B590F83D30044603F0FF0233B322683D
:10136000284DA669E0686168022384F83D30AA42EE
:10137000136836D0B2F1804F1DD0A5F57C45AA4246
:1013800019D005F58065AA4215D005F58065AA42F9
:1013900011D005F59A35AA4211D005F58065AA420B
:1013A0000DD005F58065AA420DD108E080F83C20FB
:1013B000FFF7CAFFD3E7A56823F070032B43256925
:1013C00023F440732B4323F0800333431360D06234
:1013D000916201235361002084F83D30F8BD012063
:1013E0007047A768256923F070033B4323F44073DB
:1013F0002B4323F0800333431360D062916263690F
:101400001363E6E7000001400368DA6842F0010276
:10141000DA609A6802F00702062A03D01A6842F0DE
:1014200001021A6000207047704700BF704700BF7C
:10143000704700BF704700BF03681A69910710B575
:10144000044602D5DA6892075FD41A69500702D5BC
:10145000DA68510746D41A69120702D5DA6810070C
:101460002ED41A69D20602D5DA68D00618D41A69C1
:10147000D10702D5DA68D2075DD41A69100602D501
:10148000DA6811065FD41A69520602D5DA68500686
:1014900061D41A69910602D5DA68920643D410BD68
:1014A0006FF010021A61DB69082213F4407F227783
:1014B000204664D0FFF7BAFF002223682277D6E7E0
:1014C0006FF008021A61DB6904229907227720462F
:1014D00052D1FFF7A9FF2046FFF7AAFF0022236899
:1014E0002277BEE76FF004021A619B69022213F4AF
:1014F000407F227720463CD1FFF796FF2046FFF73A
:1015000097FF002223682277A5E76FF002021A6195
:101510009B6901229B07027725D0FFF787FF0022F6
:101520002368227791E76FF0200220461A61BDE818
:10153000104000F02BB86FF001021A61204603F052
:1015400067FC236899E76FF080021A61204600F07B
:101550001FF8236897E76FF040021A612046FFF7F3
:1015600069FF236895E7FFF75FFF2046FFF760FFFD
:10157000D5E7FFF75BFFC4E7FFF758FFAEE7FFF7DC
:1015800053FF2046FFF754FF96E700BF704700BFA8
:10159000704700BF01790368C9B1B3B14279012A2C
:1015A00036D021D3022A38D1244A11681943116058
:1015B0005168194351600021827932B3022A38D030
:1015C000032A1BD0012A2AD00123184670471B4A40
:1015D00010B41468DB431C40146050685DF8044B81
:1015E0001840506008467047144A516821EA0301C8
:1015F00051601168194311600021DDE70F4A9068BE
:1016000018439060D0680343D3600B461846704778
:101610000A4A116821EA0301C9E70121CCE7074A18
:10162000D06820EA0300D0609068034393600B46C3
:10163000CBE7024A906820EA0300E2E7003C014061
:101640002DE9F04F0C6894FAA4F24E68B2FA82F2D7
:1016500034FA02F306F1FF3E79D04FF0010C032774
:101660004FF00F0803E0013234FA02F36FD00CFAA6
:1016700002F32340F7D0D0F8009093FAA3FABAFA15
:101680008AFA93FAA3F5B5FA85F54FEA4A0A6D008E
:1016900007FA0AFA06FA05F529EA0A0949EA0505E8
:1016A000BEF1010F056016D8856893FAA3F9B9FA5F
:1016B00089F993FAA3FA4FEA490907FA09F925EAE1
:1016C0000909BAFA8AFA8D684FEA4A0A05FA0AF550
:1016D00049EA05058560C56893FAA3F9B9FA89F95D
:1016E00093FAA3FA4FEA490907FA09F925EA090921
:1016F000BAFA8AFA0D694FEA4A0A05FA0AF549EA7E
:101700000505022EC560AED193FAA3FABAFA8AFA99
:10171000BAF1070F4FEA1325D1F8149025DC056ABA
:1017200093FAA3FABAFA8AFA93FAA3F3B3FA83F311
:101730004FEA8A0A9B0008FA0AFA09FA03F325EA33
:101740000A052B430132036234FA02F38FD1BEF152
:10175000010F07D8CA68436802FB04F223EA0404B5
:10176000144344600020BDE8F08FD0F824A095FA1F
:10177000A5FBBBFA8BFB95FAA5F3B3FA83F34FEA0B
:101780008B0B9B0008FA0BFB09FA03F32AEA0B0AFE
:101790004AEA0303436266E71F4A936803F00C03B7
:1017A000042BF0B436D0082B19D01C4B1A4A036016
:1017B00091681B4D1B4CC1F30311695CCB40436026
:1017C0009168C1F38221615C23FA01F18160926822
:1017D000C2F34232A25CD340C360F0BC704756688B
:1017E000556853685168104C0C4FC1F30141C3F365
:1017F000881206F480060131002E14BF23463B46B2
:10180000490005F03F04B3FBF4F302FB03F3B3FB21
:10181000F1F3CBE7044BC9E7003802400024F400A1
:101820007C7100088C71000800127A00C3689B0468
:1018300001D50120704730B54B6804460D46D1E90B
:101840000310E2680B43A969034322F416420B43D9
:1018500022F00C021343E3602269AB68696922F449
:1018600040521A432261636923F440730B4385B0ED
:1018700063616846FFF790FF264B9C422BD0264BB6
:101880009C4205D0254B9C4225D0012005B030BD9F
:10189000029B002BF9D02A68002AF6D0A96903EB35
:1018A0008303B1F5004F03EB830316D01C4992006C
:1018B000B3FBF2F3A1FB03025209642000FB1233D5
:1018C0001B013233A1FB0331130103EB51139BB214
:1018D000A3600020DAE7039BDBE711485200B3FB6B
:1018E000F2F3A0FB03125109642202FB1133DB0067
:1018F0003233A0FB0323C3F34F1303F007025B0053
:1019000002EB011203F4F87313449BB2A3600020AE
:10191000BCE700BF0010014000440040001401403B
:101920001F85EB5130B5B0F9084085B0842C0246D4
:1019300014BF0334002403AD0B4640681168128ABB
:10194000CDE9004500F0B0FF01280CBF039800204E
:1019500005B030BD08B5002808BF012001F082FAAB
:10196000002008BD00F108034FF0FF310022816024
:1019700002604360C0E90333704700BF0023036186
:10198000704700BF4368026810B49C688C609C6814
:101990004B600132616099605DF8044B0861026040
:1019A000704700BF30B40D686B1C11D000F1080205
:1019B00000E01A4653681C68AC42FAD904684B60D0
:1019C000013499608A6051600861046030BC7047DE
:1019D00002695368F2E700BF42688168036910B486
:1019E000916081685C684A601A68844208BF5960E7
:1019F000013A002101611A6018685DF8044B7047D4
:101A000070B5054602F076F895F8454064B2002CB2
:101A100016DD6B6AA3B105F1240605E0013CE3B2D3
:101A20005CB26BB16B6A5BB1304601F023FB0028FE
:101A3000F4D0013C01F0A8FBE3B25CB2002BF1D181
:101A4000FF2385F8453002F077F802F053F895F857
:101A5000444064B2002C16DD2B69A3B105F11006D9
:101A600005E0013CE3B25CB26BB12B695BB130467F
:101A700001F000FB0028F4D0013C01F085FBE3B24B
:101A80005CB2002BF1D1FF2385F84430BDE87040F3
:101A900002F052B840B94FF0500383F31188BFF3FE
:101AA0006F8FBFF34F8FFEE770B506460D4651B1FD
:101AB00001FB00F0483002F08FF9044658B300F102
:101AC0004803036005E0482002F086F9044610B39D
:101AD0002460C4E90F6502F00DF8D4E90F13226801
:101AE000A26001FB03F1CB1A134400200A44FF213A
:101AF000A063E36084F84410626084F8451004F148
:101B00001000FFF72FFF04F12400FFF72BFF02F076
:101B100013F8204670BD0024204670BD2DE9F04327
:101B2000482085B002F058F90446002851D04FF003
:101B3000000801232060C0E90F3801F0DBFFD4E981
:101B40000F322168C4F8388003FB02F39A1A0A4462
:101B50000B44FF2504F11007E260C4E9013184F869
:101B60004450384684F8455004F12406FFF7FAFE45
:101B70003046FFF7F7FE01F0DFFF256CC4F80C805C
:101B8000C4E90088CDF804803DB34FF0500383F3DF
:101B90001188BFF36F8FBFF34F8FFEE7226CA56BE9
:101BA000002A40F0DF8027680135002F00F0E9802F
:101BB000A563636A5BB1304601F05CFA38B1774BDC
:101BC0004FF080521A60BFF34F8FBFF36F8F01F059
:101BD000B3FF204605B0BDE8F08301F0DDFA50B94F
:101BE000019D45B14FF0500383F31188BFF36F8F10
:101BF000BFF34F8FFEE7DFF8A4914FF0000801F02C
:101C000079FFA26BE36B9A42C8D3019B002BDED015
:101C100015B902A801F06CFA01F08EFF01F000F88E
:101C200001F068FF94F84430FF2B08BF84F844802B
:101C300094F84530FF2B08BF84F8458001F07CFF05
:101C400001A902A801F05EFA002840F0858001F0A9
:101C500051FFA26BE36B9A4237D001F06DFF01F0A8
:101C600049FF94F845506DB2002D0CDD636A53B105
:101C7000304601F0FFF908B101F086FA013DEBB200
:101C80005DB2002BF2D1FF2384F8453001F054FF00
:101C900001F030FF94F844506DB2002D0CDD236943
:101CA00053B1384601F0E6F908B101F06DFA013D93
:101CB000EBB25DB2002BF2D1FF2384F8443001F087
:101CC0003BFF01F053F8012599E701F035FF019939
:101CD000384601F023F901F00DFF94F845506DB23C
:101CE000002D0ADC0CE0304601F0C4F908B101F027
:101CF0004BFA013DEBB25DB213B1636A002BF2D136
:101D0000FF2384F8453001F017FF01F0F3FE94F84B
:101D100044506DB2002D0ADC0CE0384601F0AAF9FF
:101D200008B101F031FA013DEBB25DB213B12369A4
:101D3000002BF2D1FF2384F8443001F0FDFE01F0C6
:101D400015F80028BFD14FF08053C9F80030BFF319
:101D50004F8FBFF36F8FB6E72046FFF751FE01F0BC
:101D600005F836E70021A06804F0EEF8A368216CBE
:101D700062680B449342A36024BF2368A3600135CB
:101D800016E7606801F072FAA563636A6760002B6A
:101D90007FF411AF00287FF412AF18E704ED00E0E4
:101DA0002DE9F04F85B00192002800F0258100292F
:101DB00000F01581022B0BD1C26B012A08D04FF025
:101DC000500383F31188BFF36F8FBFF34F8FFEE78C
:101DD00004461F460E4601F0DFF9002840F0FC8063
:101DE000019B43B14FF0500383F31188BFF36F8F12
:101DF000BFF34F8FFEE79A4601F07CFEA26BE36BC8
:101E0000DFF8BC929A424FF0000875D3022F00F021
:101E1000FC80019D002D00F04E81BAF1000F02D12F
:101E200002A801F065F901F087FE00F0F9FE01F06B
:101E300061FE94F84430FF2B08BF84F8448094F886
:101E40004530FF2B08BF84F8458001F075FE01A9DD
:101E500002A801F057F9002840F0268101F04AFE5F
:101E6000A26BE36B9A426AD001F066FE01F042FE7B
:101E700094F845506DB2002D11DD636A7BB104F119
:101E8000240A01E0636A53B1504601F0F3F808B147
:101E900001F07AF9013DEBB25DB2002BF2D1FF23E4
:101EA00084F8453001F048FE01F024FE94F84450D7
:101EB0006DB2002D11DD23697BB104F1100A01E040
:101EC000236953B1504601F0D5F808B101F05CF92F
:101ED000013DEBB25DB2002BF2D1FF2384F8443018
:101EE00001F02AFE00F042FF01F004FEA26BE36B5A
:101EF0009A424FF0010A89D2226CA56B002A00F0A9
:101F000087803146002F40F0BB80A06804F01CF8A9
:101F1000A368216C62680B44934205F10105A3603C
:101F200079D3A563636A2268A260002B77D004F19D
:101F3000240001F09FF8002840F082806FE004F157
:101F4000100A01F0F9FD5046019900F0E7FF01F099
:101F5000D1FD94F845506DB2002D11DD636A7BB15F
:101F600004F1240B01E0636A53B1584601F082F892
:101F700008B101F009F9013DEBB25DB2002BF2D1DD
:101F8000FF2384F8453001F0D7FD01F0B3FD94F84C
:101F900044506DB2002D0ADC0CE0504601F06AF8A6
:101FA00008B101F0F1F8013DEBB25DB213B1236964
:101FB000002BF2D1FF2384F8443001F0BDFD00F086
:101FC000D5FE002890D14FF08053C9F80030BFF300
:101FD0004F8FBFF36F8F87E74FF0000A0CE7026C5B
:101FE000002A3FF4E7AE4FF0500383F31188BFF3AC
:101FF0006F8FBFF34F8FFEE74FF0500383F31188CD
:10200000BFF36F8FBFF34F8FFEE7226CA56B02BB50
:10201000266801354EB1A563636A002B87D101F0B4
:102020008BFD012005B0BDE8F08F606801F01EF95E
:10203000A563636A6660002B7FF479AF0028EED059
:102040001F4B4FF080521A60BFF34F8FBFF36F8F5B
:10205000E5E73146E06803F077FF236CE26821682A
:102060005B421A449142E26016D962681344E3600D
:10207000022F11D00135A563636A002BCFD056E73C
:10208000E06803F061FF236CE26821685B421A4458
:102090008A42E260ECD2E8E7002DBCD10123A363C1
:1020A000636A002BBBD042E72046FFF7A9FC00F093
:1020B0005DFE0020B6E701F03FFD2846B2E700BF15
:1020C00004ED00E02DE9F04784B00192002800F013
:1020D0004281002900F0328104460F4601F05CF88D
:1020E00050B9019B43B14FF0500383F31188BFF304
:1020F0006F8FBFF34F8FFEE701F0FCFCA56B002D47
:1021000040F0BA80019B002B6AD002A800F0F0FFDB
:10211000DFF87492A84604F1240601F00DFD00F0EA
:102120007FFD01F0E7FC94F84430FF2B08BF84F8F2
:10213000448094F84530FF2B08BF84F8458001F0B7
:10214000FBFC01A902A800F0DDFF00284ED101F040
:10215000D1FCA36B002B00F0A78001F0EDFC01F097
:10216000C9FC94F845506DB2002D0ADC0CE03046F5
:1021700000F080FF08B101F007F8013DEBB25DB25D
:1021800013B1636A002BF2D1FF2384F8453001F0CC
:10219000D3FC01F0AFFC94F844506DB2002D10DD7B
:1021A000236973B104F1100A504600F063FF08B1CF
:1021B00000F0EAFF013DEBB25DB213B12369002BE1
:1021C000F2D1FF2384F8443001F0B6FC00F0CEFDDC
:1021D00001F090FCA56B002D4ED1019B002B9CD1F2
:1021E00001F0AAFC002004B0BDE8F08701F082FCF9
:1021F00094F845506DB2002D0ADC0CE0304600F03A
:1022000039FF08B100F0C0FF013DEBB25DB213B180
:10221000636A002BF2D1FF2384F8453001F08CFC77
:1022200001F068FC94F844506DB2002D11DD236973
:102230007BB104F1100A01E0236953B1504600F06C
:1022400019FF08B100F0A0FF013DEBB25DB2002B19
:10225000F2D1FF2384F8443001F06EFC00F086FDDB
:1022600001F048FCA36B002BBAD001F065FC01F033
:1022700041FCA56B002DB0D0226C52B1E1686368BF
:1022800011449942E16024BF2168E160384603F0BF
:102290005BFE013DA5632369002B65D101F04CFC79
:1022A000012004B0BDE8F08701F046FC01993046FA
:1022B00000F034FE01F01EFC94F845506DB2002D84
:1022C0000ADC0CE0304600F0D5FE08B100F05CFFFF
:1022D000013DEBB25DB213B1636A002BF2D1FF2373
:1022E00084F8453001F028FC01F004FC94F84450D7
:1022F0006DB2002D10DD236973B104F1100A504650
:1023000000F0B8FE08B100F03FFF013DEBB25DB256
:1023100013B12369002BF2D1FF2384F8443001F07C
:102320000BFC00F023FD0028A1D14FF08053C9F829
:102330000030BFF34F8FBFF36F8F98E7036C002B14
:102340003FF4CAAE4FF0500383F31188BFF36F8F91
:10235000BFF34F8FFEE74FF0500383F31188BFF3B5
:102360006F8FBFF34F8FFEE704F1100000F082FE85
:10237000002893D0044B4FF080521A60BFF34F8F68
:10238000BFF36F8F8AE700BF04ED00E02DE9F04353
:1023900085B0019150B1056C8DB14FF0500383F3BE
:1023A0001188BFF36F8FBFF34F8FFEE74FF05003DD
:1023B00083F31188BFF36F8FBFF34F8FFEE704469F
:1023C00000F0EAFE50B9019D45B14FF0500383F390
:1023D0001188BFF36F8FBFF34F8FFEE701F08AFBC9
:1023E000A36BDFF8C0822E460027002B40F0B3809D
:1023F000019B002B00F0298116B902A800F078FE9D
:1024000001F09AFB00F00CFC01F074FB94F84430EE
:10241000FF2B08BF84F8447094F84530FF2B08BFA9
:1024200084F8457001F088FB01A902A800F06AFE5B
:10243000002844D101F05EFBA36B002B00F09D80CF
:1024400001F07AFB01F056FB94F8456076B2002E5D
:1024500010DD636A73B104F12409484600F00AFEF6
:10246000002840F08780013EF3B25EB213B1636A88
:10247000002BF2D1FF2384F8453001F05DFB01F021
:1024800039FB94F8446076B2002E10DD236973B1F5
:1024900004F11009484600F0EDFD002840F0BF802F
:1024A000013EF3B25EB213B12369002BF2D1FF23D8
:1024B00084F8443001F040FB00F058FC44E001F0A7
:1024C00019FB94F8456076B2002E11DD636A7BB18A
:1024D00004F1240901E0636A53B1484600F0CAFDE3
:1024E00008B100F051FE013EF3B25EB2002BF2D112
:1024F000FF2384F8453001F01FFB01F0FBFA94F84C
:10250000446076B2002E11DD23697BB104F110091D
:1025100001E0236953B1484600F0ACFD08B100F07A
:1025200033FE013EF3B25EB2002BF2D1FF2384F8FA
:10253000443001F001FB00F019FC01F0DBFAA36B61
:10254000002B7BD001F0F8FA01F0D4FAA36B01263E
:10255000002B3FF44DAF2268013BA36312B900F09A
:102560003BFF60602369002B40F08B8001F0E4FAB0
:10257000012566E000F008FE75E701F0DDFA23684A
:10258000002B52D004F124094846019900F0C6FC02
:1025900001F0B0FA94F8456076B2002E04DC11E048
:1025A000013EF3B25EB26BB1636A5BB1484600F0C4
:1025B00061FD0028F4D0013E00F0E6FDF3B25EB20A
:1025C000002BF1D1FF2384F8453001F0B5FA01F07A
:1025D00091FA94F8446076B2002E0EDD236963B15F
:1025E00004F11009484600F045FDD8B9013EF3B2A8
:1025F0005EB213B12369002BF4D1FF2384F8443079
:1026000001F09AFA00F0B2FB00289DD14FF0805300
:10261000C8F80030BFF34F8FBFF36F8F94E700F01F
:10262000B3FD3DE700F0B0FDE0E701F063FA60685C
:1026300000F0C2FD054601F07FFAA3E701F07CFA45
:1026400085B9284605B0BDE8F08345B14FF0500389
:1026500083F31188BFF36F8FBFF34F8FFEE701F055
:102660006BFAEEE701F046FA616A19B1236B19685B
:10267000C1F10701606800F04FFE002501F05CFA2F
:10268000DFE704F1100000F0F5FC00283FF46EAF26
:10269000044B4FF080521A60BFF34F8FBFF36F8F20
:1026A00064E700BF04ED00E0134B1A687AB19A6842
:1026B000B2B11A69B2B19A69B2B11A6AB2B19A6A80
:1026C000B2B11A6B12B19A6BA2B17047062210B464
:1026D00003EBC20443F8321060605DF8044B7047AE
:1026E0000122F4E70222F2E70322F0E70422EEE7F8
:1026F0000522ECE70722EAE7A032012070B5054683
:102700000C46164601F0F6F995F84430FF2B04BF4D
:10271000002385F8443095F84530FF2B04BF002393
:1027200085F8453001F008FAAB6B2BB932462146EB
:1027300005F1240000F042FC01F0DCF995F8454079
:1027400064B2002C16DD6B6AA3B105F1240605E026
:10275000013CE3B25CB26BB16B6A5BB1304600F036
:1027600089FC0028F4D0013C00F00EFDE3B25CB21D
:10277000002BF1D1FF2385F8453001F0DDF901F0A0
:10278000B9F995F8444064B2002C16DD2B69A3B169
:1027900005F1100605E0013CE3B25CB26BB12B69B8
:1027A0005BB1304600F066FC0028F4D0013C00F03C
:1027B000EBFCE3B25CB2002BF1D1FF2385F844308F
:1027C000BDE8704001F0B8B980B5134C134F4FF01D
:1027D000805614E001F08EF92369DD68281DFFF7AB
:1027E000FBF8A369013BA3612368013B236001F06F
:1027F000A3F9286B01F06CFB284601F069FB236804
:10280000002BE7D1E369012BF9D93E60BFF34F8F6D
:10281000BFF36F8FF3E700BF5403002004ED00E027
:10282000F8B51F4CD4F8A850D4F8AC300646181DA3
:102830000F46FFF7D1F850B9D4F8AC20D4F8B03037
:10284000D16A01228A4023EA0203C4F8B030731C23
:102850001BD0D4F8AC30AD195D600DD2D4F8CC00EB
:10286000D4F8AC100431FFF79DF8D4F8D030AB4267
:1028700088BFC4F8D050F8BDD4F8C800D4F8AC1064
:10288000BDE8F8400431FFF78DB8002FE1D0D4F84F
:10289000AC1004480431BDE8F840FFF773B800BF3E
:1028A00054030020080400202DE9F84F4FEA820865
:1028B0000646404689461F460B9D01F08DFA0028CA
:1028C00000F0C1808246642001F086FA04460028A8
:1028D00000F08C80A8F10408D04428F00708C0F864
:1028E00030A009F1FF3309F11F0100F1330201E0CB
:1028F0008B4206D013F8010F02F8010F1878002858
:10290000F6D10A9B062B28BF06234FF0000B04F1DB
:10291000040AE3626365504684F853B0C4F858B0C3
:102920009946FFF72BF804F11800FFF727F8C9F1D3
:102930000703C4F85CB0A361246184F860B06462EA
:102940003A463146404601F0A7F8206005B12C60B8
:102950003E4D01F0CFF8AB690133AB61D5F8AC3037
:10296000002B3AD0D5F81021E36A72B305F11C08A8
:10297000012606FA03F703EB8303D5F8B02008EB32
:102980008300D5F81431514617439A19C5F814211C
:10299000C5F8B070FEF7F6FF01F0CEF8D5F81031AB
:1029A00083B1D5F8AC20E36AD26A9A420AD2284BA6
:1029B0004FF080521A60BFF34F8FBFF36F8F3046D6
:1029C000BDE8F88F3046BDE8F88FD5F8AC20D26A64
:1029D0009A4298BFC5F8AC40C8E7C5F8AC40AB69AF
:1029E000012B0AD0E36A05F11C08C1E7504601F04B
:1029F0006FFA4FF0FF30BDE8F88F05F11C0846462E
:102A000005F1A80730461436FEF7ACFFB742F9D1FE
:102A1000104E304606F11407FEF7A4FF3846FEF7C5
:102A2000A1FF06F12800FEF79DFFA6F1D000FEF7FA
:102A300099FFA6F12000FEF795FFC5F8CC60E36A88
:102A4000C5F8C87094E74FF0FF30BCE7540300208E
:102A500004ED00E0280400202DE9F8434FF4007055
:102A600001F0BAF9002800F09F800446642001F0CC
:102A7000B3F90546002800F0948003464922046318
:102A800004F5FE7603F8342F604926F0070653302C
:102A9000834205D011F8012F03F8012F002AF7D146
:102AA00000242F1D85F85340EC62C5E915443846D3
:102AB000FEF764FF05F11800FEF760FF0723EC65E1
:102AC0002246AB6185F8604051492D616D62304608
:102AD00000F0E2FF4F4C2860C4F8205101F00AF8E2
:102AE000A3690133A361D4F8AC30002B3BD0D4F8F8
:102AF0001031E86A33B9D4F8AC30DB6A834298BF4E
:102B0000C4F8AC5004F11C06D4F8B0C0D4F81431A9
:102B10000122824000EB8000013342EA0C02394678
:102B200006EB8000C4F81431C4F8B020FEF72AFF89
:102B300001F002F8D4F810316BB1D4F8AC20EB6A94
:102B4000D26A9A4207D2344B4FF080521A60BFF3D8
:102B50004F8FBFF36F8F00F01DFF01280CD00130A5
:102B600022D0BDE8F883C4F8AC50A369012B24D06F
:102B7000E86A04F11C06C7E74FF0500383F311889D
:102B8000BFF36F8FBFF34F8F00234FF0FF32C4F8B6
:102B9000D020C4F81001C4F8A830BDE8F84301F013
:102BA00045B8204601F094F94FF0500383F31188A3
:102BB000BFF36F8FBFF34F8FFEE704F11C06B046E3
:102BC00004F1A809404608F11408FEF7CBFEC14500
:102BD000F8D1DFF84880404608F11409FEF7C2FE3C
:102BE0004846FEF7BFFE08F12800FEF7BBFEA8F13D
:102BF000D000FEF7B7FEA8F12000FEF7B3FEC4F840
:102C0000CC80E86AC4F8C8907EE700BF009A00084C
:102C1000C92700085403002004ED00E02804002028
:102C2000034AD2F818310133C2F81831704700BF97
:102C300054030020014BD3F8A80070475403002030
:102C40002DE9F047474CD4F81831B3B9D4F8A8604F
:102C50000136C4F8A860F6B1D4F8D030B34228D910
:102C60000025D4F8AC30DB6A03EB830304EB830369
:102C7000DB69022B28BF012505E0D4F82831013398
:102C8000C4F828310025D4F81C31002B0CBF28468D
:102C90000120BDE8F087D4F8CC301B68002B43D06E
:102CA0004FF0500383F31188BFF36F8FBFF34F8F43
:102CB000FEE7DFF8B4A000254FF0010927E0D4F8C3
:102CC000CC30DB68DF687B6807F104089E42404631
:102CD00027D3FEF781FEBB6A07F118000BB1FEF7A0
:102CE0007BFEF86AD4F8B02009FA00F300EB80000C
:102CF000134341460AEB8000C4F8B030FEF742FEB1
:102D0000D4F8AC30FA6ADB6A9A4228BF0125D4F8BD
:102D1000CC301B68002BD2D14FF0FF33C4F8D03039
:102D20009FE7C4F8D0309CE7D4F8CC30D4F8C82062
:102D3000C4F8CC20C4F8C830D4F824310133C4F826
:102D40002431D4F8CC301B6823B94FF0FF33C4F8DA
:102D5000D03081E7D4F8CC30DB68DB685B68C4F83E
:102D6000D03079E754030020700300202DE9F041B2
:102D70003A4CD4F8183143B94FF0500383F311881B
:102D8000BFF36F8FBFF34F8FFEE700F0B3FED4F8B1
:102D90001831013BC4F81831D4F818515DBBA36950
:102DA0004BB3012604F11C07D4F8FC304BB3D4F824
:102DB0000831DD6805F1040805F11800FEF70CFE86
:102DC0004046FEF709FEE86AD4F8B02006FA00F3A0
:102DD00000EB80001343414607EB8000C4F8B0309D
:102DE000FEF7D0FDD4F8AC30EA6ADB6A9A42DBD356
:102DF000C4F81C61D8E7002400F09EFE2046BDE820
:102E0000F0813DB1D4F8CC301B68F3B94FF0FF33FB
:102E1000C4F8D030D4F828514DB10126FFF710FF87
:102E200008B1C4F81C61013DF8D1C4F82851D4F8A8
:102E30001C31002BDFD00A4B4FF080521A60BFF3D9
:102E40004F8FBFF36F8F0124D6E7D4F8CC30DB6807
:102E5000DB685B68C4F8D030DCE700BF54030020B7
:102E600004ED00E008B5B0B10F4BD3F8181141B133
:102E70004FF0500383F31188BFF36F8FBFF34F8F71
:102E8000FEE7D3F818210132C3F81821FFF7C8FC78
:102E9000FFF76CFF38B9054B4FF080521A60BFF353
:102EA0004F8FBFF36F8F08BD5403002004ED00E087
:102EB000194AD2F81831E3B910B4C2F81C31D2F86B
:102EC000B030B3FA83F3DBB2C3F11F0303EB83012A
:102ED00089005418E06980B1206A1144406820627A
:102EE0002431884212D0C368C2F8AC305DF8044B7C
:102EF00070470123C2F81C3170474FF0500383F331
:102F00001188BFF36F8FBFF34F8FFEE7142101FBD2
:102F1000032340681862E6E75403002040B94FF0ED
:102F2000500383F31188BFF36F8FBFF34F8FFEE71A
:102F300070B5204C0D46D4F8AC101831FEF732FDB8
:102F4000D4F8A860D4F8AC000430FEF745FD50B9C1
:102F5000D4F8AC20D4F8B030D16A01228A4023EAF8
:102F60000203C4F8B0306B1C12D0D4F8AC30AD19E9
:102F70005D6015D2D4F8CC00D4F8AC100431FEF763
:102F800011FDD4F8D0309D4238BFC4F8D05070BD88
:102F9000D4F8AC1008480431BDE87040FEF7F2BC2C
:102FA000D4F8C800D4F8AC10BDE870400431FEF786
:102FB000F9BC00BF5403002008040020F8B598B302
:102FC0002A4C0D46D4F8AC1018311746FEF7DAFC3F
:102FD000D4F8A860D4F8AC00043077B3FEF7FCFC5A
:102FE00000283AD14FF0FF35D4F8AC20D4F8B030F7
:102FF000D16A01228A4023EA0203C4F8B0306B1C74
:1030000029D0D4F8AC3075195D601BD2D4F8CC004F
:10301000D4F8AC100431FEF7C5FCD4F8D0309D4292
:1030200001D2C4F8D050F8BD4FF0500383F311889B
:10303000BFF36F8FBFF34F8FFEE7FEF7CDFC002885
:10304000DFD1D1E7D4F8C800D4F8AC10BDE8F8401F
:103050000431FEF7A7BC002FD3D0D4F8AC1004483D
:103060000431BDE8F840FEF78DBC00BF54030020DA
:1030700008040020F8B5C368DD6845B305F11806FB
:103080001A4C3046FEF7A8FCD4F8183143BB2E1D6D
:103090003046FEF7A1FCE86AD4F8B0700123834003
:1030A00004F11C0200EB80003B43314602EB800040
:1030B000C4F8B030FEF766FCD4F8AC30EA6ADB6ADC
:1030C0009A4286BF0120C4F81C010020F8BD4FF0D1
:1030D000500383F31188BFF36F8FBFF34F8FFEE769
:1030E000314604F1FC00FEF74DFCE5E754030020F7
:1030F000034BD3F82421D3F8A830C0E9002370474C
:1031000054030020F8B530B3E1B10D46044600F099
:10311000F1FC1C4A2B686668D2F8A8005F1CA0EB83
:10312000060121D0D2F824C12768674501D0864224
:1031300026D98B421AD800232B60012500F0FCFC15
:103140002846F8BD4FF0500383F31188BFF36F8F0B
:10315000BFF34F8FFEE74FF0500383F31188BFF3A7
:103160006F8FBFF34F8FFEE70025E7E75B1AD2F8BA
:103170002411D2F8A8202B600025C4E90012DDE755
:103180000125DBE754030020024B0122C3F81C2178
:10319000704700BF54030020064BD3F8102132B112
:1031A000D3F81831002B0CBF0220002070470120FB
:1031B000704700BF5403002038B3F8B5294DC36AE7
:1031C000D5F8AC20D26A934216D28269002A05DB78
:1031D000D5F8AC20D26AC2F107028261224E426960
:1031E00003EB830306EB83039A420FD0D5F8AC3090
:1031F000DB6AC3620120F8BDD5F8AC30406DDB6AF4
:1032000098422CBF00200120F8BD7047071D0446DE
:103210003846FEF7E1FB78B9E26A02EB820305EB80
:103220008303DB6943B9D5F8B030012101FA02F21A
:1032300023EA0202C5F8B020D5F8AC30D5F8B020AA
:10324000D86AE062012404FA00F300EB800006EB88
:10325000800013433946C5F8B030FEF793FB204693
:10326000F8BD00BF540300207003002070B1F8B512
:10327000274DD5F8AC3083420AD04FF0500383F38A
:103280001188BFF36F8FBFF34F8FFEE700207047A9
:103290009B6D43B94FF0500383F31188BFF36F8FD9
:1032A000BFF34F8FFEE7C16A426D013B91428365D8
:1032B00000D00BB10020F8BD071D04463846FEF7CC
:1032C0008BFB68B9E16A142303FB0153DB693BB94B
:1032D000D5F8B03001228A4023EA0203C5F8B030A5
:1032E000636D0C4AD5F8B0C0E3620126142000FBE0
:1032F000032006FA03F2C3F1070342EA0C0239463F
:10330000A361C5F8B020FEF73DFB3046F8BD00BF15
:103310005403002070030020B8B12DE9F041846D02
:1033200044B94FF0500383F31188BFF36F8FBFF39D
:103330004F8FFEE7436DC26A8B4238BF0B469A42FD
:1033400001D0012C02D0BDE8F0817047204DD5F8A6
:10335000AC10814232D08169C3620029A8BFC3F199
:1033600007031C4FA8BF83611426436906FB027242
:103370009342E8D100F1040804464046FEF72CFBD6
:10338000E26A60B906FB02560123F06903FA02F112
:1033900028B9D5F8B03023EA0103C5F8B030D5F824
:1033A000B0400123934023431420414600FB0270A8
:1033B000C5F8B030BDE8F041FEF7E4BA4FF0500375
:1033C00083F31188BFF36F8FBFF34F8FFEE700BF0A
:1033D0005403002070030020054BD3F8AC2022B129
:1033E000D3F8AC108A6D01328A65D3F8AC0070470F
:1033F000540300202DE9F8433D4C1D4680460F46FE
:10340000164600F077FBD4F8AC3093F86030022B0E
:103410000CD0D4F8AC20D36D23EA0803D365D4F8DC
:10342000AC304FF0010883F86080CDB900F084FB28
:1034300000F060FB1EB1D4F8AC30DB6D3360D4F823
:10344000AC3093F86030022B3BD00025D4F8AC3080
:10345000002283F8602000F06FFB2846BDE8F88367
:10346000D4F8A890D4F8AC000430FEF7B5FA50B9FF
:10347000D4F8AC20D4F8B030D26A08FA02F823EAC3
:103480000803C4F8B0306B1C23D0D4F8AC3015EB73
:1034900009055D6024D2D4F8CC00D4F8AC10043116
:1034A000FEF780FAD4F8D0309D4238BFC4F8D0502F
:1034B000104B4FF080521A60BFF34F8FBFF36F8FE6
:1034C000B4E7D4F8AC20D36D23EA0707D76501250C
:1034D000BCE7D4F8AC1008480431FEF753FAE7E72C
:1034E000D4F8C800D4F8AC100431FEF75BFADFE77B
:1034F0005403002004ED00E008040020F8B5A8B152
:103500001D46044616460F4600F0F4FA0DB1E36D71
:103510002B6094F860500222731EEDB284F8602094
:10352000032B0FD8DFE803F04B470D0B4FF0500390
:1035300083F31188BFF36F8FBFF34F8FFEE7022D28
:1035400007D0E765012D06D0012500F0F5FA2846E1
:10355000F8BD0025F9E7271D1B4E3846FEF73CFA5B
:10356000E26AD6F8B0C005FA02F3394606F11C004B
:10357000142743EA0C0307FB0200C6F8B030FEF73D
:1035800001FAA36A43B14FF0500383F31188BFF3EC
:103590006F8FBFF34F8FFEE7D6F8AC30E26ADB6A7D
:1035A0009A42D1D9094B4FF080521A60BFF34F8F26
:1035B000BFF36F8FC9E7E36D0133E365C2E7E36DE6
:1035C0001F43E765BEE700BF5403002004ED00E0A1
:1035D0002DE9F843DDF82080F8B104461D46164673
:1035E000894600F0A7FBEFF311874FF0500383F3F8
:1035F0001188BFF36F8FBFF34F8F0DB1E36D2B6059
:1036000094F860500222731EEDB284F86020032B00
:1036100010D8DFE803F04E4A0D0B4FF0500383F350
:103620001188BFF36F8FBFF34F8FFEE7022D08D0D5
:10363000C4F85C90012D06D0012087F31188BDE805
:10364000F8830020F9E7A36A43B14FF0500383F3F6
:103650001188BFF36F8FBFF34F8FFEE71C4ED6F874
:10366000183173BB04F104094846FEF7B5F9E26A64
:10367000D6F8B0C005FA02F306F11C00142543EA9F
:103680000C03494605FB0200C6F8B030FEF77AF994
:10369000D6F8AC30E26ADB6A9A42CDD90120B8F1A3
:1036A000000F0BD0C8F80000C7E7E36D0133E365F6
:1036B000C0E7E36D43EA0903E365BBE7C6F81C0115
:1036C000BBE704F1180106F1FC00FEF75BF9DFE748
:1036D000540300202DE9F0411F4E84B000270DE077
:1036E000DB68DC68D3F80080251D2846FEF774F9F6
:1036F000636A20469847E369012B09D033681A684A
:10370000002AEDD1B2683260B36004B0BDE8F08148
:10371000A36943449845294617D3736863B1CDE93B
:1037200001780394FFF738FD00231A4601A9706859
:10373000FEF736FB0028E1D14FF0500383F31188E8
:10374000BFF36F8FBFF34F8FFEE763602461306874
:10375000FEF728F9D2E700BF800400202DE9F047EA
:103760008A4C8B4F86B0012623681D68002D49D0F6
:10377000DB681D68FFF754FAFFF75CFAE3689842CC
:1037800080464FD38542E06056D90022A5EB080160
:103790006068FEF7B3FFFFF7E9FA30B94FF08053E6
:1037A0003B60BFF34F8FBFF36F8F4FF000080022D5
:1037B00069466068FEF786FC0028D5D0009B002B88
:1037C000F5DBDDF80890D9F814301BB109F10400DD
:1037D000FEF702F9FFF72EFAE3689842054628D370
:1037E000009BE560092BE2D806FA03F313F4047F8B
:1037F0006CD113F0C70F33D19B06D8D5484600F0E3
:1038000067FBD4E7FFF70CFAFFF714FAE368984276
:10381000804607D3A368C4F80C801A68B2FA82F213
:103820005209B3E7FFF756FFC4F80C80FFF79EFA82
:10383000BBE7FFF74FFFD3E7FFF798FA2368DB6892
:10384000D3F80C9009F1040A5046FEF7C5F8D9F8F0
:103850001C30012B57D0D9F8243048469847A4E7AC
:10386000019BD9F81820C9F8109099182CBF012095
:103870000020A942C9F804103BD8EB1A9A4250D84C
:10388000D9F8243048469847D9F81C30012B8ED1FE
:10389000636893B1D9F81820019BCDF80C801344CC
:1038A000CDE90439FFF778FC00231A4603A96068C4
:1038B000FEF776FA00287FF47AAF4FF0500383F3D7
:1038C0001188BFF36F8FBFF34F8FFEE7019BC9F8DD
:1038D0001830002B50D02B44AB42C9F80430C9F843
:1038E000109009F1040194BFA0682068FEF75AF80F
:1038F0005DE7AB4201D90028C2D009F1040120687C
:10390000FEF750F853E7D9F81830C9F81090EA18C4
:103910004245C9F804200AD951462068FEF742F80A
:1039200099E709F10401A068FEF73CF83FE7A8EB2E
:10393000050843451BD8636883B14FF00008CDE903
:103940000459CDF80C80FFF727FC4346424603A9F3
:103950006068FEF725FA00287FF47DAF4FF0500332
:1039600083F31188BFF36F8FBFF34F8FFEE751468C
:10397000A068FEF717F86EE74FF0500383F3118845
:10398000BFF36F8FBFF34F8FFEE700BF80040020AF
:1039900004ED00E0F0B51C4C83B000F0ABF86768B4
:1039A000C7B100F0C9F863685BB1184B01930223FB
:1039B00000934FF48072002315491648FEF774FFF8
:1039C00000BB4FF0500383F31188BFF36F8FBFF339
:1039D0004F8FFEE704F11006304604F12405FDF791
:1039E000C1FF2846FDF7BEFF3A460C210A2026609B
:1039F000A560FEF74FF860600028D2D00649FEF7B8
:103A000053FECEE703B0F0BD80040020B8040020D0
:103A1000109A00085D370008089A00080E4B1B68D2
:103A200082B000220133019208D04FF0500383F39B
:103A30001188BFF36F8FBFF34F8FFEE74FF0500336
:103A400083F31188BFF36F8FBFF34F8F019B002B60
:103A5000FCD002B0704700BF080000200848006892
:103A6000006880F308884FF0000080F3148862B685
:103A700061B6BFF34F8FBFF36F8F00DF00BF000051
:103A800008ED00E0DFF80C00016841F4700101600E
:103A90007047000088ED00E030B421F001014FF0E4
:103AA0008075074C40F80C4C6FF0020340F8202C56
:103AB00040E9021540F8243C30BC4438704700BF50
:103AC0001D3A000800000000000000000000000097
:103AD000074B19680868B0E8F04F80F30988BFF316
:103AE0006F8F4FF0000080F311887047AFF30080B4
:103AF000000400204FF0500383F31188BFF36F8F51
:103B0000BFF34F8F0A4A13680133012B136000D0B3
:103B10007047084B1B6813F0FF0FF9D04FF05003AC
:103B200083F31188BFF36F8FBFF34F8FFEE700BFA2
:103B30000800002004ED00E0084A136843B94FF084
:103B4000500383F31188BFF36F8FBFF34F8FFEE7EE
:103B5000013B13600BB983F3118870470800002004
:103B6000EFF30980BFF36F8F154B1A681EF0100F2B
:103B700008BF20ED108A20E9F04F10602DE9090000
:103B80004FF0500080F31188BFF34F8FBFF36F8F5A
:103B9000FFF78EF94FF0000080F3118809BC196817
:103BA0000868B0E8F04F1EF0100F08BFB0EC108AA4
:103BB00080F30988BFF36F8F704700BFAFF30080B9
:103BC0000004002008B54FF0500383F31188BFF3C1
:103BD0006F8FBFF34F8FFFF733F818B1034B4FF0E0
:103BE00080521A60002383F3118808BD04ED00E0C1
:103BF00030B4094A094D0A4B0A4C0B4800211160A8
:103C000029601B68A4FB03139B09013B0721036088
:103C100030BC1160704700BF10E000E018E000E029
:103C20004C010020D34D621014E000E0394B3A4AB9
:103C3000196891423FD01A68384B9A4232D010B579
:103C4000374B38491A7882B0FF20D2B201921870EF
:103C50001B78DBB28DF803309DF803309DF803200C
:103C6000072003F05003486010060B7011D506239F
:103C700000E003469DF803205200D2B28DF80320E5
:103C80009DF80320120603F1FF30F2D4032B4B60A2
:103C90001AD04FF0500383F31188BFF36F8FBFF337
:103CA0004F8FFEE74FF0500383F31188BFF36F8F00
:103CB000BFF34F8FFEE74FF0500383F31188BFF33C
:103CC0006F8FBFF34F8FFEE70198154C164AC0B2B5
:103CD0002070106840F47000106010681B0240F003
:103CE0007040106003F4E0634B60FFF781FF0F4BFF
:103CF00000241C60FFF7C6FE0D4A136843F04043E2
:103D00001360FFF7ABFEFFF7D3F8FFF787FE2046FF
:103D100002B010BD00ED00E071C20F4170C20F4152
:103D200000E400E0BC04002020ED00E008000020DA
:103D300034EF00E0EFF305820F2A11D8104B114940
:103D40005A680B6803F4E063934208D94FF05003BC
:103D500083F31188BFF36F8FBFF34F8FFEE7704778
:103D60000949074B525C19789142E8D94FF050034A
:103D700083F31188BFF36F8FBFF34F8FFEE700BF50
:103D8000BC0400200CED00E0F0E300E0114B30B487
:103D90001D461A68824201D21346FAE75C68191977
:103DA000884203D14168214459601846446801198A
:103DB0008A4208D1A9688A4205D0D2E9002121446B
:103DC0000260416000E00260984218BF186030BC99
:103DD000704700BFC4040020F8B53A4D0446FEF712
:103DE0001FFFAA68002A53D0EE6834424BD1002C42
:103DF00049D004F1080358071CBF23F00703083318
:103E0000002B40D06F699F423DD32C682D4806E0BF
:103E1000D4F800C0BCF1000F04D0204664466168AD
:103E20009942F5D394422ED022680260CA1A102A11
:103E300010D9E018410708D04FF0500383F31188E0
:103E4000BFF36F8FBFF34F8FFEE742606360FFF7F2
:103E50009DFF61682A697F1A002331439742C4E9B4
:103E6000003104F1080438BF2F616F61FEF77EFF57
:103E700063070BD04FF0500383F31188BFF36F8FAC
:103E8000BFF34F8FFEE7FEF771FF00242046F8BD19
:103E90000D4B0E4A5E0718BF073322F0070218BF0A
:103EA00023F007032B6018460027D31A4FF0004673
:103EB000C5E90172C5E90433C2E90077EE60C0E9E3
:103EC000002392E7C4040020DC040020D430012049
:103ED000D8B138B5174D50F8043CEA68134208D100
:103EE0004FF0500383F31188BFF36F8FBFF34F8FF1
:103EF000FEE750F8081C49B14FF0500383F31188D6
:103F0000BFF36F8FBFF34F8FFEE77047044623EA7E
:103F1000020340F8043CFEF783FE6A6954F8043C4F
:103F2000A4F1080013446B61FFF730FFBDE838408F
:103F3000FEF71CBFC404002070B506460546304697
:103F4000FCF7CEFAAB1B9842094C0BD923681A0632
:103F5000FCD515F8013B63603046FCF7C1FAAB1B9A
:103F60009842F3D8024A13685B06FCD570BD00BFC7
:103F70000014014010B582B002AC0A46074944F86B
:103F8000040D01F0EDFF064B214618684FF0FF329B
:103F90000023FDF705FF02B010BD00BF289A0008FE
:103FA0005032012010B582B002AC0A46074944F8ED
:103FB000040D01F0D5FF064B214618684FF0FF3283
:103FC0000023FDF7EDFE02B010BD00BF409A0008CF
:103FD0005032012010B582B002AC0A46074944F8BD
:103FE000040D01F0BDFF064B214618684FF0FF326B
:103FF0000023FDF7D5FE02B010BD00BF549A0008A3
:104000005032012010B584B004AC0093134644F83C
:10401000040D0A46064901F0A3FF064B2146186825
:104020004FF0FF320023FDF7BBFE04B010BD00BF10
:104030006C9A0008503201202DE9F04F85B0994666
:1040400004AC0390C8208A469346BDF83870BDF88A
:104050003C80BDF94060144DFEF704FFCDF80090A0
:1040600054F8040D11495B46524601F079FF214690
:1040700000234FF0FF322868FDF792FEC820FEF7BC
:10408000F1FE119B03980A49CDE900633A46434685
:1040900001F066FF2146286800234FF0FF32FDF74C
:1040A0007FFE05B0BDE8F08F50320120989A0008DD
:1040B000B89A0008F0B583B002AE0E4C46F8040D75
:1040C00005460FCC2860696003CC0B4FAA60B4F89A
:1040D00000C0A278EB6028616961AA76A5F818C0D3
:1040E0003146386800234FF0FF32FDF759FE03B028
:1040F000F0BD00BFFC9A0008503201200078303833
:10410000C0B27047704700BF2DE9F041064684B049
:104110000020884601F09EFA154B164C5A68009212
:1041200000254FF4FC621B683C21CDE901250A20E3
:10413000114A01F0EBF91F27636800930295236889
:1041400001970E4A70210A2001F0E0F942463046FC
:104150000B4901F005FF63680093CDE90175324614
:1041600023689421052001F0D1F904B0BDE8F08165
:104170005801002050010020189B0008309B0008C7
:10418000409B000810B50A4684B00949044601F076
:10419000E7FE084B5A68009200201F211B68224648
:1041A000CDE901109421052001F0B0F904B010BD53
:1041B0004C9B0008500100202DE9F0412E4E2F4D60
:1041C0002F4C0FCE0FC596E80F0007C505F81C3918
:1041D000A84682B04046FCF783F9002686422F4667
:1041E0000BD223681806FCD517F8013B63604046E4
:1041F000FCF776F901368642F3D3214E336859062F
:10420000FCD5336801931F4F019B736801930FCF57
:10421000019CD6F80CC0194C4CF0200CC6F80CC010
:104220000FC497E80F0007C42646002706F81C397C
:104230003046FCF755F98742114C0BD223681A0619
:10424000FCD515F8013B63603046FCF749F90137AE
:104250008742F3D30A4A13685B06FCD50A4B1A68F7
:104260000092009A5A680092009ADA6842F020029E
:10427000DA6002B0BDE8F081589B0008DC30012014
:1042800000140140789B000800100140F8B500229E
:1042900025210A20FDF7FEFB254C264D206000223B
:1042A00004214FF49670FDF7F5FB002204212860ED
:1042B0000A20FDF7EFFB204E204F30600120FDF774
:1042C0002DFC0322386000210120FDF7E3FB1C4A8E
:1042D000236810603BB12B682BB133681BB13B687E
:1042E0000BB100B1F8BD174E174D184C0FCE0FC5CE
:1042F0000FCE0FC596E8070003C525F828292F46DD
:104300003846FCF7EDF8002686420BD223681A06E1
:10431000FCD515F8013B63603846FCF7E1F801363F
:104320008642F3D3094A13685B06FCD5F8BD00BF8B
:1043300054320120503201205C32012058320120D9
:1043400064320120989B0008DC30012000140140F9
:1043500010B582B02F4B0193012300934FF4FA72F2
:1043600000232D492D48FEF79FFA2D4B019303237F
:1043700000934FF4FA7200232A492B48FEF794FA6F
:104380002A4B2B492B480224CDE900434FF4FA7203
:104390000023FEF789FA284B28492948CDE9004334
:1043A0004FF4FA720023FEF77FFA264B264927487E
:1043B000CDE900434FF4FA720023FEF775FA244B5F
:1043C00024492548CDE900434FF4FA720023FEF753
:1043D0006BFA224B22492348CDE900434FF4FA728D
:1043E0000023FEF761FA204B20492148CDE9004324
:1043F0004FF42F720023FEF757FA1E4B1E491F4839
:10440000CDE900434FF4FA720023FEF74DFA02B0F3
:1044100010BD00BF60320120C49B00084546000863
:1044200088320120D49B0008854600088432012090
:10443000E49B0008CD46000880320120F89B00086C
:10444000154800087C3201200C9C0008C547000874
:1044500078320120209C0008514800087432012065
:10446000309C00086D48000870320120489C00080C
:10447000C54800086C3201205C9C0008DD4900083A
:1044800080B500F081FC0321002001F003FC022133
:104490000120194E194C01F0FDFB06F120073546AD
:1044A0000FCDBD4220606160A260E3602E4604F142
:1044B0001004F4D12B781148237001F0D3FC0020B4
:1044C00001F006F90E4B0246187030B10D490B4849
:1044D00001F046FD094801F0C5FC002001F038F963
:1044E00000F09CF8FFF768FEFFF7D0FEFFF730FF03
:1044F000FEF7B2FAFEE700BF709C0008DC30012036
:104500004D320120949C0008F0B585B000221E4B6E
:1045100003921A6891060AD5DA68920607D55B6895
:104520001A4CDBB2242B227803D0012A06D005B026
:10453000F0BD002AF9D101232370F8E7144D154E80
:104540002A78511CC9B22A2B2970B354EFD12029E3
:10455000EDD8114B00271868775403AB00933A4607
:104560003B4639462770FFF733F8039B2F70002B2B
:10457000DDD00A4B4FF080521A60BFF34F8FBFF36C
:104580006F8F05B0F0BD00BF001001404A3201201E
:104590004C320120EC3201208832012004ED00E091
:1045A00030B585B00023154A0393116888060CD5F1
:1045B000D168890609D5124952680878114DD2B2DE
:1045C000441C0D2A2A540C7001D005B030BD0E4A8F
:1045D0000B70106803AA009219461A46FEF7F8FFFE
:1045E000039B002BF1D0094B4FF080521A60BFF3B0
:1045F0004F8FBFF36F8F05B030BD00BF0014014077
:104600004B320120743301207432012004ED00E0AC
:1046100008B50120FDF79EF9FBE700BF30B5074D57
:104620000FCD87B001AC0FC42B682360002101A817
:10463000FDF778F9024B186007B030BD68710008CB
:104640008833012000B583B002AC0C4B44F8043D24
:104650001420FEF707FC0A4D2868214600234FF07E
:10466000FF32FDF79DFB0022114610464FF0FF334D
:10467000FEF7C0FE3220FEF7F5FBEDE70C00002050
:104680005032012008B50E4D0E4C00224FF0FF3382
:1046900011461046FEF7AEFEFFF72CFA23220A4918
:1046A000204601F0A9FCFFF747FA00234FF0FF3244
:1046B00021466868FDF774FB3220FEF7D3FBE4E780
:1046C000503201204C330120EC3201202DE9F04F13
:1046D00089B00023344D354FDFF8DCB0DFF8DCA0C3
:1046E000DFF8DC90324EADF81430ADF81630ADF88E
:1046F0001830ADF81A30ADF81C30ADF81E30314628
:104700004FF0FF326868FDF7DDFC0DF11E030393E7
:104710000DF11A03029306AB019307AB009305AAB0
:104720000DF116032349304601F03AFCBDF816108E
:10473000BDF81440BDF81C30BDF818200C441C44D2
:10474000BDF81A3080461444A8684FF0FF311C446D
:10475000FDF71CFEBDF81400BDF81830BDF81610AA
:10476000BDF81C20A9F800804FF0000C60F30F0C7E
:10477000002063F30F0061F31F4C002362F31F401E
:10478000A4B2AAF800407860BDF81E40C7F808C07F
:104790001A461946A868ABF80040FDF701FB6420F3
:1047A000FEF760FBABE700BF50320120E032012092
:1047B0004C330120B09C00084432012048320120D3
:1047C000463201201048114E114D08B5FFF7B4FBD9
:1047D0001420FEF747FB0022114610464FF0FF332E
:1047E000FEF708FE4FF0FF31B068FDF7CFFD2A68F5
:1047F000B0680023541C19461A462C60FDF7D0FA05
:104800003220FEF72FFBE6E7D09C00085032012053
:104810004032012000B583B002AC00230A4844F8BE
:10482000043DFFF789FB1420FEF71CFB074D2868A9
:104830004FF0FF322146FDF745FC0198FFF77CFB66
:104840003220FEF70FFBF2E7D89C0008503201201F
:1048500008B5054C4FF4FA70FEF704FB636983F06A
:1048600004036361F6E700BF0004024030B5134D56
:10487000134C83B00022114610464FF0FF33FEF771
:10488000B9FD0B20FFF7A8FA0190FFF733F9204696
:10489000FFF734FC019B03F8010B1846FFF732FCCD
:1048A000FFF74AF900234FF0FF3201A9E868FDF74E
:1048B00077FA3220FEF7D6FADCE700BF503201204B
:1048C000743301202DE9F04F3D4CDFF80891DFF8FB
:1048D00008B1A1B04FF0FF352A4606A9E068394F6C
:1048E000FDF7F0FB4FF0FF31A068FDF74FFDB9F980
:1048F00008500495344DB7F900802D8805950023A4
:10490000324D334FA068B9F90460B9F906A0B5F982
:1049100000503F681A461946FDF742FA069B1B787D
:10492000012B25D0022B28D0032B3DD0042BAAB27B
:104930003FD0052B26D04FF0000307A88BF800309E
:10494000FFF7B8FB0698FFF7C3FA4FF0FF353220A8
:10495000FEF788FA9BF80030002BBDD11A461946A5
:104960002069FEF7CBFD4FF001038BF80030B3E771
:10497000314607A8FFF7FEFAE4E7049907A8FFF716
:1049800011FBDFE7059B019200934FF00105CDE994
:1049900002875346324604998BF8005007A84FF41B
:1049A0007A75FFF749FBD2E7514607A8FFF712FBDC
:1049B000C8E74346059907A8FFF724FBC2E700BFF5
:1049C0005032012046320120443201204832012079
:1049D00040320120E0320120480100202DE9F04161
:1049E00014209AB0FEF73EFABA4DBB4F64244FF044
:1049F00000080BE0012001F021F9002800F00A81F5
:104A0000002C40F08780C820FEF72CFA4FF0FF31D1
:104A1000A868FDF7BBFC00231A461946A868B7F939
:104A20000660FDF7BDF9022001F008F900285ED00C
:104A3000032001F003F9002865D0002001F0FEF802
:104A40000028D7D1032000F083FE012001F0F6F802
:104A5000002800F0DF80C820FEF704FA4FF0FF3195
:104A6000A868FDF793FC00231A461946A868B7F911
:104A70000660FDF795F9022001F0E0F8002836D035
:104A8000032001F0DBF800283DD0002001F0D6F82B
:104A90000028D7D0012001F0D1F8002800F0BA801A
:104AA000C820FEF7DFF94FF0FF31A868FDF76EFC74
:104AB00000231A461946A868B7F90660FDF770F991
:104AC000022001F0BBF890B1032001F0B7F8D0B19B
:104AD000002001F0B3F80028B4D0012001F0AEF8B6
:104AE000002800F097804FF0030861248BE701A8AD
:104AF0003146FFF709FB032064244FF0010801F061
:104B00009DF8002899D1022000F022FE64244FF085
:104B1000020892E7013CB8F1010FA4B240F0D28044
:104B2000314601A8FFF72EFB002C40F0A180204663
:104B300000F00EFEC820FEF795F94FF0FF31A8688F
:104B4000FDF724FC234622462146A868B7F90660F3
:104B5000FDF726F9022001F071F80028C7D00320E4
:104B600001F06CF80028CED0204601F067F800284C
:104B70003FF468AF012001F061F800284AD0C82056
:104B8000FEF770F94FF0FF31A868FDF7FFFB2346F1
:104B900022462146A868B7F90660FDF701F9022010
:104BA00001F04CF80028A2D0032001F047F80028BB
:104BB000A9D0204601F042F800283FF443AF01207D
:104BC00001F03CF830B3C820FEF74CF94FF0FF314C
:104BD000A868FDF7DBFB234622462146A868B7F903
:104BE0000660FDF7DDF8022001F028F800283FF408
:104BF0007EAF032001F022F8002884D0002001F0CD
:104C00001DF800283FF41EAF012001F017F800281E
:104C10007FF4F9AE042000F09BFDC820FEF722F9D6
:104C20004FF0FF31A868FDF7B1FB00231A46194683
:104C3000A868B7F90660FDF7B3F8022000F0FEFFA0
:104C400000283FF454AF032000F0F8FF00283FF4A1
:104C50005AAF002000F0F2FF00283FF4F3AE01202D
:104C600000F0ECFF0028D5D04FF004086224CAE61B
:104C7000C820FEF7F7F84FF0FF31A868FDF786FB74
:104C800000231A461946A868B7F90660FDF788F8A8
:104C9000022000F0D3FF00283FF429AF032000F0EA
:104CA000CDFF00283FF42FAF002000F0C7FF002801
:104CB0003FF4C8AE012000F0C1FF013C0028A9D09C
:104CC000A4B22DE7002C7FF49EAE204600F040FDFC
:104CD00099E600BF50320120E032012030B50024B7
:104CE0009BB0CDE91144CDE90444CDE90644CDE9BA
:104CF0000944CDE90B44224A019413940394089487
:104D00000D94116C1F4B41F080511164126C02F034
:104D100080520192019A02941A6842F440421A6049
:104D20001B6803F44043029305214FF480330122B2
:104D3000022502980E910F934FF4800104231092E4
:104D40000EA85422CDE91451CDE91632CDE91853FD
:104D5000FBF728FE0F2229464FF4805303A8039245
:104D60000693CDE904540794FCF70CF84FF48073D4
:104D700008A808950C93FCF7D1F81BB030BD00BF14
:104D8000003802400070004008B5FBF701FCFFF757
:104D9000A5FF00F005FE0121002000F049FE0121E1
:104DA000084600F045FE0121022000F041FE0121ED
:104DB000032000F03DFE0121042000F039FE002117
:104DC000052000F035FE002000F080FE012000F0FC
:104DD0007DFE022000F07AFE032000F077FE042022
:104DE00000F074FE052000F071FE062000F06EFE5B
:104DF000072000F06BFE082000F068FE092000F09C
:104E000065FE0A2000F062FEBDE8084000F0DABE50
:104E10000268034B9A4200D07047FBF7D3BB00BF38
:104E200000000140704700BF82B00E4B002200928C
:104E3000596C41F480415964596C01F480410091EE
:104E400000990192196C41F0805119641B6C03F0B8
:104E500080530193019B0F216FF0010002B0FBF71B
:104E6000E7BB00BF0038024030B5014689B00022E0
:104E70001920FBF7DDFB1920FBF710FC0025154B73
:104E800002955A6C144C42F001025A645B6C03F0B8
:104E9000010301A9029303A8029BFCF71DF8FCF78C
:104EA0000BF80E4B0E492561A3FB00239B0C013B25
:104EB00040F2E7322046C4E901352160E260FCF7A8
:104EC00045FA10B1012009B030BD2046FCF79CFA2C
:104ED00009B030BD003802408C33012083DE1B4313
:104EE00000000140704700BFFEE700BFFEE700BFC3
:104EF000FEE700BFFEE700BF704700BF0148FCF7B8
:104F00009BBA00BF8C3301200C4A08B5136833B13B
:104F100018446946884208D81060184608BD084BF6
:104F20001360184469468842F6D900F0E3FF0C2369
:104F300003604FF0FF33184608BD00BF8C320120DC
:104F4000283401201049114BD1F8882042F4700216
:104F500010B4C1F888201A680D4C002042F00102FC
:104F60001A6098601A6822F0847222F480321A6003
:104F70005C601A684FF0006422F480221A60D860E6
:104F80008C605DF8044B704700ED00E00038024093
:104F9000103000242DE9F04F83B002AF2A242A4DAF
:104FA00007F8054D294C4FF0004683468946924646
:104FB00098463946A66128464FF0FF330122FCF798
:104FC000ADF84FF400474FEA1B224FEA1A238DF841
:104FD00004208DF806308DF805B08DF807A001A9E2
:104FE0002846A7614FF0FF330422FCF797F802A987
:104FF0002B2301F8063D2846A6614FF0FF3301221E
:10500000FCF78CF84FEA19224FEA18238DF8042098
:105010008DF806308DF805908DF8078001A9A761FD
:1050200028464FF0FF330422FCF778F82C238DF844
:10503000043001A928464FF0FF33A6610122FCF796
:105040006DF803B0BDE8F08FCC33012000040240BE
:10505000024B4FF480429A61704700BF0004024047
:105060002DE9F04FDE4CDF4FDF4DDFF880934FF03E
:1050700080424FF000538BB0A2610520BB61FBF76B
:10508000B3FA0AA94FF400530126BB614FF0004761
:1050900001F8116D32464FF0FF33A7612846FCF747
:1050A0003DF84FF47A70FBF79FFA0AA9CB2301F879
:1050B000123D3246A76128464FF0FF33FCF72EF829
:1050C00099E803004FF4004806908DF81C1028461C
:1050D00006A9C4F818804FF0FF330522FCF71EF82C
:1050E0000AA9CF2301F8133D3246A76128464FF0A5
:1050F000FF33FCF713F8D9F80830ADF818301B0C63
:105100008DF81A3006A9C4F8188028464FF0FF33EE
:105110000322FCF703F80AA9E82301F8143D3246FC
:10512000A76128464FF0FF33FBF7F8FFD9F80C30A2
:10513000ADF818301B0C8DF81A3006A9C4F8188089
:1051400028464FF0FF330322FBF7E8FF0AA9EA23C2
:1051500001F8153D32464FF0000BA76128464FF08D
:10516000FF33FBF7DBFFADF818B006A9C4F81880D1
:1051700028464FF0FF330222FBF7D0FF0AA9ED23A8
:1051800001F8163D3246A76128464FF0FF33FBF782
:10519000C5FFD9F81030069306A9C4F81880284630
:1051A0004FF0FF330422FBF7B9FF0AA9F72301F8F8
:1051B000173D3246A76128464FF0FF33FBF7AEFF9D
:1051C00020238DF81830324606A9C4F818802846E6
:1051D0004FF0FF33FBF7A2FF0AA9C02301F8183DE7
:1051E0003246A76128464FF0FF33FBF797FF232392
:1051F0008DF81830324606A9C4F8188028464FF0BA
:10520000FF33FBF78BFF0AA9C12301F8193D324692
:10521000A76128464FF0FF33FBF780FF10238DF87E
:105220001830324606A9C4F8188028464FF0FF33DC
:10523000FBF774FF0AA9C52301F81A3D3246A7619E
:1052400028464FF0FF33FBF769FFB9F81430ADF88B
:10525000183006A9C4F8188028464FF0FF33022200
:10526000FBF75CFF0AA9C72301F81B3D3246A76183
:1052700028464FF0FF33FBF751FF86238DF8183097
:10528000324606A9C4F8188028464FF0FF33FBF7D2
:1052900045FF0AA94FF0360A01F81CAD3246A76156
:1052A00028464FF0FF33FBF739FF4FF048038DF8E6
:1052B0001830324606A9C4F8188028464FF0FF334C
:1052C000FBF72CFF0AA93A2301F81D3D3246A761DE
:1052D00028464FF0FF33FBF721FF55238DF8183098
:1052E000324606A9C4F8188028464FF0FF33FBF772
:1052F00015FF0AA9B12301F81E3D3246A7612846D1
:105300004FF0FF33FBF70AFF4FF4C053ADF81830EE
:1053100006A9C4F8188028464FF0FF330222FBF795
:10532000FDFE0AA9B62301F81F3D3246A7612846B3
:105330004FF0FF33FBF7F2FED9F81830ADF8183014
:105340001B0C8DF81A3006A9C4F8188028464FF0B7
:10535000FF330322FBF7E2FE0AA9F22301F8203D06
:105360003246A76128464FF0FF33FBF7D7FE8DF892
:1053700018B0324606A9C4F8188028464FF0FF330B
:10538000FBF7CCFE0AA9262301F8213D3246A7618E
:1053900028464FF0FF33FBF7C1FE8DF81860324608
:1053A00006A9C4F8188028464FF0FF33FBF7B6FE75
:1053B0000AA9E02301F8223D3246A76128464FF0B2
:1053C000FF33FBF7ABFE09F11C030FCB0DF1180CFB
:1053D000ACE807002CF8023B1B0C8CF8003007E00F
:1053E0000004024000080240CC330120A8990008C4
:1053F00006A9C4F8188028464FF0FF330F22FBF7A8
:105400008DFE0AA9E12301F8233D3246A761284613
:105410004FF0FF3309F12C09FBF780FE99E80F00EC
:105420000DF1180CACE807002CF8023B1B0C8CF8B3
:10543000003006A9C4F8188028464FF0FF330F2229
:10544000FBF76CFE112306A98DF8183032464FF099
:10545000FF33A7612846FBF761FE7820FBF7C4F80D
:105460000AA9292301F8243D3246A76128464FF0B6
:10547000FF33FBF753FE0AA9324601F825AD284653
:10548000A7614FF0FF33FBF749FE0AA94FF048032D
:1054900001F8283D32462846C4F818804FF0FF3303
:1054A000FBF73CFE4FF48043A3610BB0BDE8F08FE7
:1054B000EF2803D8B1F5A07F0B4600D37047F0B5B5
:1054C000104E044601344FF08047013383B0154637
:1054D0009BB2A2B2B761FFF75DFD2B0A4FF4004209
:1054E0008DF804308DF805504FF0FF33B26101A9FB
:1054F00002220548FBF712FE4FF48043B36103B06C
:10550000F0BD00BF00040240CC33012082B02DE981
:10551000F04F8BB04FF08045BDF85C40BDF860B0F7
:10552000029426460492494C1593320A00925FFA7F
:1055300083F84FEA1B22C3F30723CDE9050101924B
:10554000A146A5610793049B13F8015B0493002D0A
:105550006DD0059B079903EB0802EF2A8BB26FDD34
:10556000069A1A4492B206920A44B2F5A07F5EDA15
:10557000202D67D0002000EB08020699169C92B2FD
:10558000013B05920B44013A92B29BB2FFF702FD38
:10559000079A002AD7D0A5F1200302FB03F3B8F144
:1055A000000FD0D003F1004A1344A21E0AF1FF3AC3
:1055B00002EB4303264D039304EB4A0A3AF8027FB9
:1055C00000240EE0009E8DF82460029E8DF8256078
:1055D0004FF40046C9F818600134FBF79FFD4445BD
:1055E0001CD007FA04F313F4004F4FF002024FF0FF
:1055F000FF3309A92846E5D1019B8DF824304FF4EB
:1056000000428DF825B04FF0FF33C9F8182009A9E2
:1056100002220134FBF782FD4445E2D1039B53454E
:10562000CCD1049B13F8015B0493002D91D1074B5F
:105630004FF480429A610BB0BDE8F04F02B0704762
:10564000059898E7002305937DE700BF000402401A
:10565000CC33012070B5184E184D00214FF0804317
:1056600082B00446B361084640F23F13EF22FFF7D1
:1056700091FC3046230A01224FF400418DF8054089
:105680008DF804304FF4A076FBF788F9F024013C44
:105690004FF0FF33022201A92846A4B2FBF73EFDDA
:1056A000002CF4D1013EB6B2002EEFD1024B4FF4E4
:1056B00080429A6102B070BD00040240CC330120E8
:1056C00001224FF480610148FBF768B900000240F5
:1056D00038B598BB1C4C1D4DA0604FF482714FF43F
:1056E00000720A23C4E903006061C4E90700C4E949
:1056F00009002046C4E90051A261E362FBF7B8FC4F
:10570000F8B94FF4FA70FAF76FFFFFF7A1FCFFF753
:10571000D7FFFFF7A5FC0C48FBF7EAFC0023C51AEE
:105720000948E36118BF0125FBF7A2FC20B900205E
:10573000FFF790FF284638BD0235F8E70A252846CE
:1057400038BDFFF76FFBDCE7CC33012000300140B0
:105750002DE9F04184B0042800F2BE80DFE800F0BB
:10576000038DA7B274000024A5B228464FF47842F6
:105770000021FFF79DFE013428464FF4784240F2A5
:105780003F11FFF795FEF02CEED10024A5B229467B
:105790004FF478420020FFF78BFE013429464FF486
:1057A0007842EF20FFF784FEB4F5A07FEED14FF4EE
:1057B000FA70FAF719FF0020FFF74CFF474B484DEE
:1057C0005A68009200244FF478421B68454ECDE998
:1057D00001240A21444A1420FFF798FE6B680093C5
:1057E0004FF4FC6702942B68404A01973C210A2041
:1057F000FFF78CFE4FF01F08736800930294336824
:10580000CDF804803A4A70211420FFF77FFE7368B8
:105810000093384A33689421CDE901845020FFF782
:1058200075FE4FF47A70FAF7DFFE6B680093CDE9EE
:105830000174314A2B684FF480711420FFF766FE23
:10584000012004B0BDE8F0810020FFF703FF254BE5
:105850002A4A5968009100204FF6FF711B68CDE974
:10586000011070210A20FFF751FE4FF47A70FAF709
:10587000BBFE012004B0BDE8F08140F2FF70FFF7ED
:10588000E9FE184B1E4A5968009140F2FF70002152
:105890001B68CDE9011070211420FFF737FE4FF48B
:1058A0007A70FAF7A1FE012004B0BDE8F0814FF450
:1058B0007840FFF7CFFE0B4B124A596800914FF426
:1058C0007840E4E71F20FFF7C5FE064B0E4A5968F3
:1058D00000911F200021C1E70020CBE760010020DC
:1058E0005801002050010020EC9C00082C9D00086D
:1058F000409D0008509D0008589D0008A09D00088C
:10590000709D0008809D0008909D000870B501689A
:10591000174A88B000239142CDE90333CDE905331E
:10592000079301D008B070BD02F584320193516C29
:10593000104841F480515164516C01F4805101913F
:1059400001990293136B43F002031363136B03F08B
:10595000020302930322052303A938250224029E91
:10596000CDE90354CDE90623FAF7A6FE08B070BDD1
:1059700000300140000402400268064B9A4200D009
:105980007047054A0548536C23F48053536438210B
:10599000FAF772BF003001400038024000040240B4
:1059A0001E4B1F491A6B1F4870B442F004021A6361
:1059B0001A6B1D4D1D4C87B002F004020592059A2A
:1059C0001A6B42F080021A631A6B02F08002049292
:1059D000049A1A6B42F001021A631A6B02F0010278
:1059E0000392039A1A6B42F002021A631A6B02F0D6
:1059F00002020292029A1A6B42F008021A631B6BAF
:105A000003F008030193019E4FF000524FF440331E
:105A1000AA61A361886107B070BC7047003802407A
:105A200000040240000004F70008024000000240A9
:105A300010B586B000230491CDE90133039305939B
:105A400005283CD8DFE800F00D161F2831034FF47D
:105A5000806369461B480093FBF7F2FD012006B006
:105A600010BD0124694618480094FBF7E9FD204663
:105A700006B010BD0223694613480093FBF7E0FD12
:105A8000012006B010BD102369460E480093FBF7B5
:105A9000D7FD012006B010BD2023694609480093B8
:105AA000FBF7CEFD012006B010BD4FF40063694640
:105AB00004480093FBF7C4FD012006B010BD002090
:105AC000CDE700BF000802400004024010B586B0D8
:105AD00000230122CDE90233CDE9043301920A28E3
