:020000040800F2
:1000000000000220812D0008A91C0008AD1C00087A
:10001000B11C0008B51C0008B91C00080000000055
:10002000000000000000000000000000BD1C0008EF
:10003000C11C000800000000C51C0008D12D0008EC
:10004000D12D0008D12D0008D12D0008D12D000898
:10005000D12D0008D12D0008D12D0008D12D000888
:10006000D12D0008D12D0008D12D0008D12D000878
:10007000D12D0008D12D0008D12D0008D12D000868
:10008000D12D0008D12D0008D12D0008000000005E
:10009000000000000000000000000000D12D00085A
:1000A000D12D0008C91C0008D12D0008D12D000851
:1000B000D12D0008D12D0008D12D0008D12D000828
:1000C000D12D0008D12D0008D12D0008D12D000818
:1000D000D12D0008D51C0008D12D0008000000001B
:1000E000D12D0008D12D0008D12D000800000000FE
:1000F000000000000000000000000000D12D0008FA
:1001000000000000D12D0008D12D0008D12D0008DD
:1001100000000000000000000000000000000000DF
:10012000D12D0008D12D0008D12D0008D12D0008B7
:10013000D12D0008000000000000000000000000B9
:10014000000000000000000000000000D12D0008A9
:10015000D12D0008D12D0008D12D0008D91C000890
:10016000D12D0008D12D0008000000000000000083
:10017000000000000000000000000000000000007F
:1001800000000000D12D0008000000000000000069
:08019000D12D0008D12D00085B
:1001A00010B5054C237833B9044B13B10448AFF3B1
:1001B00000800123237010BD8C000020000000008F
:1001C0003436000808B5034B1BB103490348AFF3AD
:1001D000008008BD000000009000002034360008B8
:1001E00053B94AB9002908BF00281CBF4FF0FF319E
:1001F0004FF0FF3000F072B9ADF1080C6DE904CE9C
:1002000000F006F8DDF804E0DDE9022304B07047F1
:100210002DE9F047089E04468846002B4BD18A42C0
:10022000154667D9B2FA82F24AB1C2F1200701FA43
:1002300002F320FA07F7954047EA030894404FEA93
:10024000154E230CB8FBFEF71FFA85FC0EFB178832
:1002500043EA084307FB0CF1994209D9EB1807F16F
:10026000FF3080F01B81994240F21881023F2B44FD
:100270005B1AA4B2B3FBFEF00EFB103344EA034456
:1002800000FB0CFCA44509D92C1900F1FF3380F0C8
:100290000781A44540F2048102382C4440EA07401B
:1002A000A4EB0C0400271EB1D4400023C6E9004390
:1002B0003946BDE8F0878B4209D9002E00F0EB806B
:1002C0000027C6E9000138463946BDE8F087B3FA91
:1002D00083F7002F47D18B4202D3824200F2FA808B
:1002E000841A61EB030301209846002EE0D0C6E992
:1002F0000048DDE702B9FFDEB2FA82F2002A40F0E0
:100300008F80491B4FEA154E1FFA85F80127B1FB74
:10031000FEFC230C0EFB1C1143EA014308FB0CF10D
:10032000994207D9EB180CF1FF3002D2994200F242
:10033000CD808446591AA3B2B1FBFEF00EFB101417
:1003400043EA044408FB00F8A04507D92C1900F142
:10035000FF3302D2A04500F2B6801846A4EB080491
:1003600040EA0C409FE7C7F1200CBB4022FA0CFE8C
:100370004EEA030E01FA07F420FA0CF521FA0CF309
:100380004FEA1E482543B3FBF8F92C0C08FB193340
:100390001FFA8EFA44EA034309FB0AF49C4202FA6C
:1003A00007F200FA07F10BD91EEB030309F1FF3046
:1003B00080F087809C4240F28480A9F10209734456
:1003C0001B1BADB2B3FBF8F008FB103345EA034446
:1003D00000FB0AFAA24508D91EEB040400F1FF3322
:1003E0006BD2A24569D90238744440EA0940A0FBA7
:1003F0000289A4EB0A044C45C2464B4654D351D063
:10040000002E69D0B1EB0A0564EB030404FA0CFC7E
:10041000FD40FC404CEA0505C6E90054002747E7CB
:10042000C2F1200320FA03F7954001FA02F021FA05
:1004300003F34FEA154E3843010CB3FBFEF71FFAE6
:1004400085F80EFB173341EA034107FB08F38B42A3
:1004500004FA02F407D9691807F1FF3C2FD28B4246
:100460002DD9023F2944CB1A81B2B3FBFEF00EFB1B
:10047000103341EA034100FB08F38B4207D96918A6
:1004800000F1FF3C17D28B4215D902382944C91A12
:1004900040EA07473BE73746304609E70746E7E6C5
:1004A0001846FBE64145ABD2B8EB020A69EB0E02F7
:1004B00001381346A4E76046E9E7184695E7674622
:1004C000D1E781467CE702382C4447E7ACF1020CC7
:1004D0002B442FE7384608E73746E9E6704700BF68
:1004E000034613F8012B002AFBD1181A0138704774
:1004F00001F0FF01102A2BDB10F0070F08D010F8D5
:10050000013B013A8B422DD010F0070F42B3F6D1D8
:10051000F0B441EA012141EA014122F007047FF0F1
:1005200000070023F0E80256083C85EA010586EA48
:10053000010685FA47F5A3FA87F586FA47F6A5FA84
:1005400087F68EB9EED1F0BC01F0FF0102F0070290
:1005500032B110F8013B013A83EA010313B1F8D13B
:100560000020704701387047002D06BF354603381C
:10057000073815F0010F07D1013015F4807F02BF55
:10058000013015F4C03F0130F0BC0138704700BFA6
:1005900008B50B4B1A6842F400721A601A6842F4EC
:1005A00080621A601A6842F480721A60032000F0B8
:1005B0002DF8002001F03AFB01F01CFB002008BDE3
:1005C000003C0240034A044B11681B780B44136043
:1005D000704700BF2001002000000020014B186878
:1005E000704700BF2001002038B50446FFF7F6FF32
:1005F000631C054602D0044B1B781C44FFF7EEFF3A
:10060000401BA042FAD338BD00000020074AD3683F
:100610004FF6FF010B40000243F0BF6300F4E060BF
:1006200043F400330343D360704700BF00ED00E0A4
:10063000184BDB68C3F3022330B4C3F10705042D64
:1006400003F1040428BF0425062C19D9033B4FF0FD
:10065000FF349C4022EA04044FF0FF32AA4021EA12
:10066000020101FA03F2224312010028D2B20ADB8E
:1006700000F1604000F5614080F8002330BC704715
:1006800000242346E8E7044B00F00F0003441A76E9
:1006900030BC704700ED00E0FCEC00E0002807DB18
:1006A00000F01F0101234009024A8B4042F820302C
:1006B000704700BF00E100E02DE9F04FDFF8B4C162
:1006C000D1F8008083B08E4600254FF0010902E08A
:1006D0000135102D7ED009FA05F308EA03018B429B
:1006E000F6D1DEF8044024F0100ABAF1020F74D0FB
:1006F0006F000322D0F800B0BA40D24304F00306E2
:1007000002EA0B0BBE400AF1FF3A46EA0B06BAF1C9
:10071000010F066040F28280C668DEF80830324081
:10072000BB401343E700C360D2D54D4A0023019379
:10073000536C43F480435364536C25F0030606F175
:10074000804603F4804306F59C36019305F00302CE
:10075000019BB76892000F23934027EA0303414FA0
:10076000B84211D007F58067B8426AD03E4FB84210
:100770006BD03E4FB8426DD03D4FB8420CBF0427FE
:10078000072707FA02F21343B360DCF80030CA43CC
:10079000E60354BF13400B43CCF80030DCF80430C0
:1007A000A70354BF13400B43CCF80430DCF80830E7
:1007B000E60254BF13400B43CCF80830DCF80C3091
:1007C000A40205F1010554BF13400B43102DCCF8D2
:1007D0000C3080D103B0BDE8F08FEF0800EB870745
:1007E00005F007063A6AB6004FF00F0B0BFA06FB4E
:1007F00022EA0B0ADEF81020B24042EA0A023A620C
:100800006F000322D0F800A0BA40D24304F00306E0
:100810000AEA020ABE4046EA0A060660866806EA56
:10082000020ADEF80C60BE4046EA0A068660D0F88E
:1008300004A0C4F300162AEA0303AE401E43466038
:100840006AE709FA02F213439EE7022707FA02F267
:10085000134399E7032707FA02F2134394E700BF13
:10086000003802400000024000080240000C024034
:1008700000100240003C01402DE9F04F002383B0FE
:10088000DFF814914FF001084FF00F0A4FF0030BFF
:1008900002E00133102B66D008FA03F404EA0105E4
:1008A000AC42F6D123F0030606F1804606F59C36ED
:1008B00003F00302B76892000AFA02FC0CEA070789
:1008C0000197314FB84251D007F58067B8424FD0F9
:1008D0002E4FB8424FD02E4FB84251D02D4FB84274
:1008E00014BF4FF0070E4FF0040E0EFA02F2019FF4
:1008F000974218D1B26822EA0C02B260D9F80020FF
:10090000ED432A40C9F80020D9F804202A40C9F84C
:100910000420D9F808202A40C9F80820D9F80C206A
:100920001540C9F80C505A0005680BFA02F2D24380
:10093000DE08154000EB8606056003F00705376A00
:10094000AD000AFA05F527EA050535628568154008
:100950008560456825EA04044460C4680133224088
:10096000102BC26098D103B0BDE8F08F0022BEE723
:1009700008FA02F2BBE74FF0020E0EFA02F2B6E7F7
:100980000BFA02F2B3E700BF000002400008024089
:10099000000C024000100240003C014002B9090472
:1009A00081617047002800F032812DE9F041036831
:1009B000DD0782B004462FD5AC498A6802F00C02EC
:1009C000042A00F0EA808A6802F00C02082A00F08B
:1009D000E0806368B3F5803F00F0E980B3F5A02FB5
:1009E00000F05481A14D2A6822F480322A602A68DE
:1009F00022F480222A60002B40F0DE80FFF7EEFD1B
:100A0000064605E0FFF7EAFD801B642800F2F2804D
:100A10002B689B03F6D423689F0775D41A0715D556
:100A20006369002B00F0A580914B904D01221A6064
:100A3000FFF7D4FD064605E0FFF7D0FD801B022836
:100A400000F2D8806B6F9B07F6D5236858073BD51B
:100A5000864A136C13F0805340F0DB800193136CD3
:100A600043F080531364136C03F080530193019B94
:100A70000126804D2A68D10540F1AC80A368012B86
:100A800000F0C980052B00F00B81784D2A6F22F011
:100A900001022A672A6F22F004022A67002B40F025
:100AA000BF80FFF79BFD41F28837804606E0FFF7E5
:100AB00095FDA0EB0800B84200F29C802B6F9807D0
:100AC000F5D4002E40F0DC80A269CAB1674DA96858
:100AD00001F00C01082948D0022A674A4FF00001B2
:100AE000116000F0E780FFF779FD2C46054604E031
:100AF000FFF774FD401B02287CD823689B01F7D4C4
:100B0000002002B0BDE8F081584A916811F00C0F46
:100B100024D0916801F00C0108291CD0E368002B57
:100B200000F09280554B514D01221A60FFF756FD9F
:100B3000064604E0FFF752FD801B02285AD82B68B6
:100B40009807F7D52B68226923F0F80343EAC2031C
:100B50002B60236862E752685602DFD4434A12686A
:100B600095074BD5E268012A48D0012002B0BDE8C4
:100B7000F0813F4A3D4D1360FFF730FD064604E02B
:100B8000FFF72CFD801B022834D86B6F9F07F7D42A
:100B90005BE74A6850027FF51CAF344A1268910344
:100BA0007FF53AAF6268002A7FF436AFDDE72F4A5F
:100BB000136843F480331360FFF710FD2B4D064696
:100BC00004E0FFF70BFD801B642813D82B689A0301
:100BD000F7D520E72A6842F480722A60FFF7FEFC0E
:100BE00007462B68DA053FF549AFFFF7F7FCC01B56
:100BF0000228F6D9032002B0BDE8F0811B49206924
:100C00000A6822F0F80242EAC0020A6006E7012000
:100C1000704700262DE7154A136F43F00103136751
:100C2000FFF7DCFC114D804641F2883705E0FFF705
:100C3000D5FCA0EB0800B842DCD82B6F9B07F6D59B
:100C4000002E3FF441AF1BE00C4A084D1360FFF744
:100C5000C5FC064604E0FFF7C1FC801B0228C9D88A
:100C60002B689907F7D42368D8E600BF0038024004
:100C7000800E47420070004060004742000047423B
:100C8000234A136C23F0805313641DE7204B1A682A
:100C900042F480221A601A6842F480321A608BE7AC
:100CA0001B4B1A6F42F004021A671A6F42F00102DE
:100CB0001A67B5E7FFF792FC064604E0FFF78EFCE3
:100CC000801B022896D82B689901F7D4D4E90736FF
:100CD000D4E90902E16A0E4C334343EA8013520817
:100CE00043EA0163013A0B4943EA024301226B6084
:100CF0000A60FFF773FC054605E0FFF76FFC401B39
:100D000002283FF677AF23689A01F6D5F8E600BFD0
:100D10000038024060004742174908B58B6803F06D
:100D20000C03042B1BD0082B17D14A684B6813F413
:100D3000800302F03F0214D149681048C1F38811C2
:100D4000A1FB0001FFF74CFA0B4B5B68C3F30143B7
:100D500001335B00B0FBF3F008BD084808BD08484C
:100D600008BD4B680648C3F38813A3FB00010023AA
:100D7000FFF736FAE8E700BF003802400024F4002D
:100D800000127A0060B1484A136803F00F038B42E7
:100D900008D2CBB21370136803F00F038B4201D05B
:100DA0000120704703682DE9F0419D0714D55C07C9
:100DB00004D53E4CA26842F4E052A2601A0704D562
:100DC0003A4CA26842F46042A260384C8568A2683E
:100DD00022F0F0022A43A260DF0704460D4622D526
:100DE0004268012A56D0931E012B304B1B6858D9FC
:100DF000990725D52D4EB36823F003031343B36041
:100E0000FFF7ECFB41F28837804605E0FFF7E6FB91
:100E1000A0EB0800B84242D8B368626803F00C0344
:100E2000B3EB820FF2D1204A136803F00F03AB42F9
:100E300009D9EBB21370136803F00F03AB4202D071
:100E40000120BDE8F08123685A0706D51749E068FC
:100E50008A6822F4E05202438A601B0711D4FFF72C
:100E60005BFF124B12499B68124AC3F30313CB5C1E
:100E700020FA03F30020136000F0D8FE0020BDE844
:100E8000F0810A4A2169936823F4604343EAC1036D
:100E90009360E4E7054B1B689E03ABD4D0E70320C7
:100EA000EDE79801A6D4CBE7003C024000380240B1
:100EB0004C3600080C000020044B054A9B6805498D
:100EC000C3F342330868D35CD8407047003802400F
:100ED0005C3600080C0000200E4B0F2202609A685E
:100EE00002F0030242609A6802F0F00282609A689F
:100EF00002F4E052C2609B68DB0810B403F4E053D4
:100F0000054C036123685DF8044B03F00F030B608D
:100F1000704700BF00380240003C0240F0B5044674
:100F2000006810F0050F83B00AD1850744D410F093
:100F3000080003D0494B227D1A60002003B0F0BDA9
:100F4000474B484D00221A60FFF748FB064604E075
:100F5000FFF744FB801B02282BD82B681B01F7D41A
:100F6000D4E9020361683E4A1B0743EA80130B433E
:100F70000121C5F884301160FFF730FB394D06467A
:100F800004E0FFF72BFB801B022812D82B681F01FF
:100F9000F7D52068C9E70D46FFF720FB41F28836F8
:100FA00007462B6F9B073AD4FFF718FBC01BB042D4
:100FB000F7D9032003B0F0BD2A4B2B4D002201923C
:100FC0001A6C42F080521A641B6C03F08053019338
:100FD000019B2B6843F480732B60FFF7FFFA0646F2
:100FE00004E0FFF7FBFA801B0228E2D82B68D90542
:100FF000F7D51C4923690A6F12F4407203F440705C
:1010000010D082420ED00B6F184A23F44073012592
:101010000020156010600B670B6FDA07BBD42369E3
:1010200003F44070B0F5407F0CD00E498A6822F47A
:10103000F8128A600B4A116FC3F30B030B4313675B
:10104000206874E70748826823F0704122F4F812A0
:1010500021F440710A438260ECE700BFE01147428F
:10106000680047420038024000700040400E47428E
:1010700000283BD090F85120002370B502F0FF010A
:101080000446836262B31846D4E90135D4E90321EA
:101090002B4313436269E569266A0B431343A26934
:1010A00021682B43022584F85150334302F4007524
:1010B0000E682B43120C656A02F0040203432A43B4
:1010C00026F040060E600B604A60CB69002223F4D4
:1010D00000630125CB611046626584F8515070BDF4
:1010E00080F8501001F0F0FAA06ACDE701207047B7
:1010F00090B10268022310B580F85130136823F0D4
:1011000040030446136001F015FB0020606584F87D
:10111000500084F8510010BD012070472DE9F041C6
:1011200090F85040012C82B05ED01F46012380F819
:101130005030044616460D46FFF750FA804694F8A4
:101140005100C0B2012809D002200122002384F8F6
:10115000512084F8503002B0BDE8F081002DF4D069
:10116000002EF2D0A268256300230321B2F5004FC0
:1011700084F85110A6866365A363E686A387C4E955
:101180001033E387206803D1036843F4804303608E
:1011900003685B062CD5E3686268B3F5006F45D041
:1011A000002A6ED12B780373E38E226B2068013BFB
:1011B0009BB20132E38622637E1C0BD028E0236BB6
:1011C0001B780373E38E226B013B9BB20132E386F3
:1011D00022632068E38E9BB2002B40D083689D077A
:1011E000EDD4FFF7FBF9F4E7022002B0BDE8F0818F
:1011F000036843F040030360CDE7236B1B78037360
:10120000E38E226B013B9BB20132E38622632068AE
:10121000E38E9BB21BB383689B07EED4FFF7DEF926
:10122000A0EB0800B842F2D303208EE7002A77D063
:10123000012E75D0791C5AD1E38E9BB27BB18368A5
:101240009A0769D5226B32F8023BC360E38E2263B2
:10125000013B9BB2E386E38E9BB2002BEFD1791C5E
:1012600012D183681A06FCD4A3682BB90193C36812
:10127000019383680193019B606D003018BF0120CA
:1012800063E7012E98D18DE783681B06ECD5FFF745
:10129000A5F9A0EB080087422068E0D861684268A1
:1012A000A36822F0E002B1F5827F426041D0A26AD9
:1012B000B2F5005F07D1026822F4005202600268B2
:1012C00042F400520260012284F85120626D002530
:1012D00042F020022021626584F850506165C4E725
:1012E000FFF77CF9A0EB0800B8429DD22068E38E9E
:1012F0009BB2002BB3D083689D07F1D5226B32F8E7
:10130000023BC360E38E2263013B9BB2E386E38E24
:101310009BB2002BEFD1A2E7FFF760F920688BE7C3
:1013200035F8023BC360E38E2563013B9BB2E38645
:1013300080E7B3F5004F02D0B3F5806FB7D10268F4
:1013400022F040020260B2E7704700BF002846D09A
:10135000F8B590F83D30044603F0FF0233B322683D
:10136000284DA669E0686168022384F83D30AA42EE
:10137000136836D0B2F1804F1DD0A5F57C45AA4246
:1013800019D005F58065AA4215D005F58065AA42F9
:1013900011D005F59A35AA4211D005F58065AA420B
:1013A0000DD005F58065AA420DD108E080F83C20FB
:1013B000FFF7CAFFD3E7A56823F070032B43256925
:1013C00023F440732B4323F0800333431360D06234
:1013D000916201235361002084F83D30F8BD012063
:1013E0007047A768256923F070033B4323F44073DB
:1013F0002B4323F0800333431360D062916263690F
:101400001363E6E7000001400368DA6842F0010276
:10141000DA609A6802F00702062A03D01A6842F0DE
:1014200001021A6000207047704700BF704700BF7C
:10143000704700BF704700BF03681A69910710B575
:10144000044602D5DA6892075FD41A69500702D5BC
:10145000DA68510746D41A69120702D5DA6810070C
:101460002ED41A69D20602D5DA68D00618D41A69C1
:10147000D10702D5DA68D2075DD41A69100602D501
:10148000DA6811065FD41A69520602D5DA68500686
:1014900061D41A69910602D5DA68920643D410BD68
:1014A0006FF010021A61DB69082213F4407F227783
:1014B000204664D0FFF7BAFF002223682277D6E7E0
:1014C0006FF008021A61DB6904229907227720462F
:1014D00052D1FFF7A9FF2046FFF7AAFF0022236899
:1014E0002277BEE76FF004021A619B69022213F4AF
:1014F000407F227720463CD1FFF796FF2046FFF73A
:1015000097FF002223682277A5E76FF002021A6195
:101510009B6901229B07027725D0FFF787FF0022F6
:101520002368227791E76FF0200220461A61BDE818
:10153000104000F02BB86FF001021A61204600F055
:101540004DFB236899E76FF080021A61204600F096
:101550001FF8236897E76FF040021A612046FFF7F3
:1015600069FF236895E7FFF75FFF2046FFF760FFFD
:10157000D5E7FFF75BFFC4E7FFF758FFAEE7FFF7DC
:1015800053FF2046FFF754FF96E700BF704700BFA8
:10159000704700BF01790368C9B1B3B14279012A2C
:1015A00036D021D3022A38D1244A11681943116058
:1015B0005168194351600021827932B3022A38D030
:1015C000032A1BD0012A2AD00123184670471B4A40
:1015D00010B41468DB431C40146050685DF8044B81
:1015E0001840506008467047144A516821EA0301C8
:1015F00051601168194311600021DDE70F4A9068BE
:1016000018439060D0680343D3600B461846704778
:101610000A4A116821EA0301C9E70121CCE7074A18
:10162000D06820EA0300D0609068034393600B46C3
:10163000CBE7024A906820EA0300E2E7003C014061
:101640002DE9F04F0C6894FAA4F24E68B2FA82F2D7
:1016500034FA02F306F1FF3E79D04FF0010C032774
:101660004FF00F0803E0013234FA02F36FD00CFAA6
:1016700002F32340F7D0D0F8009093FAA3FABAFA15
:101680008AFA93FAA3F5B5FA85F54FEA4A0A6D008E
:1016900007FA0AFA06FA05F529EA0A0949EA0505E8
:1016A000BEF1010F056016D8856893FAA3F9B9FA5F
:1016B00089F993FAA3FA4FEA490907FA09F925EAE1
:1016C0000909BAFA8AFA8D684FEA4A0A05FA0AF550
:1016D00049EA05058560C56893FAA3F9B9FA89F95D
:1016E00093FAA3FA4FEA490907FA09F925EA090921
:1016F000BAFA8AFA0D694FEA4A0A05FA0AF549EA7E
:101700000505022EC560AED193FAA3FABAFA8AFA99
:10171000BAF1070F4FEA1325D1F8149025DC056ABA
:1017200093FAA3FABAFA8AFA93FAA3F3B3FA83F311
:101730004FEA8A0A9B0008FA0AFA09FA03F325EA33
:101740000A052B430132036234FA02F38FD1BEF152
:10175000010F07D8CA68436802FB04F223EA0404B5
:10176000144344600020BDE8F08FD0F824A095FA1F
:10177000A5FBBBFA8BFB95FAA5F3B3FA83F34FEA0B
:101780008B0B9B0008FA0BFB09FA03F32AEA0B0AFE
:101790004AEA0303436266E71F4A936803F00C03B7
:1017A000042BF0B436D0082B19D01C4B1A4A036016
:1017B00091681B4D1B4CC1F30311695CCB40436026
:1017C0009168C1F38221615C23FA01F18160926822
:1017D000C2F34232A25CD340C360F0BC704756688B
:1017E000556853685168104C0C4FC1F30141C3F365
:1017F000881206F480060131002E14BF23463B46B2
:10180000490005F03F04B3FBF4F302FB03F3B3FB21
:10181000F1F3CBE7044BC9E7003802400024F400A1
:101820004C3600085C36000800127A00C3689B043E
:1018300001D50120704730B54B6804460D46D1E90B
:101840000310E2680B43A969034322F416420B43D9
:1018500022F00C021343E3602269AB68696922F449
:1018600040521A432261636923F440730B4385B0ED
:1018700063616846FFF790FF264B9C422BD0264BB6
:101880009C4205D0254B9C4225D0012005B030BD9F
:10189000029B002BF9D02A68002AF6D0A96903EB35
:1018A0008303B1F5004F03EB830316D01C4992006C
:1018B000B3FBF2F3A1FB03025209642000FB1233D5
:1018C0001B013233A1FB0331130103EB51139BB214
:1018D000A3600020DAE7039BDBE711485200B3FB6B
:1018E000F2F3A0FB03125109642202FB1133DB0067
:1018F0003233A0FB0323C3F34F1303F007025B0053
:1019000002EB011203F4F87313449BB2A3600020AE
:10191000BCE700BF0010014000440040001401403B
:101920001F85EB5180B5574D574E00F013F9032139
:10193000002001F01FF90FCD34460FC40FCD0FC4A6
:101940002B682370304601F0FDF9002000F0AAFD5D
:1019500086F8640038B102464C49304601F064FA1A
:10196000304601F0EFF94A4F4A4C002000F0DAFD12
:10197000A7F1040831E0032001F03EF800280CBF75
:1019800001230023237066D0002001F035F80028E1
:101990000CBF0123002323704AD0012001F02CF852
:1019A000B0F100090CBF01230023237030D04FF4A5
:1019B000FA70FEF719FE0121022001F049F84FF4F8
:1019C000FA70FEF711FE0021022001F041F8637861
:1019D000013BDBB26370002B4DD0022001F00CF80C
:1019E00000280CBF012300232370C4D12A4E264DAA
:1019F0000FCE0FC50FCE0FC5336828461A0C20F83E
:101A000020393A7001F09EF9012000F08BFDB2E719
:101A1000224D1D4E0FCD0FC60FCD0FC630462B6881
:101A200000F8203901F08EF9042000F07BFDBEE7BC
:101A30001B4E154D0FCE0FC596E80F0007C5284663
:101A40001A0C20F81C3988F8002001F07BF90320DB
:101A500000F068FDA1E7134E0B4D0FCE0FC596E8C1
:101A60000F0085E80F00A5F1100001F06BF90220CE
:101A700000F058FD88E70F230020637000F052FD4E
:101A8000ABE700BFC45E0008A8000020E85E0008C5
:101A9000CA00002008000020045F0008685F0008FA
:101AA000485F0008285F000830B500249BB0CDE9EE
:101AB0001144CDE90444CDE90644CDE90944CDE91A
:101AC0000B44224A01941394039408940D94116CCE
:101AD0001F4B41F080511164126C02F08052019250
:101AE000019A02941A6842F440421A601B6803F497
:101AF0004043029305214FF48033012202250298CE
:101B00000E910F934FF48001042310920EA85422DB
:101B1000CDE91451CDE91632CDE91853FEF742FF55
:101B20000F2229464FF4805303A803920693CDE970
:101B300004540794FFF726F94FF4807308A808951A
:101B40000C93FFF7EBF91BB030BD00BF003802402B
:101B50000070004008B5FEF71BFDFFF7A5FF00F081
:101B6000FDFD0121002000F041FE0121084600F0AA
:101B70003DFE0121022000F039FE0121032000F08A
:101B800035FE0121042000F031FE0021052000F087
:101B90002DFE002000F078FE012000F075FE0220EE
:101BA00000F072FE032000F06FFE042000F06CFED7
:101BB000052000F069FE062000F066FE072000F018
:101BC00063FE082000F060FE092000F05DFE0A20A0
:101BD00000F05AFEBDE8084000F0D2BE0268034B98
:101BE0009A4200D07047FEF7EDBC00BF00000140F4
:101BF000704700BF82B00C4B002100915A6C42F438
:101C000080425A645A6C02F480420092009A019118
:101C10001A6C42F080521A641B6C03F080530193DB
:101C2000019B02B0704700BF0038024030B501464A
:101C300089B000221920FEF7FBFC1920FEF72EFDCB
:101C40000025154B02955A6C144C42F001025A645F
:101C50005B6C03F0010301A9029303A8029BFFF749
:101C60003BF9FFF729F90E4B0E492561A3FB002331
:101C70009B0C013B40F2E7322046C4E9013521606C
:101C8000E260FFF763FB10B1012009B030BD2046D0
:101C9000FFF7BAFB09B030BD003802402401002034
:101CA00083DE1B4300000140704700BFFEE700BF1A
:101CB000FEE700BFFEE700BFFEE700BF704700BFC2
:101CC000704700BF704700BF0148FFF7B5BB00BFBA
:101CD00024010020704700BF704700BF0C4A08B5C0
:101CE000136833B118446946884208D81060184612
:101CF00008BD084B1360184469468842F6D901F0C4
:101D000069F80C2303604FF0FF33184608BD00BF8D
:101D100010010020C00100201049114BD1F888208B
:101D200042F4700210B4C1F888201A680D4C0020EB
:101D300042F001021A6098601A6822F0847222F45C
:101D400080321A605C601A684FF0006422F48022CE
:101D50001A60D8608C605DF8044B704700ED00E0BD
:101D600000380240103000242DE9F04F83B002AF5C
:101D70002A242A4D07F8054D294C4FF0004683468A
:101D80008946924698463946A66128464FF0FF3369
:101D90000122FFF7C3F94FF400474FEA1B224FEA35
:101DA0001A238DF804208DF806308DF805B08DF8D3
:101DB00007A001A92846A7614FF0FF330422FFF7CF
:101DC000ADF902A92B2301F8063D2846A6614FF084
:101DD000FF330122FFF7A2F94FEA19224FEA182335
:101DE0008DF804208DF806308DF805908DF8078069
:101DF00001A9A76128464FF0FF330422FFF78EF9AF
:101E00002C238DF8043001A928464FF0FF33A6613A
:101E10000122FFF783F903B0BDE8F08F64010020D1
:101E200000040240024B4FF480429A61704700BFA9
:101E3000000402402DE9F04FDE4CDF4FDF4DDFF8AC
:101E400080934FF080424FF000538BB0A261052089
:101E5000BB61FEF7C9FB0AA94FF400530126BB6121
:101E60004FF0004701F8116D32464FF0FF33A76184
:101E70002846FFF753F94FF47A70FEF7B5FB0AA92D
:101E8000CB2301F8123D3246A76128464FF0FF33BD
:101E9000FFF744F999E803004FF4004806908DF8E5
:101EA0001C10284606A9C4F818804FF0FF330522FD
:101EB000FFF734F90AA9CF2301F8133D3246A76191
:101EC00028464FF0FF33FFF729F9D9F80830ADF86D
:101ED00018301B0C8DF81A3006A9C4F81880284653
:101EE0004FF0FF330322FFF719F90AA9E82301F89D
:101EF000143D3246A76128464FF0FF33FFF70EF935
:101F0000D9F80C30ADF818301B0C8DF81A3006A932
:101F1000C4F8188028464FF0FF330322FFF7FEF87D
:101F20000AA9EA2301F8153D32464FF0000BA761DC
:101F300028464FF0FF33FFF7F1F8ADF818B006A9C7
:101F4000C4F8188028464FF0FF330222FFF7E6F866
:101F50000AA9ED2301F8163D3246A76128464FF045
:101F6000FF33FFF7DBF8D9F81030069306A9C4F861
:101F7000188028464FF0FF330422FFF7CFF80AA954
:101F8000F72301F8173D3246A76128464FF0FF338B
:101F9000FFF7C4F820238DF81830324606A9C4F89C
:101FA000188028464FF0FF33FFF7B8F80AA9C0237E
:101FB00001F8183D3246A76128464FF0FF33FFF77E
:101FC000ADF823238DF81830324606A9C4F81880DE
:101FD00028464FF0FF33FFF7A1F80AA9C12301F803
:101FE000193D3246A76128464FF0FF33FFF796F8B8
:101FF00010238DF81830324606A9C4F818802846F8
:102000004FF0FF33FFF78AF80AA9C52301F81A3DFC
:102010003246A76128464FF0FF33FFF77FF8B9F843
:102020001430ADF8183006A9C4F8188028464FF0CF
:10203000FF330222FFF772F80AA9C72301F81B3DFC
:102040003246A76128464FF0FF33FFF767F8862333
:102050008DF81830324606A9C4F8188028464FF08B
:10206000FF33FFF75BF80AA94FF0360A01F81CAD01
:102070003246A76128464FF0FF33FFF74FF84FF085
:1020800048038DF81830324606A9C4F8188028464F
:102090004FF0FF33FFF742F80AA93A2301F81D3D3C
:1020A0003246A76128464FF0FF33FFF737F8552334
:1020B0008DF81830324606A9C4F8188028464FF02B
:1020C000FF33FFF72BF80AA9B12301F81E3D324672
:1020D000A76128464FF0FF33FFF720F84FF4C053B5
:1020E000ADF8183006A9C4F8188028464FF0FF3321
:1020F0000222FFF713F80AA9B62301F81F3D324662
:10210000A76128464FF0FF33FFF708F8D9F81830D9
:10211000ADF818301B0C8DF81A3006A9C4F81880D9
:1021200028464FF0FF330322FEF7F8FF0AA9F223F7
:1021300001F8203D3246A76128464FF0FF33FEF7F5
:10214000EDFF8DF818B0324606A9C4F8188028466D
:102150004FF0FF33FEF7E2FF0AA9262301F8213DE5
:102160003246A76128464FF0FF33FEF7D7FF8DF8C0
:102170001860324606A9C4F8188028464FF0FF338D
:10218000FEF7CCFF0AA9E02301F8223D3246A76101
:1021900028464FF0FF33FEF7C1FF09F11C030FCBB8
:1021A0000DF1180CACE807002CF8023B1B0C8CF866
:1021B000003007E0000402400008024064010020F3
:1021C000785E000806A9C4F8188028464FF0FF334F
:1021D0000F22FEF7A3FF0AA9E12301F8233D3246AF
:1021E000A76128464FF0FF3309F12C09FEF796FF4F
:1021F00099E80F000DF1180CACE807002CF8023B31
:102200001B0C8CF8003006A9C4F8188028464FF043
:10221000FF330F22FEF782FF112306A98DF8183035
:1022200032464FF0FF33A7612846FEF777FF78204C
:10223000FEF7DAF90AA9292301F8243D3246A761FD
:1022400028464FF0FF33FEF769FF0AA9324601F82E
:1022500025AD2846A7614FF0FF33FEF75FFF0AA9BF
:102260004FF0480301F8283D32462846C4F818804C
:102270004FF0FF33FEF752FF4FF48043A3610BB0E2
:10228000BDE8F08FEF2803D8B1F5A07F0B4600D34F
:102290007047F0B5104E044601344FF080470133CB
:1022A00083B015469BB2A2B2B761FFF75DFD2B0A62
:1022B0004FF400428DF804308DF805504FF0FF3395
:1022C000B26101A902220548FEF728FF4FF48043BE
:1022D000B36103B0F0BD00BF000402406401002000
:1022E00082B02DE9F04F8BB04FF08045BDF85C40D7
:1022F000BDF860B0029426460492494C1593320A08
:1023000000925FFA83F84FEA1B22C3F30723CDE95B
:1023100005010192A146A5610793049B13F8015B97
:102320000493002D6DD0059B079903EB0802EF2A5B
:102330008BB26FDD069A1A4492B206920A44B2F545
:10234000A07F5EDA202D67D0002000EB08020699FE
:10235000169C92B2013B05920B44013A92B29BB299
:10236000FFF702FD079A002AD7D0A5F1200302FB50
:1023700003F3B8F1000FD0D003F1004A1344A21EBA
:102380000AF1FF3A02EB4303264D039304EB4A0A9A
:102390003AF8027F00240EE0009E8DF82460029E31
:1023A0008DF825604FF40046C9F818600134FEF737
:1023B000B5FE44451CD007FA04F313F4004F4FF068
:1023C00002024FF0FF3309A92846E5D1019B8DF8A1
:1023D00024304FF400428DF825B04FF0FF33C9F898
:1023E000182009A902220134FEF798FE4445E2D1E3
:1023F000039B5345CCD1049B13F8015B0493002D40
:1024000091D1074B4FF480429A610BB0BDE8F04F79
:1024100002B07047059898E7002305937DE700BF59
:10242000000402406401002070B5184E184D0021D0
:102430004FF0804382B00446B361084640F23F1338
:10244000EF22FFF791FC3046230A01224FF40041AE
:102450008DF805408DF804304FF4A076FEF79EFA13
:10246000F024013C4FF0FF33022201A92846A4B218
:10247000FEF754FE002CF4D1013EB6B2002EEFD18F
:10248000024B4FF480429A6102B070BD00040240DA
:102490006401002001224FF480610148FEF77EBAFA
:1024A0000000024038B598BB1C4C1D4DA0604FF495
:1024B00082714FF400720A23C4E903006061C4E929
:1024C0000700C4E909002046C4E90051A261E362A3
:1024D000FEF7CEFDF8B94FF4FA70FEF785F8FFF776
:1024E000A1FCFFF7D7FFFFF7A5FC0C48FEF700FEA5
:1024F0000023C51A0948E36118BF0125FEF7B8FD9E
:1025000020B90020FFF790FF284638BD0235F8E7D4
:102510000A25284638BDFFF76BFBDCE76401002085
:10252000003001402DE9F04184B0042800F2B18070
:10253000DFE800F0038D99A574000024A5B22846B9
:102540004FF478420021FFF79DFE013428464FF4F6
:10255000784240F23F11FFF795FEF02CEED10024B7
:10256000A5B229464FF478420020FFF78BFE0134D4
:1025700029464FF47842EF20FFF784FEB4F5A07FA0
:10258000EED14FF4FA70FEF72FF80020FFF74CFF62
:10259000414B424D5A68009200244FF478421B6828
:1025A0003F4ECDE901240A213E4A1420FFF798FE50
:1025B0006B6800934FF4FC6702942B683A4A0197CA
:1025C0003C210A20FFF78CFE4FF01F087368009330
:1025D00002943368CDF80480344A70211420FFF748
:1025E0007FFE73680093324A33689421CDE90184F9
:1025F0005020FFF775FE4FF47A70FDF7F5FF6B681A
:102600000093CDE901742B4A2B684FF4807114209C
:10261000FFF766FE012004B0BDE8F0810020FFF75F
:1026200003FF1F4B244A5968009100204FF6FF71A9
:102630001B68CDE9011070211420FFF751FE4FF403
:102640007A70FDF7D1FF012004B0BDE8F08140F2BF
:10265000FF70FFF7E9FE124B184A5968009140F2EB
:10266000FF700021E4E74FF47840FFF7DDFE0C4BEC
:10267000134A596800914FF478400021D8E71F2091
:10268000FFF7D2FE064B0F4A596800911F20002128
:10269000CEE70020D8E700BF20000020180000206F
:1026A000100000208C5F0008CC5F0008E05F00088D
:1026B000F05F0008F85F0008406000081060000844
:1026C000206000083060000870B50168174A88B0C3
:1026D00000239142CDE90333CDE90533079301D0BF
:1026E00008B070BD02F584320193516C104841F47A
:1026F00080515164516C01F4805101910199029310
:10270000136B43F002031363136B03F00203029392
:102710000322052303A938250224029ECDE9035490
:10272000CDE90623FDF7C8FF08B070BD00300140B9
:10273000000402400268064B9A4200D07047054AE6
:102740000548536C23F4805353643821FEF794B842
:102750000030014000380240000402401E4B1F4977
:102760001A6B1F4870B442F004021A631A6B1D4DB5
:102770001D4C87B002F004020592059A1A6B42F0D4
:1027800080021A631A6B02F080020492049A1A6B98
:1027900042F001021A631A6B02F001020392039ADB
:1027A0001A6B42F002021A631A6B02F002020292E2
:1027B000029A1A6B42F008021A631B6B03F00803BB
:1027C0000193019E4FF000524FF44033AA61A36180
:1027D000886107B070BC70470038024000040240B6
:1027E000000004F7000802400000024010B586B067
:1027F00000230491CDE901330393059305283CD8C8
:10280000DFE800F00D161F2831034FF4806369469E
:102810001B480093FEF714FF012006B010BD0124F1
:10282000694618480094FEF70BFF204606B010BD1D
:102830000223694613480093FEF702FF012006B009
:1028400010BD102369460E480093FEF7F9FE0120E3
:1028500006B010BD2023694609480093FEF7F0FE3C
:10286000012006B010BD4FF4006369460448009390
:10287000FEF7E6FE012006B010BD0020CDE700BF48
:10288000000802400004024010B586B00023012277
:10289000CDE90233CDE9043301920A2868D8DFE894
:1028A00000F010182028313A434C555E06004FF4D2
:1028B000005369462F480093FEF7C2FE012006B080
:1028C00010BD012469462C480094FEF7B9FE20464D
:1028D000F5E70223694628480093FEF7B1FE012080
:1028E000EDE70423694625480093FEF7A9FE012081
:1028F000E5E74FF48073694620480093FEF7A0FE99
:102900000120DCE74FF4007369461C480093FEF792
:1029100097FE0120D3E74FF4806369461748009380
:10292000FEF78EFE0120CAE74FF4005369461348B4
:102930000093FEF785FE0120C1E74FF480536946FE
:102940000E480093FEF77CFE0120B8E74FF4804369
:1029500069460A480093FEF773FE0120AFE74FF483
:102960000043694605480093FEF76AFE0120A6E78A
:102970000020A4E7000802400000024000040240DA
:1029800010B582B000231A4A019353694FF4704185
:1029900023F4704391FAA1F10121536168460223A7
:1029A0004FF400448DF804108DF806300094FEF7C3
:1029B000F1FD104AD06894FAA4F3B3FA83F303212B
:1029C0005B0001FA03F320EA030394FAA4F0D36056
:1029D000106894FAA4F3B3FA83F35B0001FA03F3EB
:1029E00020EA030394FAA4F4136002B010BD00BF00
:1029F0000038014000000240052822D8DFE800F03E
:102A0000080D12171C03104B1869C0F38020704783
:102A10000E4B186900F0010070470C4B1869C0F3A9
:102A200040007047084B1869C0F300107047064B10
:102A30001869C0F340107047034B1869C0F3C020F9
:102A400070470120704700BF0008024000040240A8
:102A50000A2800F28680DFE800F00E141B222A32DA
:102A60003A4249500600404B002933D14FF0005202
:102A70009A61012070473D4B00296DD0012098617B
:102A800070473A4B002962D002229A6101207047B8
:102A9000374B002956D004229A6101207047344BED
:102AA00000294AD04FF480729A6101207047304B60
:102AB00000293DD04FF400729A61012070472C4BE1
:102AC000002930D04FF480629A6101207047284B72
:102AD0000029CBD04FF400529A6101207047244B5B
:102AE000E1B14FF480529A6101207047204B81B1CF
:102AF0004FF480429A61012070471D4B21B14FF481
:102B000000429A61012070474FF000429A61012013
:102B100070474FF080429A61012070474FF0805219
:102B20009A61012070474FF080629A6101207047DE
:102B30004FF000729A61012070474FF080729A61E5
:102B4000012070474FF480229A61012070474FF4B2
:102B500000329A61012070474FF480329A6101205F
:102B600070470020704700BF00080240000002408C
:102B700000040240F0B5032993B0074618D8694B0A
:102B800053F8216000250024012FCDE90B44CDE945
:102B90000D44CDE90F441194CDE90544CDE9074436
:102BA000CDE9094461D03FB10125284613B0F0BDFD
:102BB0004FF4E1360125E6E75B4B5C485A6C42F086
:102BC00020025A645A6C02F020020492049A1A6B92
:102BD00042F004021A631B6B03F004030393C02347
:102BE00005930222032305A90692079301220823D5
:102BF000CDE90923039C4E4CFEF722FD4D4BDB68CB
:102C0000C3F30223C3F10702191D042A28BF0422BB
:102C1000062988BFDF1E4FF0FF339340DB4303F0EC
:102C20000503BB40444A1B01DBB2802082F84733D6
:102C30000BA9906000230C222046CDE90B63CDE95F
:102C40000D33CDE910330F92FEF7F0FD236923F425
:102C500090432361636923F02A036361E368284694
:102C600043F40053E36013B0F0BD2F4B33485A6C6C
:102C700042F010025A645A6C02F010020292029A58
:102C80001A6B42F001021A631B6B099703F00103F0
:102C900001934FF4C06305A903220593022707237C
:102CA000CDE90672DDF804C00A93FEF7C9FC214B9A
:102CB000234FDA68C2F30222C2F10701131D04296F
:102CC00028BF0421062B4FF0FF3303FA01F36FEA0C
:102CD000030388BFD41E03F0050303FA04F42401A0
:102CE000154BE4B2202283F825430BA95A603846DD
:102CF00000230C22CDE90B63CDE90D33CDE9103370
:102D00000F92FEF793FD3B6923F490433B617B698F
:102D100023F02A037B61FB68284643F40053FB60E1
:102D200013B0F0BDB45E0008003802400008024055
:102D30000014014000ED00E000E100E0000002406E
:102D40000010014070B5064605463046FDF7C8FB49
:102D5000AB1B9842094C0BD923681A06FCD515F811
:102D6000013B63603046FDF7BBFBAB1B9842F3D8D9
:102D7000024A13685B06FCD570BD00BF0014014019
:102D8000DFF834D0002103E00C4B5B584350043192
:102D90000B480C4B42189A42F6D30B4A02E0002330
:102DA00042F8043B094B9A42F9D3FEF7B5FF00F015
:102DB00017F8FEF7B7FD7047000002209460000886
:102DC000000000208C0000208C000020C0010020AA
:102DD000FEE70000014B1868704700BF2800002084
:102DE00070B50D4E0D4CA41BA4100025A54209D1B1
:102DF0000B4E0C4C00F01EFCA41BA4100025A54299
:102E000005D170BD56F8253098470135EEE756F8E4
:102E1000253098470135F2E78C6000088C60000887
:102E20008C600008906000080EB400B59CB01DAB2B
:102E3000029006906FF000410948079104910949FA
:102E400053F8042B05910068019302A900F066F87D
:102E5000029B00221A701CB05DF804EB03B07047AF
:102E6000280000200802FFFF2DE9F0478E689E42EF
:102E700082460C469046994637D88A8912F4906F5C
:102E800031D0256809696F1A6569022305EB45058C
:102E900095FBF3F509F101033B449D4238BF1D4604
:102EA000530530D5294600F02BFB064650B90C23BC
:102EB000CAF80030A38943F04003A3814FF0FF30EC
:102EC000BDE8F0873A46216900F0A8FAA38923F407
:102ED000906343F08003A381266165613E44ED1B4E
:102EE0002660A5604E464E4500D94E4632464146C4
:102EF000206800F09EFAA3689B1BA36023681E4411
:102F000026600020DCE72A4600F054FB0646002835
:102F1000E2D12169504600F0A5FAC8E72DE9F04F4B
:102F20001D468B891F069DB080460C4616460FD560
:102F30000B696BB9402100F0E3FA2060206128B9E9
:102F40000C23C8F800304FF0FF30C8E04023636125
:102F50000023099320238DF8293030238DF82A305F
:102F600003954FF0010B37463D4615F8013B0BB179
:102F7000252B3ED1B7EB060A0BD0534632462146ED
:102F80004046FFF771FF013000F0A480099B5344D5
:102F900009933B78002B00F09D8000234FF0FF3217
:102FA000CDE90523049307938DF853301A932F46E8
:102FB000052217F8011B5048FDF79AFA049BD0B977
:102FC000D90644BF20228DF853201A0744BF2B2274
:102FD0008DF853202A782A2A15D0079A2F460020E8
:102FE0000A25394611F8013B303B092B4DD9B8B1C0
:102FF0000FE02F46B8E7404A801A0BFA00F018435A
:1030000004903D46D3E7039A111D12680391002AEC
:1030100001DB079204E0524243F00203079204935B
:103020003B782E2B0CD17B782A2B33D1039B1A1D96
:103030001B680392002BB8BF4FF0FF330237059394
:103040002E4D397803222846FDF752FA38B1402335
:10305000401B03FA00F0049B0343013704933978C3
:1030600027488DF8281006227E1CFDF741FA00281B
:1030700038D0244B13BB039B073323F007030833DB
:103080000393099B4B4409936DE705FB0232012032
:103090000F46A6E700230137059319460A2538464F
:1030A00010F8012B303A092A03D9002BC8D005911A
:1030B000C6E705FB012101230746F0E703AB0093B8
:1030C0002246114B04A94046AFF30080B0F1FF3F08
:1030D0008146D6D1A3895B063FF535AF09981DB06F
:1030E000BDE8F08F03AB00932246074B04A940468E
:1030F00000F082F8EAE700BF506000085660000860
:103100005A60000800000000692E00082DE9F04711
:1031100091461F468A680B69DDF820809342B8BF4C
:103120001346C9F8003091F8432006460C4612B108
:103130000133C9F800302368990642BFD9F800303E
:103140000233C9F80030256815F0060507D104F1EF
:10315000190AE368D9F800209B1AAB4228DC94F8DE
:1031600043302268003318BF012392062DD404F1A6
:10317000430239463046C047013020D02368E56815
:10318000D9F8002003F00603042B08BFAD1AA3688A
:1031900022690CBF25EAE57500259342C4BF9B1A3E
:1031A000ED184FF000091A344D451AD1002008E0FF
:1031B0000123524639463046C047013003D14FF013
:1031C000FF30BDE8F0870135C3E7E1185A1C302015
:1031D00081F84300224494F8451082F843100233EA
:1031E000C5E70123224639463046C0470130E6D0C4
:1031F00009F10109D8E700002DE9F04301F1430C82
:103200000C46097E85B06E291746064698460C9AEC
:1032100000F0B38022D8632936D00AD8002900F004
:10322000B980582900F0838004F1420584F84210E7
:1032300032E0642901D06929F6D1206813680506B7
:1032400003F104012AD51B681160002B03DA2D223B
:103250005B4284F843206F480A2239E0732900F06A
:103260009D8008D86F2920D07029DDD1236843F0D4
:103270002003236003E0752917D07829D4D178235F
:1032800084F84530644855E01368191D1B681160C7
:1032900004F1420584F8423001238CE01B68116080
:1032A00010F0400F18BF1BB2CFE713682568181D38
:1032B0001060280601D51B6802E06806FBD51B8854
:1032C00054486F2914BF0A220822002184F84310B1
:1032D0006568A560002DC0F29580216821F0040189
:1032E0002160002B3DD1002D40F08E806546082ADC
:1032F0000BD12368DB0708D5236962689A42DEBFD9
:10330000302305F8013C05F1FF35ACEB05032361E3
:10331000CDF800803B4603AA21463046FFF7F6FE73
:1033200001304DD14FF0FF3005B0BDE8F083394892
:1033300084F84510136821681D1D1B6815600A0676
:103340000BD5CA0744BF41F0200121601BB9226898
:1033500022F0200222601022B7E74D0648BF9BB240
:10336000EFE76546B3FBF2F102FB1133C35C05F8EE
:10337000013D0B460029F5D1B9E71368256861695D
:10338000181D106028061B6801D5196002E06A0646
:10339000FBD51980002323616546B9E71368191D21
:1033A00011601D68626800212846FDF7A1F808B188
:1033B000401B606063682361002384F84330A7E703
:1033C00023692A4639463046C0470130AAD02368CF
:1033D0009B0713D4E068039B9842B8BF1846A3E745
:1033E00001234A4639463046C04701309AD001355C
:1033F000E368039A9B1AAB42F2DCEBE7002504F189
:103400001909F5E7002BACD1037884F8423004F1B8
:1034100042056CE7616000087260000810B5431E49
:103420000A44914200D110BD11F8014B03F8014F3D
:10343000F7E7884210B501EB020307D8421E994214
:103440000AD011F8014B02F8014FF8E78342F5D991
:103450008118D21AD34200D110BD13F8014D01F8E2
:10346000014DF7E738B50546002945D051F8043C31
:103470000C1F002BB8BFE41800F0D2F81F4A1368E5
:10348000104633B9636014602846BDE8384000F048
:10349000C8B8A3420CD921686218934204BF1A68C5
:1034A0005B68636004BF521822600460ECE7134657
:1034B0005A680AB1A242FAD919685818A0420BD129
:1034C00020680144581882421960DDD110685268A2
:1034D0005A6001441960D7E702D90C232B60D3E767
:1034E000206821188A4204BF11685268626004BFD4
:1034F000091821605C60C7E738BD00BF18010020D3
:1035000070B5CD1C25F0030508350C2D38BF0C25F2
:10351000002D064601DBA94203D90C2333600020AD
:1035200070BD00F07DF8214A1468214691B9204C05
:1035300023681BB9304600F063F820602946304606
:1035400000F05EF8431C24D10C233360304600F0B9
:1035500068F8E4E70B685B1B18D40B2B0FD90B60E2
:10356000CD50CC18304600F05CF804F10B00231D60
:1035700020F00700C31AD3D05A42E250D0E78C4261
:103580004B6816BF636013600C46EBE70C46496856
:10359000CCE7C41C24F00304A04205D0211A304615
:1035A00000F02EF80130CFD02560DBE718010020B5
:1035B0001C010020F8B5074614460E4621B91146F5
:1035C000BDE8F840FFF79CBF22B9FFF74BFF254647
:1035D0002846F8BD00F026F8A0420FD22146384612
:1035E000FFF78EFF05460028F2D031462246FFF74E
:1035F00015FF31463846FFF735FFE9E73546E7E77F
:1036000038B5064C0023054608462360FEF766FBE6
:10361000431C02D1236803B12B6038BDBC010020DC
:103620007047704751F8043C181F002BBCBF0B5863
:10363000C0187047F8B500BFF8BC08BC9E4670477C
:0C364000F8B500BFF8BC08BC9E467047FF
:10364C000000000000000000010203040607080946
:10365C000000000001020304000000000000000054
:10366C00000000000000000000000000000000004E
:10367C00000000000000000000000000000000003E
:10368C00000000000000000000000000E003E00368
:10369C00E003E003E003E003E003E003C003C00346
:1036AC00C001C001C001C001C00100000000000049
:1036BC00E003E003E0030000000000000000000055
:1036CC003C1E3C1E3C1E3C1E3C1E3C1E3C1E000078
:1036DC0000000000000000000000000000000000DE
:1036EC0000000000000000000000000000000000CE
:1036FC0000000000CE01CE03DE039E039C039C075A
:10370C00FF3FFF7F3807380F780F780F780EFFFFD9
:10371C00FFFFF01EF01CE01CE03CE03DE039000037
:10372C000000000000000000FC03FE0FEE1FE01E76
:10373C00E01EE01EE01EE01FE00FE007F003FC01BE
:10374C00FE01FE01FE01FE01FE01FE01FE3DFC3FFD
:10375C00F00FE001E001000000000000033E07F75D
:10376C008FE78EE79EE3BCE3B8E7F8E7F0F7E03FBE
:10377C00C001FF03FF07F307F30FF31EF33CF3380D
:10378C00F3787FF03FE00000000000000000000034
:10379C00E007F80F780F781F781F781F780FF00F5D
:1037AC00E00F801FC37FC3FBE7F3F7F1F7F0FFF0E7
:1037BC007FF03EF87F7CFF3FEF1F00000000000011
:1037CC0000000000E003E003E003E003E003C003BB
:1037DC00C00100000000000000000000000000001C
:1037EC0000000000000000000000000000000000CD
:1037FC0000000000000000003F007C00F001E00130
:10380C00C003C00780078007800F000F000F000F58
:10381C00000F000F000F800F80078007C007C00348
:10382C00E001F0017C003F000F000000007E001F53
:10383C00C007C003E001F001F000F000F8007800D0
:10384C0078007800780078007800F800F000F0003C
:10385C00F001E001C003C007001F007E00780000EB
:10386C00E003C003C001CE39FF3F7F3F200370034C
:10387C00F807780F3C1F380600000000000000001D
:10388C00000000000000000000000000000000002C
:10389C00000000000000000000000000000000001C
:1038AC00C001C001C001C001C001C001C001FFFFC7
:1038BC00FFFFC001C001C001C001C001C001000078
:1038CC0000000000000000000000000000000000EC
:1038DC0000000000000000000000000000000000DC
:1038EC0000000000000000000000E003E003E00323
:1038FC00E003E001E001E001C001800300000000F2
:10390C0000000000000000000000000000000000AB
:10391C000000FE3FFE3F0000000000000000000021
:10392C00000000000000000000000000000000008B
:10393C00000000000000000000000000000000007B
:10394C00000000000000000000000000000000006B
:10395C000000E003E003E003E003000000000000CF
:10396C00000000000F000F001E001E003C003C0079
:10397C0078007800F000F000E001E001C003C00323
:10398C0080078007000F000F001E001E003C003C4B
:10399C000078007800F00000F007F80F7C1F3E3E26
:1039AC001E3C1F7C1F7C0F780F780F780F780F78D8
:1039BC000F780F781F7C1F7C1E3C3E3E7C1FF80F3F
:1039CC00F00700000000000000000000F000F0070D
:1039DC00F03FF03FF001F001F001F001F001F001D7
:1039EC00F001F001F001F001F001F001F001F00143
:1039FC00F001FF3FFF3F000000000000000000004E
:103A0C00E00FF83F7C3C3C003E003E003E003C009A
:103A1C003C007C00F800F001E003C0078007000FB9
:103A2C00001E003E003CFE3FFE3F00000000000078
:103A3C0000000000F00FF81F7C1C3E003E003E0012
:103A4C003C003C00F800F00FF80F7C003E001E001C
:103A5C001E001E001E003E007C1CF81FE01F000014
:103A6C0000000000000000007800F800F800F801E9
:103A7C00F803F807F807780F781E781E783C7878EA
:103A8C007878FFFFFFFF78007800780078007800E6
:103A9C00780000000000000000000000FC1FFC1F6C
:103AAC00FC1F001E001E001E001E001EE01FF81F43
:103ABC00FC007C003E003E001E003E003E003C0030
:103ACC007C1CF81FE01F000000000000000000003C
:103ADC00FC01FE078E0F001F001E003E003C003C48
:103AEC00F83DFC3F3E7F1F7E0F3C0F3C0F3C0F3CD4
:103AFC000F3E1F1E3E1FFC0FF003000000000000D5
:103B0C0000000000FF3FFF3FFF3F0F001E001E00A4
:103B1C003C0038007800F000F000E001E001C00348
:103B2C00C0038007800F800F000F001F001F0000D4
:103B3C000000000000000000F807FC0F3E1F1E1ED6
:103B4C001E3E1E3E1E1E3C1FF80FF007F80FFC1EFB
:103B5C003E3E1F3C1F7C0F7C0F7C1F3C3E3FFC1FDE
:103B6C00F00700000000000000000000F007F80F54
:103B7C007C1E3E3C1E3C1F7C1F7C1F7C1F7C1F3C04
:103B8C003F3EFF1FEF071F001E001E003E003C00C3
:103B9C00F838F03FE01F00000000000000000000BB
:103BAC00000000000000000000000000E003E00343
:103BBC00E003E00300000000000000000000000033
:103BCC000000E003E003E003E0030000000000005D
:103BDC0000000000000000000000000000000000D9
:103BEC00E003E003E003E00300000000000000003D
:103BFC00000000000000E003E003E003E003E0014C
:103C0C00E001E001C00380030000000000000000A0
:103C1C000000000003000F003F00FC00F003C00F89
:103C2C00003F00FE003FC00FF003FC003F000F0000
:103C3C000300000000000000000000000000000075
:103C4C000000000000000000000000000000000068
:103C5C00FFFFFFFF000000000000FFFFFFFF000060
:103C6C000000000000000000000000000000000048
:103C7C0000000000000000000000000000E000F860
:103C8C00007E801FE007F8017E001F007E00F80117
:103C9C00E007801F007E00F800E00000000000003C
:103CAC0000000000F01FFC3F3E381F381F381E007C
:103CBC001E003C007800F000E001C003C003C00708
:103CCC00C007000000000000C007C007C0070000CC
:103CDC000000000000000000F803FE0F1E1F0F3E46
:103CEC007F3CFF78EF79C773C7F38FF38FF38FF3B4
:103CFC009FF39FF3FF73FF7BF779003C1C1FFC0FB6
:103D0C00F8030000000000000000000000000000AC
:103D1C000000E003E003F007F007F007780F780FDE
:103D2C007C0E3C1E3C1E3E3CFE3FFF3F1F780F7836
:103D3C000FF007F007F0000000000000000000008A
:103D4C00000000000000F83FFC3F3E3C1E3C1E3CC7
:103D5C001E3C3E3C7C3CF03FF83F7E3C1F3C1F3CF5
:103D6C000F3C0F3C1F3CFE3FF83F000000000000E2
:103D7C0000000000000000000000FF01FF07871F8B
:103D8C00003E003C007C00780078007800780078D9
:103D9C00007C007C003E003F831FFF07FF010000FA
:103DAC000000000000000000000000000000F07F98
:103DBC00FC7F7E781F781F780F780F780F780F783C
:103DCC000F780F780F780F781F781E787E78F87F31
:103DDC00E07F000000000000000000000000000078
:103DEC000000FF3FFF3F003E003E003E003E003E15
:103DFC00003EFE3FFE3F003E003E003E003E003EC9
:103E0C00003EFF3FFF3F00000000000000000000EC
:103E1C00000000000000FF1FFF1F001E001E001E00
:103E2C00001E001E001EFF1FFF1F001E001E001E96
:103E3C00001E001E001E001E001E000000000000E0
:103E4C0000000000000000000000FE03FF0F871FB1
:103E5C00003E007C007C007800F800F87FF87FF8CA
:103E6C000F780F7C0F7C0F3E8F1FFF0FFE0300009F
:103E7C0000000000000000000000000000001F7C9B
:103E8C001F7C1F7C1F7C1F7C1F7C1F7C1F7CFF7F6B
:103E9C00FF7F1F7C1F7C1F7C1F7C1F7C1F7C1F7C5B
:103EAC001F7C00000000000000000000000000006B
:103EBC000000FF3FFF3FE003E003E003E003E0030B
:103ECC00E003E003E003E003E003E003E003E003CE
:103EDC00E003FF3FFF3F0000000000000000000077
:103EEC00000000000000FC1FFC1F7C007C007C001C
:103EFC007C007C007C007C007C007C007C007C00D6
:103F0C0078007800F838F03FC03F00000000000057
:103F1C00000000000000000000001F3C1E3C3C3C68
:103F2C00783CF03CE03DE03FC03F803FC03FE03F8D
:103F3C00F03DF03C783C7C3C3E3C1F3C0F3C000090
:103F4C000000000000000000000000000000003E27
:103F5C00003E003E003E003E003E003E003E003E65
:103F6C00003E003E003E003E003E003E003EFF3F55
:103F7C00FF3F0000000000000000000000000000F7
:103F8C0000001FF81FFC1FFC3FFE3FFE3FFE7FFFA3
:103F9C0077FF77FFF7F7E7F7E7F3E7F3C7F307F0F8
:103FAC0007F007F007F00000000000000000000020
:103FBC000000000000000F7C0F7C0F7E0F7F0F7F36
:103FCC008F7F8F7FCF7FEF7BEF79FF79FF78FF7843
:103FDC007F783F783F781F781F7800000000000042
:103FEC0000000000000000000000F007FC1F3E3E37
:103FFC001F7C0F780F780FF80FF80FF80FF80FF8E9
:10400C000FF80F780F781F7C3E3EFC1FF007000066
:10401C000000000000000000000000000000FC3F59
:10402C00FF3F1F3E0F3E0F3E0F3E0F3E1F3E3F3EDB
:10403C00FC3FF03F003E003E003E003E003E003E96
:10404C00003E000000000000000000000000000026
:10405C000000F007FC1F3E3E1F7C0F780F780FF816
:10406C000FF80FF80FF80FF80FF80F780F781F7C78
:10407C003E3EFC1FF8077C003F000F0003000000D1
:10408C00000000000000F03FFC3F7E3C3E3C1E3C2C
:10409C001E3C3E3C3C3CFC3CF03FE03FF03DF83CE1
:1040AC007C3C3E3C1E3C1F3C0F3C000000000000D2
:1040BC0000000000000000000000FC07FE1F0E3E88
:1040CC00003C003C003C003EC01FF80FFE037F008C
:1040DC001F000F000F001F203E3CFC3FF01F000094
:1040EC000000000000000000000000000000FFFFC6
:1040FC00FFFFE003E003E003E003E003E003E00381
:10410C00E003E003E003E003E003E003E003E0038B
:10411C00E0030000000000000000000000000000B0
:10412C0000000F7C0F7C0F7C0F7C0F7C0F7C0F7CB6
:10413C000F7C0F7C0F7C0F7C0F7C0F7C1E3C1E3C7D
:10414C003E3EFC1FF00700000000000000000000D5
:10415C0000000000000007F007F007F80F780F7C54
:10416C001E3C1E3C1E3E3C1E3C1F781F780FF80F59
:10417C00F007F007F007E003E00300000000000088
:10418C000000000000000000000003E003F003F05A
:10419C0007F0E7F3E7F3E7F3E773F77BF77FFF7FCE
:1041AC007F7F7F7F7E7F7E3F3E3E3E3E3E3E0000D9
:1041BC00000000000000000000000000000007F8F4
:1041CC000F7C1E3E3E3E3C1FF80FF007E007E0035D
:1041DC00E003F007F80F7C0F7C1E3E3C1F780F7835
:1041EC000FF00000000000000000000000000000C4
:1041FC00000007F807780F7C1E3C1E3E3C1F780F12
:10420C00F80FF007E003E003E003E003E003E00352
:10421C00E003E003E00300000000000000000000E9
:10422C00000000000000FF7FFF7F0F001F003E001A
:10423C007C00F800F000E001E003C007800F000FE5
:10424C00001E003E007CFF7FFF7F0000000000008E
:10425C0000000000FF0780078007800780078007A9
:10426C00800780078007800780078007800780070A
:10427C0080078007800780078007800780078007FA
:10428C008007FF07FF07000000780078003C003C27
:10429C00001E001E000F000F80078007C003C00324
:1042AC00E001E001F000F000780078003C003C00F8
:1042BC001E001E000F000F0007000000F07FF00032
:1042CC00F000F000F000F000F000F000F000F00062
:1042DC00F000F000F000F000F000F000F000F00052
:1042EC00F000F000F000F000F000F07FF07F000034
:1042FC00C000C001C001E003E003F007F00778073D
:10430C00780F380F3C1E3C1E1E3C1E3C0F380F789D
:10431C000778000000000000000000000000000012
:10432C000000000000000000000000000000000081
:10433C000000000000000000000000000000000071
:10434C000000000000000000000000000000FFFF63
:10435C00FFFF000000000000F00000000000000063
:10436C000000000000000000000000000000000041
:10437C000000000000000000000000000000000031
:10438C000000000000000000000000000000000021
:10439C000000000000000000F80FFC3F7C3C3E00D9
:1043AC003E003E00FE07FE1F3E3E3E7C3E783E7CBD
:1043BC007E7CFF3FCF1F00000000000000000000CB
:1043CC00003C003C003C003C003C003CF83DFE3F07
:1043DC003E3F1F3E0F3C0F3C0F3C0F3C0F3C0F3C35
:1043EC001F3C1E3C3E3FFC3FF03B00000000000029
:1043FC0000000000000000000000000000000000B1
:10440C00FE03FF0F871F003E003E003C007C007C3B
:10441C00007C003C003E003E871FFF0FFE030000A7
:10442C0000000000000000001F001F001F001F0004
:10443C001F001F00FF07FF1F3F3E1F3C1F7C1F7C00
:10444C001F7C1F781F781F7C1F7C3F3C7F3EFF1F0B
:10445C00DF0F000000000000000000000000000062
:10446C000000000000000000F803FC0F3E1F1E3E81
:10447C001F3C1F7CFF7FFF7F007C007C003C003ECC
:10448C00071FFF0FFE0300000000000000000000EB
:10449C00FF01E103C003C007C007C007FF7FFF7F18
:1044AC00C007C007C007C007C007C007C007C007C8
:1044BC00C007C007C007C007C0070000000000000D
:1044CC0000000000000000000000000000000000E0
:1044DC00EF07FF1F7F3E1F3C1F7C1F7C1F781F7840
:1044EC001F781F7C1F7C3F3C7F3EFF1FDF0F1E0091
:1044FC001E001E007C38F83F003C003C003C003C99
:10450C00003C003CFC3DFE3F9E3F1F3F1F3E1F3CBE
:10451C001F3C1F3C1F3C1F3C1F3C1F3C1F3C1F3CB7
:10452C001F3C00000000000000000000F001F00142
:10453C000000000000000000E07FE07FE001E001EF
:10454C00E001E001E001E001E001E001E001E00157
:10455C00E001E001E00100000000000000000000AC
:10456C00F800F8000000000000000000F83FF83FE1
:10457C00F800F800F800F800F800F800F800F8006F
:10458C00F800F800F800F800F800F800F800F00067
:10459C00F071E07F003C003C003C003C003C003CE7
:1045AC001F3C3E3C7C3CF83CF03DE03DC03FC03FF6
:1045BC00E03FF03DF83C7C3C3E3C1F3C1F3C000087
:1045CC000000000000000000F07FF001F001F0019D
:1045DC00F001F001F001F001F001F001F001F00147
:1045EC00F001F001F001F001F001F001F001F00137
:1045FC00F0010000000000000000000000000000BE
:10460C0000000000000000009EF7FFFFFFFFFFFF0F
:10461C00E7FBE7F9C7F1C7F1C7F1C7F1C7F1C7F17C
:10462C00C7F1C7F1C7F10000000000000000000056
:10463C00000000000000000000000000FC3DFE3FF8
:10464C009E3F1F3F1F3E1F3C1F3C1F3C1F3C1F3CFF
:10465C001F3C1F3C1F3C1F3C1F3C00000000000087
:10466C00000000000000000000000000000000003E
:10467C00F007FC1F3E3E1F3C1F7C0F780F780F7815
:10468C000F780F781F7C1F3C3E3EFC1FF00700008C
:10469C00000000000000000000000000000000000E
:1046AC0000000000F83DFE3F3E3F1F3E0F3C0F3C1C
:1046BC000F3C0F3C0F3C0F3C1F3C1E3E3E3FFC3F53
:1046CC00F83F003C003C003C003C003C000000007B
:1046DC000000000000000000EE07FE1F7E3E1E3CA6
:1046EC001E7C1E781E781E781E781E781E7C3E7CE2
:1046FC007E3EFE1FDE0F1E001E001E001E001E0052
:10470C000000000000000000000000007F1FFF1FE1
:10471C00E71FC71F871F001F001F001F001F001F60
:10472C00001F001F001F001F001F000000000000E2
:10473C00000000000000000000000000000000006D
:10474C00FC07FE1F0E1E003E003E003FE01FFC0754
:10475C00FE003E001E001E003E3CFC3FF01F000011
:10476C0000000000000000000000000000008007B6
:10477C0080078007FF7FFF7F800780078007800707
:10478C00800780078007800780078007C007FF032A
:10479C00FF0100000000000000000000000000000D
:1047AC0000000000000000001E3C1E3C1E3C1E3C95
:1047BC001E3C1E3C1E3C1E3C1E3C1E3C3E3C7E3C9D
:1047CC00FE3EFE1FDE0F0000000000000000000097
:1047DC0000000000000000000000000007F00F784F
:1047EC000F781E3C1E3C1E3E3C1E3C1E780F780F64
:1047FC00F00FF007F007E003E003000000000000FA
:10480C00000000000000000000000000000000009C
:10481C0003F0E3F1E3F3E7F3F7F3F7F3F77F777FD5
:10482C007F7F7F7F7F7F3E3E3E3E3E3E3E3E000092
:10483C00000000000000000000000000000000006C
:10484C00000000000F7C1E3E3C3E3C1FF80FF007A2
:10485C00F007E003F007F807F80F7C1E3E3E1F3C04
:10486C001F780000000000000000000000000000A5
:10487C00000000000000000007F80F780F7C1E3CC1
:10488C001E3C3C1E3C1E3C1F780FF80FF007F00737
:10489C00E003E003C003C003C0038007800F007F68
:1048AC00000000000000000000000000FF3FFF3F80
:1048BC001F003E007C00F800F001E003C007800FF1
:1048CC00001F001E003CFF7FFF7F00000000000067
:1048DC0000000000FE01E003C003C003C003C003DE
:1048EC00E001E001E001C001C003803F803FC00354
:1048FC00C001E001E001E001C003C003C003C0033C
:10490C00E003FE017E000000C001C001C001C00137
:10491C00C001C001C001C001C001C001C001C00183
:10492C00C001C001C001C001C001C001C001C00173
:10493C00C001C001C001C001C0010000C03FE003C4
:10494C00E001E001E001E001C001C003C003C001CF
:10495C00E001FE00FE00E001C001C003C003C00185
:10496C00E001E001E001E001E003C03F003F000096
:10497C00000000000000000000000000000000002B
:10498C00000000000000073FC77FE773FFF17EF0D7
:10499C00000000000000000000000000000000000B
:1049AC0000000000000000000000000000000000FB
:1049BC0000000000000000000000000000000000EB
:1049CC0000000000000000000000000C000C000CB7
:1049DC00000C000C000C000C000C000C000C000C6B
:1049EC000000000C000C0000000000000000001B88
:1049FC00001B001B001B001B00000000000000003F
:104A0C00000000000000000000000000000000009A
:104A1C0000008019801980198019C07FC07F80190F
:104A2C000033C07FC07F00330033003300330000FD
:104A3C00000000000000001E003F807580650074BF
:104A4C00003C001E00078005806580658075003F76
:104A5C00001E0004000400000000007000D840D8C4
:104A6C00C0D880D900730006000C801BC036C0660D
:104A7C00C046C00680030000000000000000001EBD
:104A8C00003F003300330033001E000CC03CC066F6
:104A9C00806380618063C03E801C000000000000C9
:104AAC000000000C000C000C000C000C00000000BE
:104ABC0000000000000000000000000000000000EA
:104ACC000000000080000001000300060006000446
:104ADC00000C000C000C000C000C000C0004000678
:104AEC000006000300018000002000100018000CDC
:104AFC00000C000400060006000600060006000676
:104B0C000004000C000C0018001000200000000C29
:104B1C00002D003F001E00330000000000000000CC
:104B2C000000000000000000000000000000000079
:104B3C00000000000000000C000C000C000CC0FF7A
:104B4C00C0FF000C000C000C000C0000000000006A
:104B5C000000000000000000000000000000000049
:104B6C000000000000000000000000000000000C2D
:104B7C00000C00040004000800000000000000000D
:104B8C0000000000000000000000001E001E0000DD
:104B9C000000000000000000000000000000000009
:104BAC0000000000000000000000000000000000F9
:104BBC00000000000000000C000C000000000000D1
:104BCC0000000003000300030006000600060006B8
:104BDC00000C000C000C000C001800180018000051
:104BEC00000000000000001E003F00338061806167
:104BFC008061806D806D8061806180610033003FD9
:104C0C00001E00000000000000000006000E001E48
:104C1C000036002600060006000600060006000608
:104C2C000006000600060000000000000000001E48
:104C3C00003F807380618061800100030006000CDE
:104C4C00001800300060807F807F000000000000B2
:104C5C000000001C003E006300630003000E000E09
:104C6C0000038001800180618073003F001E000002
:104C7C000000000000000006000E000E001E001ECA
:104C8C000016003600360066807F807F0006000626
:104C9C0000060000000000000000007F007F0060A4
:104CAC0000600060006E007F806380018001806185
:104CBC008073003F001E0000000000000000001E7A
:104CCC00003F803380610060006E007F80738061E4
:104CDC00806180618033003F001E000000000000F6
:104CEC000000807F807F8001000300030006000627
:104CFC00000C000C000C0008001800180018000034
:104D0C00000000000000001E003F80638061806195
:104D1C000021001E003F8061806180618061003F46
:104D2C00001E0000000000000000001E003F007389
:104D3C008061806180618073803F801D8001806113
:104D4C000073003F001E0000000000000000000087
:104D5C00000000000000000C000C0000000000002F
:104D6C00000000000000000C000C0000000000001F
:104D7C00000000000000000000000000000C000C0F
:104D8C0000000000000000000000000C000C0004FB
:104D9C0000040008000000000000000080008003F8
:104DAC00000E003800600038000E80038000000008
:104DBC0000000000000000000000000000000000E7
:104DCC000000807F807F00000000807F807F0000DB
:104DDC0000000000000000000000000000000000C7
:104DEC000000000000400070001C0007800100075C
:104DFC00001C0070004000000000000000000000DB
:104E0C000000001F803FC071C060C000C001800363
:104E1C000007000E000C000C0000000C000C000041
:104E2C00000000000000001E003F80318071806394
:104E3C00806F806D806D806F806700600032003EF7
:104E4C00001C0000000000000000000E000E001B03
:104E5C00001B001B001B80318031803F803F803164
:104E6C00C060C060C0600000000000000000007C5A
:104E7C00007E0063006300630063007E007E0063BD
:104E8C00806180618063007F007E00000000000074
:104E9C000000001E003F80318061006000600060F7
:104EAC0000600060006080618031003F001E0000E7
:104EBC00000000000000007C007F006380638061C4
:104ECC008061806180618061806100630063007E2D
:104EDC00007C0000000000000000807F807F0060EC
:104EEC00006000600060007F007F00600060006078
:104EFC000060807F807F0000000000000000807F49
:104F0C00807F0060006000600060007F007F0060B8
:104F1C0000600060006000600060000000000000A5
:104F2C000000001E003F8031806100600060006066
:104F3C0080638063806180618031803F001E00004F
:104F4C0000000000000080618061806180618061F0
:104F5C008061807F807F8061806180618061806101
:104F6C0080610000000000000000003F003F000CCA
:104F7C00000C000C000C000C000C000C000C000CC5
:104F8C00000C003F003F000000000000000080010A
:104F9C0080018001800180018001800180018001FD
:104FAC00806180618073003F001E000000000000E3
:104FBC000000C0608061006300660066006C0078D1
:104FCC00007C00660066006380618061C060000048
:104FDC0000000000000000600060006000600060E5
:104FEC000060006000600060006000600060807F16
:104FFC00807F0000000000000000C071C071C07B09
:10500C00C07AC06AC06AC06EC064C060C060C06054
:10501C00C060C060C0600000000000000000807133
:10502C008071807980798079806D806D806D8065EC
:10503C0080678067806780638063000000000000E9
:10504C000000001E003F0033806180618061806140
:10505C0080618061806180610033003F001E000030
:10506C00000000000000007E007F80638061806192
:10507C0080618063007F007E0060006000600060E3
:10508C0000600000000000000000001E003F003324
:10509C0080618061806180618061806180658067F2
:1050AC000033803F401E0000000000000000007E26
:1050BC00007F8063806180618063007F007E00667A
:1050CC000063006380618061C0600000000000002C
:1050DC000000000E001F8031803100300038001EAF
:1050EC0000078003806180618031003F001E00005A
:1050FC00000000000000C0FFC0FF000C000C000C02
:10510C00000C000C000C000C000C000C000C000C33
:10511C00000C0000000000000000806180618061D4
:10512C00806180618061806180618061806180616B
:10513C008073003F001E0000000000000000C060F3
:10514C00C060C060803180318031001B001B001BAF
:10515C00001B000E000E000E0004000000000000FA
:10516C000000C0C0C0C0C0C0C0C0C0C0C0CC804C5B
:10517C00804C805E80528052807380618061000020
:10518C00000000000000C0C0806080610033003B64
:10519C00001E000C000C001E001F003B8071806183
:1051AC00C0C00000000000000000C0C08061806131
:1051BC0000330033001E001E000C000C000C000C11
:1051CC00000C000C000C0000000000000000803FF0
:1051DC00803F8001000300030006000C000C001847
:1051EC00001800300060807F807F0000000000000D
:1051FC00000F000F000C000C000C000C000C000C3D
:10520C00000C000C000C000C000C000C000C000C32
:10521C00000F000F0000001800180018000C000C04
:10522C00000C000C0006000600060006000300033C
:10523C000003000000000000001E001E0006000617
:10524C000006000600060006000600060006000622
:10525C000006000600060006001E001E0000000CE2
:10526C00000C001E001200330033806180610000CE
:10527C000000000000000000000000000000000022
:10528C000000000000000000000000000000000012
:10529C000000000000000000000000000000000002
:1052AC00E0FF0000000000380018000C00000000B7
:1052BC0000000000000000000000000000000000E2
:1052CC0000000000000000000000000000000000D2
:1052DC000000001F803F80618001801F803F806143
:1052EC008063807FC0380000000000000000006078
:1052FC00006000600060006E007F807380618061E0
:10530C00806180618073007F006E000000000000EF
:10531C0000000000000000000000001E003F807331
:10532C0080610060006080618073003F001E00009F
:10533C000000000000008001800180018001801DC0
:10534C00803F807380618061806180618073803F69
:10535C00801D0000000000000000000000000000A4
:10536C000000001E003F00738061807F807F006022
:10537C008071003F001E0000000000000000C0070C
:10538C00C00F000C000C807F807F000C000C000C08
:10539C00000C000C000C000C000C000000000000C5
:1053AC000000000000000000801D803F80738061C1
:1053BC008061806180618073803F801D800180638B
:1053CC00007F003E00000060006000600060006F25
:1053DC00807F80718061806180618061806180618B
:1053EC0080610000000000000000000600060000C4
:1053FC000000003E003E0006000600060006000607
:10540C000006000600060000000000000006000672
:10541C0000000000003E003E0006000600060006EC
:10542C00000600060006000600060046007E003C52
:10543C000000006000600060006080610063006636
:10544C00006C007C0076006300638061C06000002B
:10545C00000000000000003E003E000600060006B2
:10546C000006000600060006000600060006000600
:10547C00000600000000000000000000000000001A
:10548C00000080DDC0FFC0CEC0CCC0CCC0CCC0CC36
:10549C00C0CCC0CCC0CC000000000000000000005C
:1054AC00000000000000006F807F807180618061CF
:1054BC00806180618061806180610000000000007B
:1054CC0000000000000000000000001E003F807380
:1054DC0080618061806180618073003F001E0000EC
:1054EC00000000000000000000000000006E007FC3
:1054FC00807380618061806180618073007F006E49
:10550C00006000600060006000000000000000000F
:10551C00801D803F807380618061806180618073B9
:10552C00803F801D8001800180018001000000000F
:10553C000000000000000067803F003900300030A0
:10554C00003000300030003000300000000000005F
:10555C0000000000000000000000001E803F806181
:10556C000060007F803F80018061007F001E000092
:10557C000000000000000000000800180018007F68
:10558C00007F001800180018001800180018801F61
:10559C00800F000000000000000000000000000070
:1055AC0000008061806180618061806180618061C8
:1055BC008063807F803D0000000000000000000040
:1055CC00000000000000C060803180318031001B81
:1055DC00001B001B000E000E000600000000000067
:1055EC000000000000000000000080DD80DD80DD98
:1055FC00005500550055007700770022002200006E
:10560C0000000000000000000000000000008061AD
:10561C0000330033001E000C000C001E003300335E
:10562C00806100000000000000000000000000008D
:10563C0080618061803100330033001B001B001B34
:10564C00000E000E000E001C007C0070000000001C
:10565C00000000000000C07FC07F80010003000636
:10566C00000C00180030C07FC07F0000000000005C
:10567C008003800700060006000600060006000EE8
:10568C00001C001C000E00060006000600060006AA
:10569C0080078003000600060006000600060006D0
:1056AC0000060006000600060006000600060006BE
:1056BC0000060006000600060038003C000C000C3A
:1056CC00000C000C000C000E00070007000E000C74
:1056DC00000C000C000C000C003C0038000000001A
:1056EC00000000000000000000008038807F0047B0
:1056FC00000000000000000000000000000000009E
:10570C00000000000000000000000000000000008D
:10571C00000000000010001000100010001000101D
:10572C0000000010000000000028002800280000E5
:10573C000000000000000000000000000024002415
:10574C00007C00240048007C004800480000000059
:10575C000038005400500038001400540054003835
:10576C0000100000002000540058003000280054A5
:10577C000014000800000000001000280028001091
:10578C0000340048004800340000000000100010F5
:10579C0000100000000000000000000000000000ED
:1057AC000008001000200020002000200020002015
:1057BC000010000800200010000800080008000875
:1057CC00000800080010002000100038001000280D
:1057DC0000000000000000000000000000000000BD
:1057EC0000100010007C00100010000000000000F1
:1057FC00000000000000000000000000000000108D
:10580C000010001000000000000000000000003834
:10581C00000000000000000000000000000000007C
:10582C00000000000000001000000000000800084C
:10583C0000100010001000100020002000000000DC
:10584C000038004400440054004400440044003834
:10585C00000000000010003000500010001000107C
:10586C000010001000000000003800440044000448
:10587C00000800100020007C0000000000380044EC
:10588C00000400180004000400440038000000006C
:10589C0000080018002800280048007C00080008B8
:1058AC0000000000007C0040004000780004000470
:1058BC00004400380000000000380044004000782C
:1058CC00004400440044003800000000007C000448
:1058DC000008001000100020002000200000000034
:1058EC0000380044004400380044004400440038B0
:1058FC00000000000038004400440044003C000458
:10590C0000440038000000000000000000100000FF
:10591C00000000000000001000000000000000006B
:10592C00000000100000000000000010001000102B
:10593C0000000000000C003000400030000C0000A3
:10594C0000000000000000000000007C0000007C53
:10595C0000000000000000000000000000600018C3
:10596C000004001800600000000000000038004433
:10597C0000040008001000100000001000000000DF
:10598C0000380044004C0054005C004000400038DB
:10599C000000000000100028002800280028007CCF
:1059AC0000440044000000000078004400440078EB
:1059BC00004400440044007800000000003800441B
:1059CC00004000400040004000440038000000004F
:1059DC00007000480044004400440044004800703B
:1059EC0000000000007C00400040007C00400040B3
:1059FC000040007C00000000007C0040004000786B
:105A0C00004000400040004000000000003800440E
:105A1C0000400040005C00440044003800000000DE
:105A2C00004400440044007C004400440044004412
:105A3C0000000000003800100010001000100010D2
:105A4C0000100038000000000004000400040004F2
:105A5C00000400040044003800000000004400482A
:105A6C000050006000500048004800440000000056
:105A7C000040004000400040004000400040007CDE
:105A8C00000000000044006C006C00540044004412
:105A9C000044004400000000004400640064005412
:105AAC000054004C004C004400000000003800443E
:105ABC00004400440044004400440038000000004E
:105ACC00007800440044004400780040004000404E
